:020000040800F2
:10000000200400204D240008CD230008CF23000841
:10001000D1230008D3230008D523000800000000E6
:10002000000000000000000000000000350B000888
:10003000D723000800000000DD0A00086D0A000850
:100040007D240008812400088524000889240008F4
:100050008D240008912400089524000899240008A4
:100060009D240008A1240008A5240008A924000854
:10007000AD240008B1240008B5240008B924000804
:10008000BD240008C1240008C5240008C9240008B4
:10009000CD240008D1240008D5240008D924000864
:1000A000DD240008D9230008E1240008E524000825
:1000B000E9240008ED240008F1240008F5240008D4
:1000C000F9240008FD240008012500080525000882
:1000D000092500080D250008112500081525000830
:1000E000192500081D2500082125000825250008E0
:1000F000292500082D250008312500083525000890
:10010000392500083D25000841250008452500083F
:10011000492500084D2500085125000855250008EF
:10012000592500085D250008DF2300086125000827
:100130006525000800000000000000006925000897
:100140006D2500087125000875250008792500082F
:100150007D250008812500088525000889250008DF
:100160008D2500089125000895250008992500088F
:100170009D250008A1250008A52500080000000015
:1001800000000000A9250008000000000000000099
:10019000AD2500080000000000000000B1250008A7
:1001A000000000000000000000000000B52500086D
:1001B000B9250008BD250008C1250008C52500088F
:1001C000C92500082DE9F0430446154685B0884648
:1001D0009946A80000F088FA06001AD0542000F0D2
:1001E00083FA070012D03E630020039002974B462B
:1001F0000D9801902A460C9800904146204600F048
:100200000DF8384600F046F8012004E0304600F0D2
:10021000F0FA4FF0FF3005B0BDE8F0832DE9F84368
:100220000A9C8046206B00EB8200001FC708FF007D
:10023000994607F007000A5C231883F834200A5C0B
:1002400012B1401C1028F6D3002084F8430004F1BA
:100250004405089E072E28BF0626E6622E606860C9
:10026000201D00F022FB04F1180000F01EFBC6F177
:100270000700A061246164620020A86028734A46D8
:100280004146384600F04CFB2060099800B10460FC
:10029000BDE8F1832DE9F041044600F0BCFBDFF836
:1002A000BC53DFF8BC83E86C401CE8641426A86AE1
:1002B00028BBAC62E86C012827D1002706FB07F0B9
:1002C000404400F0E5FA7F1C072FF7D305F17400D6
:1002D00000F0DEFA05F18807384600F0D9FA284622
:1002E00000F0D6FA05F1140000F0D2FA05F138005A
:1002F00000F0CEFA05F17400E8622F6305E0A86D06
:1003000018B900F018F828BFAC62A86E401CA866A7
:1003100000F088F9704300F00AF800F095FBA86D32
:1003200018B1A86AE16A00F08CF9BDE8F081211DDE
:10033000404400F0BDBAE06AA96AC96A88427047C1
:10034000616D012202FA00F021EA00006065704749
:1003500010B504000DD0DFF80403006F00F0E9F8D9
:1003600000F035F80021204600F082F900F035F861
:1003700008B900F035F910BD1CB5DFF858430FF28D
:10038000603104F19C000190002300200090802245
:100390000FF20D20FFF716FF502101280FD181F336
:1003A000118800F049F94FF0FF30E0660120A065A8
:1003B00000202065BDE8134000F0DABA13BD10F14B
:1003C000010FFBD181F3118800F036F9FEE7DFF869
:1003D0000403016F491C0167704770B500F0DCF839
:1003E0000026002400F043F800F015FB286F401EA3
:1003F0002867286F002832D1E86CB0B92FE0E86890
:10040000C66800F030F800F091F8F06A696D0122DA
:10041000824000F027F9311D104400F049FAF06ADB
:10042000FFF78AFF24BF0120286628680028E6D14C
:100430000EB100F0E9F8EE6D3EB100F022F808B11F
:1004400001202866761EF8D1EC65286E38B1DFF8F9
:1004500080124FF080500124086000F0EDF800F0A9
:10046000F3FA204670BD06F1180000F046BA38B91C
:10047000502080F31188BFF34F8FBFF36F8FFEE7DB
:1004800070472DE9F84300F087F80024002844D194
:10049000286D10F10109C5F850900CD1E86A006888
:1004A00000F047F8E86A296BE9622863686E401C2F
:1004B000686600F0A9F8E86EDFF81082142781451D
:1004C00022D314E000F032F8B06A08B1FFF7CBFF96
:1004D000F06A696D01228240114369657843311DDC
:1004E000FFF726FFF06AFFF727FF28BF0124E86A1D
:1004F000006810B94FF0FF3005E0E86AC068C668D0
:1005000070688145DED2E866A86AC06A784358F808
:100510000000022804D3012402E0E86D401CE865D5
:10052000286E00B101242046BDE8F283301D00F0A2
:10053000E4B938B1502080F31188BFF34F8FBFF377
:100540006F8FFEE77047DFF81401016F11B10121D1
:100550000166704701661422416DB1FA81F1C1F163
:100560001F015143DFF8642153583BB9502080F3F9
:100570001188BFF34F8FBFF36F8FFEE7114401F176
:1005800008034A6852684A609A4204BF52684A6047
:100590004968C96881627047DFF83851286F704731
:1005A00070B5DFF8BC40DFF82C5110E000F033FAF2
:1005B000286AC668FFF7BAFFE86C401EE864686BFB
:1005C000401E686300F040FA304600F013F8686B94
:1005D0000028EBD120680228F9D300F001F8F6E7F3
:1005E000DFF8EC104FF080500860BFF34F8FBFF37F
:1005F0006F8F704710B50446206B00F0FAF8204664
:10060000BDE8104000F0F5B8DFF85000C16A096895
:1006100011B94FF0FF3103E0C16AC968C968496880
:10062000C16670470122E06A696D824011436965C5
:100630007047502080F31188BFF34F8FBFF36F8F47
:100640007047C06A884207D221494FF08050086045
:10065000BFF34F8FBFF36F8F70470000BC41002086
:100660005C420020114369651423184A58437047BF
:10067000F8B5184C256D0646A06A0F46001D00F01F
:100680003CF920B9A06A616DC06AFFF75AFE16F105
:10069000010F05D127B1A06A011D04F138001BE04C
:1006A000A06A76194660AE42A06A05D2011D206B91
:1006B000BDE8F44000F008B9011DE06A00F004F95B
:1006C000E06E864238BFE666F1BD00005C42002065
:1006D00004ED00E0BC410020BDE8F44000F0E8B8C3
:1006E00049444C45000000002DE9F8430446FFF75B
:1006F0006EFE664FB8680025A94608BB07F11803CF
:1007000007F1180213F007034FF47051104605D09B
:10071000D01DC008C000C0F5705151180918083923
:10072000C908C90038607D60B9604D600D600A1A63
:100730004260016040683861F8604FF000407861C5
:100740004FF050087869044241D1002C3FD0083462
:1007500014F0070F1FBF04F1080004F00701441A4A
:1007600014F0070F00F03CF88CB3F868A0422ED3C9
:100770003E68384601E030460E467168A14202D21A
:1007800031680029F7D1B9688E4220D0016801F1A3
:100790000805316801607068011B112908D3301900
:1007A00010F0070200F01CF84160746000F04AF895
:1007B0007068F9683A69091AF960914238BF39617D
:1007C000796908437060C6F8009005F00709FFF7E3
:1007D00004FEB9F1000F00F003F82846BDE8F283EB
:1007E00006D088F31188BFF34F8FBFF36F8FFEE7FA
:1007F000704738B5F0B1A0F10804244D606869690C
:100800005022084202D100F016F8FEE7236813B127
:1008100000F011F8FEE788436060FFF7D8FDE86854
:1008200061680818E860204600F00CF8BDE8314027
:10083000FFF7D3BD31BD82F31188BFF34F8FBFF3F4
:100840006F8F704730B511490A4600E01A461368A9
:100850008342FBD35368D418844203D14068C01844
:100860005060104643681468C518A54208D18968CD
:100870008C4204D06168C9184160246800E00C46CD
:100880000460824218BF106030BD000020040020C8
:1008900000F1080141604FF0FF31816000F1080173
:1008A000C160016100210160704700210161704752
:1008B00042684A6093688B609368596091600861F0
:1008C0000168491C0160704730B50A6812F1010FD8
:1008D00008BF036907D000F1080300E023465C6805
:1008E0002568AA42FAD25A684A6091608B605960C2
:1008F00008610168491C016030BD43680169826874
:100900009A60836842685A604A68824204BF82687B
:100910004A60002202610868401E0860086870474B
:100920004908490010B5A0F120034FF08074996187
:10093000DC611A600FF2110159616FF0020140F899
:10094000241D203810BD000053494968502011F182
:10095000010F06D080F31188BFF34F8FBFF36F8F65
:10096000FEE780F31188BFF34F8FBFF36F8FFEE771
:1009700030B54A494A4B83B00A6850209A4202D1A6
:1009800000F083F8FEE70A68464B9A4202D100F075
:100990007CF8FEE7444A404C13780193FF23137020
:1009A00013788DF800309DF8003003F05003237069
:1009B0000723A36006E05B1EA3609DF800305B0088
:1009C0008DF80030A3689DF800502D06F3D4C3F1D4
:1009D0000705042D02D000F058F8FEE7180200F4D5
:1009E000E060A06001981070086A40F4700008622E
:1009F000086A40F07040086200F05CF80020606017
:100A000000F0B6F82948016841F04041016000F06B
:100A10009FF800203EBD502080F31188BFF34F8F18
:100A2000BFF36F8F1C494A68521C012A4A600AD1E1
:100A30001F490968090606D080F31188BFF34F8F5C
:100A4000BFF36F8FFEE770471348416839B95020F4
:100A500080F31188BFF34F8FBFF36F8FFEE7491EFE
:100A6000416004BF002080F31188704780B550209A
:100A700000F00BF8FFF705FD18B10D494FF080505D
:100A80000860002080F3118801BD80F31188BFF356
:100A90004F8FBFF36F8F70470000002000ED00E024
:100AA00071C20F4170C20F4100E400E034EF00E07A
:100AB00004ED00E007480021016081604FF47A7284
:100AC00005490968B1FBF2F1491E41600721016047
:100AD000704700BF10E000E018000020EFF309802D
:100AE000BFF36F8F264B1A681EF0100F08BF20ED62
:100AF000108A20E9F04F106009B44FF0500080F3E5
:100B00001188BFF34F8FBFF36F8FFFF71CFD4FF0BE
:100B1000000080F3118809BC19680868B0E8F04F3C
:100B20001EF0100F08BFB0EC108A80F30988BFF3E5
:100B30006F8F7047124B19680868B0E8F04F80F368
:100B40000988BFF36F8F4FF0000080F31188704762
:100B50000C480068006880F308884FF0000080F3BC
:100B6000148862B661B6BFF34F8FBFF36F8F00DF9B
:100B7000DFF81400016841F4700101607047000063
:100B8000E441002008ED00E088ED00E02DE9F041AF
:100B9000DFF85043DFF844636268DFF8440302F093
:100BA0000C02042A15D0082A02D00C2A08D00FE023
:100BB00000F011F82168C1F30141491C490004E02B
:100BC00000F009F82168C1F30271B0FBF1F000E018
:100BD0003046BDE8F0812268256800236D0202F0EE
:100BE0003F0207D52568C5F38811A0FB0167304691
:100BF000394604E02068C0F38818A6FB080100F01D
:100C000077B92DE9F8430446DFF8C8522078C007C9
:100C100048D500F05BF904280DD000F057F90828FA
:100C200002D16868400206D400F050F90C2809D1BE
:100C30006868400206D52868800333D5606888BBA1
:100C4000012037E16068B0F5803F06D0B0F5A02FF5
:100C5000286806D140F480202860286840F480305D
:100C600005E020F480302860286820F48020286087
:100C7000606858B100F0B4F907462868800311D4C1
:100C800000F0AEF9C01B6528F7D310E100F0A8F919
:100C900007462868800305D500F0A2F9C01B652827
:100CA000F7D304E12078904E80071ED5A86810F095
:100CB0000C0F0DD000F00AF9082802D16868400234
:100CC00006D500F003F90C2823D16868400220D42F
:100CD0002868800702D5E0680128B1D12868216919
:100CE00020F0F80040EAC1002860207800073AD5DB
:100CF00061697E4851B30121016000F071F9074636
:100D0000686F80072FD400F06BF9C01B0328F7D35E
:100D1000CDE0E06868B10120306000F061F907467D
:100D200028688007DAD400F05BF9C01B0328F7D3EA
:100D3000BDE0306000F054F9074628688007D4D53C
:100D400000F04EF9C01B0328F7D3B0E0016000F0BB
:100D500047F90746686F800705D500F041F9C01BC9
:100D60000328F7D3A3E02078400761D5286CC000A2
:100D70004FF000080CD4CDF800804FF00108286C2B
:100D800040F080502864286C00F08050009000985B
:100D9000DFF84491D9F80000C00512D4D9F800005A
:100DA00040F48070C9F8000000F01AF90746D9F83D
:100DB0000000C00505D400F013F9C01B0328F6D3CA
:100DC00075E0A068012805D00528286F06D140F0FD
:100DD00004002867286F40F0010005E0400840004B
:100DE0002867286F20F00400286741F28939A0683D
:100DF00058B100F0F5F80746286F800711D400F0CD
:100E0000EFF8C01B4845F7D351E000F0E9F807467A
:100E1000286F800705D500F0E3F8C01B4845F7D3DD
:100E200045E0B8F1000F03D0286C20F08050286412
:100E3000A06900283DD0A96801F00C0108293FF401
:100E4000FFAE022828D100F03DF80746286880014F
:100E500005D500F0C5F8C01B0328F7D327E0E069EB
:100E6000216A0843616A40EA8110A16A00F024F80F
:100E7000E16A40EA0160216B40EA0170686001208C
:100E800000F021F807462868800112D400F0A8F885
:100E9000C01B0328F7D30AE000F014F807462868BF
:100EA000800106D500F09CF8C01B0328F7D303206F
:100EB00000E00020BDE8F283891EC903090C40EA66
:100EC000014070470020306600F08AB8A86800F042
:100ED0000C00704700380240007000400024F4000D
:100EE00000127A000438024000004742800E474258
:100EF0001B4213D1094236D12AB18446B0FBF2F02D
:100F000002FB10C2704700F071B8FCD3002200232E
:100F100070470B000200002100207047904271EBE7
:100F2000030CF6D370B5B1FA81F4B3FA83F52C1B38
:100F3000A340C4F1200532FA05F63343A2405FF026
:100F40000046E64002E05B085FEA3202841A71EB79
:100F5000030524BF204629467641F4D302000B0046
:100F60003000002170BD012ACFD970B5140C20D0FB
:100F7000B1FA81F4B2FA82F5C4F120046419B4F133
:100F80002006D6D3B2405FF00044F440002502E0D2
:100F900052085FEA3303C61A71EB020E24BF3046D3
:100FA000714664416D41F3D302000B00200029001B
:100FB00070BD0C46B1FBF2F102FB11452D0445EA70
:100FC0001045B5FBF2F402FB145580B240EA05452A
:100FD000B5FBF2F002FB105240EA044070BD000085
:100FE00001484068704700BF0C00002070470000B7
:100FF00070B50446FFF7F4FF06460CB9012070BD3A
:1010000004F13405002028700220687000F063F8B5
:1010100020680168C90708D5FFF7E2FF801B062892
:10102000F6D320202862032053E00168DFF8442231
:10103000114062681143A2681143E26811432269BA
:10104000114362691143A2691143E2691143226AA3
:101050001143626A042A03D1E26A236B1A431143E3
:10106000016020684169626AC908042A42EAC10134
:101070000AD1A26AE36A114333B1A66996B9002A7C
:1010800018BF022A20D017D34161204600F006F98C
:10109000AA6A3F2191408160002028620120687087
:1010A000002070BDB6F5005F0AD1032AECD8DFE856
:1010B00002F00D0B0D03E7E7B3F1C07FE4D105E0CB
:1010C000022A03D9D21EDFD1DA01DDD54020286201
:1010D0000120687070BD20680168490849000160FE
:1010E00070472DE9F04182B00446002004F1340637
:1010F00000904FF41651776A5F4800683D68B0FB76
:10110000F1F8B16A082000FA01F10D420ED0216811
:101110000A6852070AD50A6822F004020A60B16A16
:101120008840B860306A40F001003062B06A25FA49
:1011300000F1C9070BD521684969090607D50121C6
:1011400001FA00F0B860306A40F00200306204201A
:10115000B16A8840054208D021680968890704D52A
:10116000B860306A40F0040030621020B16A8840F4
:1011700005421DD021680968090719D5B8602068A3
:101180000168490308D5006800030CD5716908009F
:101190000ED0204688470BE00168C90503D40168DA
:1011A00021F008010160F16808001CBF2046884753
:1011B000B16A2020884005423DD021680968C906EF
:1011C00039D5B860206871780529016818D100F018
:1011D00055F8F068002804BF7069002801D000F0BD
:1011E00056F83F20B16A8840B86000203070012076
:1011F0007070F16908003BD02046BDE8FC4108470B
:10120000490308D50068000310D43169080012D0E2
:10121000204688470FE00168C90507D4016821F01E
:10122000100101600020307001207070B16808006A
:101230001CBF20468847306AD0B1306AC00710D53D
:1012400005207070FFF747FF0098401C8045009014
:1012500003D320680068C007F6D400203070012056
:101260007070B169080003D02046BDE8FC41084712
:10127000BDE8F3813F8010F01800002021F0160136
:1012800001602068416921F0800141617047206858
:10129000016821F00801016070470000016801F059
:1012A000FF02103A1823B2FBF3F20FF218039B5C13
:1012B000C365890A8902042A28BF091D8165084679
:1012C00070470000000610160006101670B586B0B4
:1012D00000F05AF900F0D7F801A8142100F06EF9D7
:1012E000002000900022944C944D206840F00400AF
:1012F00020602021206800F0040000F0BEF840F0DB
:1013000080002060206800F0800000F0B6F840F017
:1013100001002060206800F0010000F0AEF840F00D
:1013200002002060206800F0020000F0A6F840F003
:1013300008002060206800F008000090009828460F
:1013400000F00DFA4FF40050019001A97C48029082
:10135000002003907B4800F035F92020019001A97E
:1013600001200290002003900490284600F02AF902
:10137000002000900022206840F4800020600521B9
:101380002068714C00F4800000904FF4E135009823
:101390003A2000F017FA3A2000F031FA6B4820604A
:1013A00065600020A060E060206104F184060C20EC
:1013B00060610020A061E061204600F035FA6448D9
:1013C000206465640020A064E06420650C206065F2
:1013D0000020A065E06504F1400000F025FA5D48BA
:1013E000C4F88000356000207060B060F06000F0EC
:1013F00032F804F1800000F017FA574800F031F895
:1014000004F1C00000F010FA5448F0674FF4827005
:10141000261800207060B060F060356000F01BF8A6
:101420004FF48070204400F0FFF94D4800F019F8A7
:101430004FF4A070204400F0F7F901A80FF2341126
:10144000142200F0E9FA002101A800F01CFBF0676B
:1014500000F014FBFEE70C20306100207061B061E9
:101460007047F063356400207064B064F0640C2051
:10147000306500207065B0657047009000980020CE
:1014800000902068704700B593B006A8342100F0A2
:1014900095F801A8142100F091F80020009031483F
:1014A000016841F080510160006800F080500090B8
:1014B0000098002000902C48016841F440410160F0
:1014C000006800F4404000900098012006904FF41E
:1014D0008030079002200C904FF480000D9008207F
:1014E0000E904FF4B4700F90022010901190129053
:1014F00006A8FFF786FB00F0E5FA0F200190052112
:1015000002200290002003904FF4A05004904FF46A
:101510008050059001A800F00FFB13B000BD80B50E
:10152000012000F0C7FAFBE700681049884208BFB5
:1015300000F0BEBB7047000030380240000002409F
:10154000000021100008024038400020004C0040FC
:10155000005000400010014000440040004800409E
:10156000001401404038024000700040000001407B
:10157000704700005C2400081F15000800000000F0
:10158000000000008000000080B50B48016841F4B5
:1015900000710160016841F480610160016841F4FB
:1015A00080710160032000F000F9002000F088FB4A
:1015B00000F0C4FB002002BD003C0240002200F00D
:1015C00013BD00002DE9F84F02460023DFF8988193
:1015D000DFF89891DFF898A14FF00F0B01200C680D
:1015E000984000EA040E864540F0B3804D689C00A8
:1015F000022D18BF122D0FD1DD0802EB850C04F06F
:101600001C05DCF820600BFA05F7BE430F6907FAEA
:1016100005F53543CCF820504FEA430C03251668F6
:101620000F7905FA0CF5ED4307F003072E4007FA92
:101630000CF73E4316604E68012E18BF022E03D0F1
:10164000112E18BF122E0FD19668CF682E4007FAC0
:101650000CF73E439660566826EA00004E68C6F3D3
:1016600000169E4030435060D06828408D6805FACF
:101670000CF52843D0604868C0006AD5002000906F
:1016800004F00C06DAF8000040F48040CAF80000CC
:101690000BFA06F4DAF8000000F48040009000989D
:1016A000980859F8205025EA0404324DAA4208BF90
:1016B00000251DD0304DAA4208BF012518D02F4D5E
:1016C000AA4208BF022513D02D4DAA4208BF032508
:1016D0000ED02C4DAA4208BF042509D02A4DAA429B
:1016E00008BF052504D0294DAA420CBF06250725B1
:1016F000B5402C4349F820406FEA0E00D8F800406E
:1017000000EA040C4C68E40348BF4EEA0C0CC8F82D
:1017100000C0D8F8044000EA040C4C68A40348BF99
:101720004EEA0C0CC8F804C0D8F8084000EA040CD3
:101730004C68E40248BF4EEA0C0CC8F808C0D8F860
:101740000C4020404C68A40248BF4EEA0000C8F894
:101750000C005B1C102BFFF441AFBDE8F18F02B908
:101760000904816170470000003C014008380140D5
:1017700044380240000002400004024000080240D9
:10178000000C024000100240001402400018024009
:101790000901020002D41F48815470471E4802F01C
:1017A0000F02104400F8041C70471C490A684FF6E9
:1017B000FF0300021A4000F4E0601043184A10438F
:1017C0000860704738B5154B1B68C3F30223C3F19B
:1017D0000704052C28BF04241D1D072D34BF00233A
:1017E000DB1E012505FA04F4641E2140994005FA28
:1017F00003F35B1E1A401143BDE83440C8E70028DC
:1018000007D4012100F01F029140064A400942F826
:101810002010704700E400E018ED00E00CED00E05F
:101820000000FA0500E100E038B5050001D1012013
:1018300032BD05F13804607818B92070284600F0F0
:101840009CFA00F017F800F00DF821F02A01FFE7EC
:101850004161286800F019F8606020206070A07075
:10186000002032BD2868016921F490410161286897
:1018700041697047242060702868C16821F40051D4
:10188000C160284600F007B82068C16841F40051E3
:10189000C160002070472DE9F047044664252068A8
:1018A0000169E26821F44051114301611926C168C0
:1018B000484A1140A26811432269114362691143E9
:1018C000E2691143C1604169A26921F44071114389
:1018D0004161E3694049414AB3F5004F3AD1904232
:1018E00018BF88420ED100F0B2F9074600F0AFF9F8
:1018F000804600F0ACF9814600F0A9F9824600F07C
:10190000A6F90DE000F09BF9074600F098F9804633
:1019100000F095F9814600F092F9824600F08FF9C7
:1019200006FB08F36168490000F05AF8DB00323327
:10193000B3FBF5F3B2FBF1F25B00B2FBF5F203F49B
:10194000F87300F05AF8C0003230B0FBF5F000F048
:10195000070038E0904218BF88420ED100F077F9B6
:10196000074600F074F9804600F071F9814600F0F6
:101970006EF9824600F06BF90DE000F060F9074661
:1019800000F05DF9804600F05AF9814600F057F901
:10199000824600F054F906FB08F36168890000F004
:1019A0001FF81B013233B2FBF1F2B3FBF5F3B2FBCC
:1019B000F5F203F0F00300F020F800013230B0FB44
:1019C000F5F000F00F00216880188860BDE8F0870E
:1019D00000000000F369FFFF001401400010014007
:1019E000B3FBF1F306FB07F206FB09F7B7FBF1F7D0
:1019F000B7FBF5F705FB1733704703EB0212704393
:101A000006FB0AF3B0FBF1F0B3FBF1F3B0FBF5F02A
:101A100005FB103070470000103A07D330B4B1E82E
:101A20003810103AA0E83810F9D230BC530724BF60
:101A3000B1E80810A0E8081044BF51F8043B40F892
:101A4000043BD20724BF31F8022B20F8022B44BFFD
:101A50000B7803707047083A07D3B1E80810083ACA
:101A600040F8043B40F804CBF7D25307E4E700000A
:101A70000021842818BFC11C0846704780B5FEF7B6
:101A80007BFC002002BD3EB504460D46B4F90800BB
:101A9000FFF7EEFF02A9019100902B462269216811
:101AA000606892B2FEF78EFB012801D000203EBD97
:101AB00002983EBD80B500B90120FEF749FC002028
:101AC00002BD0000F8B500F01FF801202060FFF70C
:101AD00087FA07463068C00305D4FFF781FAC01BB8
:101AE000A842F7D30CE001206060FFF779FA0746BF
:101AF0003068800306D4FFF773FAC01BA842F7D3FF
:101B00000320F2BD0020F2BD0020009040F2E93534
:101B10000748084C0168054E41F08051016000689B
:101B200000F0805000900098704700000470004062
:101B30004038024040000E422DE9F04104000D46BD
:101B400052D0554E00F076F802D200F072F84BD128
:101B50002068524F810712D5400703D5B86840F47A
:101B6000E050B8602078000703D5B86840F46040C2
:101B7000B860B868A16820F0F0000843B860207829
:101B8000C00729D56068012802D13968890305E0BA
:101B9000022818BF032803D13968890103D423E040
:101BA0003968890720D5B968890840EA8100B8609A
:101BB000FFF716FA8046B868616800F00C00B0EBD9
:101BC000810F09D0FFF70CFAA0EB080041F2893130
:101BD0008842F0D303202AE0306800F00F008542ED
:101BE00004D200F026F801D0012020E02078400740
:101BF00005D5B868E16820F4E0500843B860207863
:101C0000000706D5B868216920F4604040EAC100A9
:101C1000B860FEF7BBFFBA682149C2F30312895CC2
:101C2000C84020490860002000F04AF80020BDE8C4
:101C3000F0813570306800F00F00A84270471948F5
:101C4000194A006812681949C2F3822206E0154851
:101C5000154A006812681549C2F34232895CC840CF
:101C600070470F220260104A136803F003034360B9
:101C7000136803F0F0038360136803F4E053C36058
:101C80001268D20802F4E05202610348006800F0D2
:101C90000F00086070470000003C0240003802401E
:101CA000E0220008180000200838024074240008D0
:101CB0000248416802788918416070470C00002092
:101CC00010B5014688B000221920FFF77BFD1920CE
:101CD000FFF795FD00200090144C1548016841F075
:101CE0000101016001A9006800F001000090009866
:101CF00002A8FFF7B6FFFFF7AAFF0E4921604000D8
:101D000040F2E731E1600C49B0FBF1F0401E606049
:101D100000202061A060204600F080F918B920461C
:101D200000F089F900E0012008B010BD4843002010
:101D3000443802400000014040420F0082B00020C1
:101D4000009000229A48416841F480414160416816
:101D500001F480410091009900210091016841F057
:101D6000805101600F21006800F0805000900098C1
:101D70006FF0010002B0FFF725BD70B586B00446D4
:101D800001A81421FFF71AFC23688A4A8A488B4964
:101D9000934214D1002200920A6942F400220A619F
:101DA0000A6902F4002200F0F0F8032101910221F7
:101DB00002910121039103210491082169E000F0BF
:101DC000F2F822D100200090086940F480100861E8
:101DD000086900F4801000F0BEF840F008000860C8
:101DE000086800F00800009001A900984FF48050A6
:101DF00000F0A6F8FFF7E6FB0420019001A900F02F
:101E000098F8082005906E488FE06E4EB3424FF46C
:101E100080652DD1002200926B4E4A6942F010027B
:101E20004A614A6902F0100200F0AFF84FF4C06155
:101E300000F0A2F8059101A9FFF7C4FB63483060E8
:101E400035614FF0006070600020B060F06070613C
:101E5000B0614FF48070F0610020306270623046F3
:101E6000FFF7C6F808B1FFF783FB6663B4635EE073
:101E7000574CA34210D1002200920A6942F400326A
:101E80000A610A6902F4003200F07FF80C2100F0C8
:101E900073F8059101A948E04E48834228D10020FB
:101EA0000090086940F480200861086900F48020EF
:101EB00000F051F840F002000860086800F00200ED
:101EC000009001A900982020019000F032F807202E
:101ED00005901046FFF776FB022002900195012045
:101EE000039001A903200490072005903A481CE0C4
:101EF0003A4883421BD100200090486940F02000FE
:101F00004861486900F0200000900098002000908F
:101F1000086840F004000860086800F004000090C1
:101F200001A90098C02000F00BF8FFF74BFB06B0AA
:101F300070BD02200290012003900320049070479E
:101F400001900220029001200390032004900820B9
:101F50000590104670470090009800200090086897
:101F600040F004000860086800F004000090009849
:101F70000020009008687047019102210291012120
:101F8000039103210491072170470092009A0022D7
:101F900000920A6842F001020A60096801F001013A
:101FA0000091009970470E4D0E4AAB4270470000F9
:101FB00040380240004C00400000024030380240EF
:101FC000000C024000100140E84200204064024042
:101FD000004400400048004000040240001401405A
:101FE000005000400008024000B500BF13009646B4
:101FF0009446103928BFA0E80C50FAD85FEA417C1B
:1020000028BF0CC048BF40F8042BC90728BF20F8E0
:10201000022B48BF00F8012B00BD000038B50400BA
:1020200001D1012032BD00F020F818B928702046F7
:1020300000F026F90FE00068C16841F00101C160BD
:10204000816801F00701062903D0016841F0010110
:1020500001600020704702206870211D206800F098
:10206000ACF801206870002032BD04F13C056878AE
:10207000704710B5044620680169890715D5C16805
:10208000890712D56FF00201016101212177806972
:1020900010F0030F204602D000F0F3F803E000F048
:1020A000F1F800F087F800202077206801694907DF
:1020B00015D5C168490712D56FF0040101610221ED
:1020C0002177806910F4407F204602D000F0D9F8D3
:1020D00003E000F0D7F800F06DF8002020772068CA
:1020E0000169090715D5C168090712D56FF0080104
:1020F000016104212177C06910F0030F204602D04E
:1021000000F0BFF803E000F0BDF800F053F8002045
:10211000207720680169C90615D5C168C90612D59E
:102120006FF01001016108212177C06910F4407F30
:10213000204602D000F0A5F803E000F0A3F800F07C
:1021400039F80020207720680169C90708D5C168DF
:10215000C90705D56FF0010101612046FFF7E4F9D9
:1021600020680169090608D5C168090605D56FF020
:1021700080010161204600F086F820680169490667
:1021800008D5C168490605D56FF0400101612046B8
:1021900000F07AF82068016989060AD5C1688906C5
:1021A00007D56FF0200101612046BDE8104000F026
:1021B0006CB810BD204600F069B8F0B5254B046836
:1021C000254A264D264E274F984218BFB0F1804F22
:1021D00007D0B84218BFB04203D0A84218BF9042FF
:1021E0000FD1D1F804C0984224F0700418BFB0F1A8
:1021F000804F4CEA040417D0B8421CBFB042A8423A
:1022000012D090421CBF184DA8420DD0174DA842C5
:102210001CBF174DA84207D0164DA8421FBF164D30
:10222000A842164DA84203D1CD6824F440742C4333
:102230004D6924F080042C43046098428C68C46289
:102240000C68846212BF90420969016301214161F7
:10225000F0BD00000000014000040140000C0040FF
:1022600000080040000400400040014000440140DC
:102270000048014000180040001C004000200040C1
:10228000704770477047704770477047704700004D
:102290000E480F4A016841F4700101600D48016861
:1022A00041F001010160002181600168114001607D
:1022B00009494160016821F4802101600021C16069
:1022C0004FF00060054908607047000088ED00E0AD
:1022D000FFFFF6FE003802401030002408ED00E059
:1022E00000000000000000000102030406070809C6
:1022F00019E050F8041BCB0744BFA9F1010359189A
:10230000121F0023042A41F8043BF9D25FEA827CC1
:102310000B4604D54FF0000CA1F800C09B1CD10760
:1023200044BF0021197050F8042B002AE1D17047F6
:1023300010B450F8041B79B10268436802440830B5
:10234000DC0744BFA9F10104E31852F8044B43F839
:10235000044B091FF9D1ECE710BC704710B50749D1
:1023600079441831064C7C44163404E00A68081D90
:10237000114488470146A142F8D110BD2C0000004D
:102380004C0000004EF68851CEF20001086840F47F
:1023900070000860BFF34F8FBFF36F8F4FF0007076
:1023A000E1EE100A7047000049FFFFFF683F0000A0
:1023B000200400200000000079FFFFFF1C00000047
:1023C0002C00000000000020000000007047FEE725
:1023D000FEE7FEE7FEE770470248FFF74ABE024805
:1023E000FEF77FBE48430020E842002000000000C6
:1023F000AAAAAAAA00000000010000000000000034
:10240000100000000024F40000F00BF8002801D0B8
:10241000FFF7A4FF0020AFF30080FEF757FF00F0A6
:1024200002F80120704700F001B800000746384666
:1024300000F002F8FBE7000080B5AFF30080024A2D
:1024400011001820ABBEFBE72600020001488047C0
:10245000014800479122000869240008646566610C
:10246000756C745461736B00AFF30080FFF78AFFE3
:10247000FFF7CAFF0000000001020304FFF7FEBFE0
:10248000FFF7FEBFFFF7FEBFFFF7FEBFFFF7FEBF80
:10249000FFF7FEBFFFF7FEBFFFF7FEBFFFF7FEBF70
:1024A000FFF7FEBFFFF7FEBFFFF7FEBFFFF7FEBF60
:1024B000FFF7FEBFFFF7FEBFFFF7FEBFFFF7FEBF50
:1024C000FFF7FEBFFFF7FEBFFFF7FEBFFFF7FEBF40
:1024D000FFF7FEBFFFF7FEBFFFF7FEBFFFF7FEBF30
:1024E000FFF7FEBFFFF7FEBFFFF7FEBFFFF7FEBF20
:1024F000FFF7FEBFFFF7FEBFFFF7FEBFFFF7FEBF10
:10250000FFF7FEBFFFF7FEBFFFF7FEBFFFF7FEBFFF
:10251000FFF7FEBFFFF7FEBFFFF7FEBFFFF7FEBFEF
:10252000FFF7FEBFFFF7FEBFFFF7FEBFFFF7FEBFDF
:10253000FFF7FEBFFFF7FEBFFFF7FEBFFFF7FEBFCF
:10254000FFF7FEBFFFF7FEBFFFF7FEBFFFF7FEBFBF
:10255000FFF7FEBFFFF7FEBFFFF7FEBFFFF7FEBFAF
:10256000FFF7FEBFFFF7FEBFFFF7FEBFFFF7FEBF9F
:10257000FFF7FEBFFFF7FEBFFFF7FEBFFFF7FEBF8F
:10258000FFF7FEBFFFF7FEBFFFF7FEBFFFF7FEBF7F
:10259000FFF7FEBFFFF7FEBFFFF7FEBFFFF7FEBF6F
:1025A000FFF7FEBFFFF7FEBFFFF7FEBFFFF7FEBF5F
:1025B000FFF7FEBFFFF7FEBFFFF7FEBFFFF7FEBF4F
:0C25C000FFF7FEBFFFF7FEBFFFF7FEBFF6
:040000050800246962
:00000001FF
