:020000040800F2
:10000000200A002015920008359100083791000859
:10001000399100083B9100083D9100080000000064
:100020000000000000000000000000002D8C00080F
:100030003F91000800000000D58B0008AD85000846
:10004000399200083D92000841920008459200084C
:10005000499200084D9200085192000855920008FC
:10006000599200085D9200086192000865920008AC
:10007000699200086D92000871920008759200085C
:10008000799200087D92000881920008859200080C
:10009000899200088D9200089192000895920008BC
:1000A00099920008419100089D920008A1920008D1
:1000B000A5920008A9920008AD920008B19200082C
:1000C000B5920008B9920008BD920008C1920008DC
:1000D000C5920008C9920008CD920008D19200088C
:1000E000D5920008D9920008DD920008E19200083C
:1000F000E5920008E9920008ED920008F1920008EC
:10010000F5920008F9920008FD920008019300089A
:1001100005930008099300080D9300081193000847
:100120001593000819930008479100081D930008D3
:100130002193000800000000000000002593000843
:10014000299300082D930008319300083593000887
:10015000399300083D930008419300084593000837
:10016000499300084D9300085193000855930008E7
:10017000599300085D930008619300080000000097
:10018000000000006593000800000000000000006F
:100190006993000800000000000000006D93000853
:1001A0000000000000000000000000007193000843
:1001B00075930008799300087D93000881930008E7
:1001C00085930008DFF8E80804F0F0B970B5DFF8AF
:1001D000E4680D46F17B04460129DFF8DC0807D10D
:1001E0000221017044708570032104F04BFE0AE087
:1001F000022908D1AB2101708470AD214170C57016
:10020000042104F0A3FEF17B2B462246BDE870409A
:100210000FF2040004F0D2BE5265706F7274204970
:100220006E666F20746F2055707065722825642982
:10023000205B253032585D5B253032585D0D0A0059
:100240000346DFF874082DE9F0410C46AB2101703C
:100250001546AD2141708370C47005711E46DFF8EC
:10026000548898F80F10062E16BF072E042705276E
:10027000012982B008D1791E017043708470C57065
:10028000C9B204F0FFFD04E0022904BF394604F0BE
:100290005DFE98F80F10042F08D12346324602B0B5
:1002A000BDE8F0410FF2180004F088BE0095234627
:1002B00032460FF2380004F081FEBDE8F381000001
:1002C000526573706F6E736520496E666F20746F30
:1002D00020557070657228256429205B25303258BE
:1002E0005D5B253032585D0D0A0000005265737069
:1002F0006F6E736520496E666F20746F2055707045
:10030000657228256429205B253032585D5B2530D5
:1003100032585D5B253032585D0D0A00401E0628BC
:100320001AD8DFE800F0040A0D13161007000FF2C8
:100330002C0070470FF2380070470FF248007047EA
:100340000FF2540070470FF2600070470FF2680020
:1003500070470FF26C00704764A07047436F6E7473
:10036000726F6C6C65722053746174696300000075
:10037000436F6E74726F6C6C657220427269646751
:1003800065000000436F6E74726F6C6C6572205074
:100390006F727461626C6500536C61766520456EA6
:1003A00068616E6365640000536C61766520526F0E
:1003B0007574696E67000000536C6176650000001B
:1003C000436F6E74726F6C6C657220496E737461EA
:1003D0006C6C65720000000010B590B0402168465A
:1003E00004F0FEFDDFF8CC46282104F1540004F0AF
:1003F000F7FD694604F1440004F0DCFA9DF80000C2
:10040000002804BF9DF80100002805D02822694675
:1004100004F1540004F004FE10B010BD2DE9F046C4
:100420008A4604462721DFF89406DFF8885611FB38
:100430000AF11F4600EB0109380083B0164614D0BC
:100440006A46514601F018FF9DF803000328A8BF33
:100450009DF8040028745FEA0A0006D041F2A95012
:1004600006226946484404F0CBFD802C04D10FF2EB
:10047000800004F0A3FD36E02A7C402C03D15146D5
:100480000FF27C002DE0202C03D151460FF290009A
:1004900027E0842C21D151460FF2A40004F08EFDF8
:1004A000BAF1000F1FD0032F1DD341F2AF5003222A
:1004B0003146484404F0A4FD41F2B250FA1EF11C4A
:1004C000484404F09DFDA96A69B1686A04F0DBFD47
:1004D0000020A86202F05CF905E032780FF280009B
:1004E000514604F06BFDBDE8F786000000000000F7
:1004F00077616974696E67202E2E2E0D0A00000048
:100500004E6F646520257520696E636C7564656443
:10051000202E2E2E20747970652025750D0A00007E
:100520004E6F64652025752072656D6F7665642059
:10053000202E2E2E20747970652025750D0A00005E
:100540004E6F64652025752073656E6473206E6F31
:100550006465696E666F726D6174696F6E0D0A0015
:100560004E6F64652025752073656E647320253099
:1005700032780D0A000000002DE9FC4110F01C004B
:100580000C46154606D0042807D0082808D01028A5
:1005900009D00BE00FF234160AE00FF23C1607E028
:1005A0000FF2401604E00FF2481601E00FF24C166D
:1005B000DFF800752A78B87B202A47D0212A68D036
:1005C000262A2DD0302A2CD0322A68D0862A73D100
:1005D0006878AA7812281FD11046FFF79FFE804640
:1005E000324621460FF2281004F0E8FCA879019069
:1005F0004146687900902B79EA780FF2381004F0C0
:10060000DDFC396B11B1F86A04F03DFD0020386360
:10061000BDE8F64102F08ABA33460FF24C1033E0DF
:10062000002850D06878032803D1AA780FF2601010
:1006300004E0012804D1AA780FF28410334623E0A5
:10064000022840D132460FF2A81030E06978012923
:1006500009D013D3032901D00AD30FE098B3AA78A5
:100660000FF2B8100EE070B3AA780FF2D41009E0C0
:1006700048B3324621460FF2EC1018E018B3AA78BE
:100680000FF200203346214602B0BDE8F04104F0ED
:1006900095BC07F14400BDE8F64104F0BDBA6978A5
:1006A000022910D178B1324621460FF20C2002B057
:1006B000BDE8F04104F082BC28B100966B780FF2DF
:1006C0001C2004F07BFCBDE8F381000073696E67B9
:1006D0006C6563617374000062726F61646361735F
:1006E000740000006D756C746963617374000000C0
:1006F0006578706C6F72657200000000556E6B6EED
:100700006F776E206672616D6574797065000000A8
:100710004E6F6465202575207361797320564552AC
:1007200053494F4E205245504F525420282573298B
:100730000D0A00005A2D57617665202573207072CE
:100740006F746F636F6C2076253032752E253032D2
:10075000752C204170702E2076253032752E253074
:1007600032750D0A000000004E6F6465202575206B
:10077000736179732056455253494F4E20636F6D14
:100780006D616E6420257520282573290D0A0000EF
:100790004E6F646520257520736179732053574926
:1007A000544348204D554C54494C4556454C2052D5
:1007B00045504F525420257520282573290D0A00D5
:1007C0004E6F6465202575207361797320535749F6
:1007D000544348204D554C54494C4556454C2053A4
:1007E000455420257520282573290D0A0000000096
:1007F0004E6F6465202575207361797320535749C6
:10080000544348204D554C54494C4556454C20477F
:10081000455420282573290D0A0000004E6F646599
:10082000202575207361797320424153494320523A
:1008300045504F525420257520282573290D0A0054
:100840004E6F646520257520736179732042415392
:1008500049432053455420257520282573290D0A26
:10086000000000004E6F6465202575207361797368
:100870002042415349432047455420282573290DE0
:100880000A0000004E6F646520257520736179733E
:10089000206E6F6E6520737570706F727465642062
:1008A000424153494320636F6D6D616E642025752D
:1008B00020282573290D0A004E6F646520257520B8
:1008C00073617973204D45544552205245504F5223
:1008D0005420282573290D0A000000004E6F64651E
:1008E000202575207361797320636F6D6D616E646F
:1008F000636C6173732025752C20636F6D6D616E61
:100900006420257520282573290D0A002DE9F74F4D
:1009100010F01C001D4604D0042805D0082806D07D
:1009200008E00FF29C1007E00FF2A81004E00FF2AD
:10093000B81001E00FF2C4100C9CDFF87881019030
:100940000A46A0789DF80810009023780FF2C8108E
:1009500004F034FB002D1CBF2878002845D00FF28E
:10096000DC1200F0C1F90126DFF830990DE004F047
:100970008BFB074600F0B4F9AB5D40444A46C7F52F
:1009800080617C3004F09CFB761C2878B04208F132
:100990007C00ECDA04F012FB0FF2AC1200F0A4F9C8
:1009A0004FF00109012619E001274FF0080AA85D60
:1009B00007420CD000F094F9834600F091F94044CE
:1009C0004B4639A2CBF580617C3004F079FB7F0087
:1009D000BAF1010A09F10109E9D1761C2878B0427F
:1009E000E2DA08F17C0004F0E9FA30A004F0E6FA5B
:1009F0002178202920D0212944D0262902D030294D
:100A000033D049E06178032905D1A2789DF8081018
:100A10000FF2441043E0012905D1A2789DF8081097
:100A20000FF260103BE0022912BF0FF280109DF818
:100A300008100FF2A81020E06178012908D011D326
:100A4000032901D008D30DE0A1780FF2B41014E00F
:100A5000A1780FF2C01010E0BDE8FE4F0FF2C810F1
:100A600004F0ACBA0FF2CC1007E06178032906BF9E
:100A7000A1780FF2E4100FF2FC1003B0BDE8F04FC4
:100A800004F09CBA0FF2182004F098FA08F1440020
:100A9000BDE8FE4F04F0C0B862780FF2202003B02A
:100AA000BDE8F04F04F08ABA202575002A20000026
:100AB00030010020EC000020E07A002038460020C1
:100AC0007669727475616C2073696E676C656361B9
:100AD000737400007669727475616C2062726F6164
:100AE00064636173740000007669727475616C20D0
:100AF0006D756C746963617374000000766972745B
:100B000075616C20556E6B6E6F776E206672616DCD
:100B100065747970650000004E6F6465202575204E
:100B20007361797320746F202575202D2025752C15
:100B300020257520282573290D0A0000204E6F649A
:100B4000656D61736B3A200044657374696E6174FE
:100B5000696F6E203A000000535749544348204DB6
:100B6000554C54494C4556454C205245504F5254D3
:100B700028534E6F64652D25642920253032580D89
:100B80000A000000535749544348204D554C5449DE
:100B90004C4556454C2053455428534E6F64652DA3
:100BA00025642920253032580D0A00004E6F6E65ED
:100BB00020737570706F7274656420535749544385
:100BC00048204D554C54494C4556454C20636F6D5B
:100BD0006D616E6420253032580D0A005357495418
:100BE0004348204D554C54494C4556454C204745AB
:100BF0005428534E6F64652D2564290D0A000000AA
:100C00004241534943205245504F525420253032DF
:100C1000580D0A0042415349432053455420253082
:100C200032580D0A00000000424153494320474515
:100C3000540D0A004E6F6E6520737570706F72747C
:100C4000656420424153494320636F6D6D616E645A
:100C500020253032580D0A0053454E534F52204242
:100C6000494E415259205245504F5254202530325E
:100C7000580D0A004E6F6E6520737570706F727438
:100C800065642053454E534F522042494E415259BC
:100C900020636F6D6D616E6420253032580D0A003F
:100CA000434F4E54524F4C4C4552205245504C49A4
:100CB000434154494F4E0D0A00000000436F6D6DD3
:100CC000616E64636C61737320253032582C20434D
:100CD0006F6D6D616E6420253032580D0A00000082
:100CE00008F17C0004F0D0B94FF4806108F17C0079
:100CF00004F0E6B90FF21C0110B1012803D005E0A1
:100D00000FF2180004E00FF2A80001E00FF23C100F
:100D100004F054B94572726F72000000436F6D6D3C
:100D2000756E69636174696F6E2077697468205AA3
:100D30002D57617665206D6F64756C6520776173E2
:100D4000206C6F737428257329207768696C65207F
:100D500073656E64696E6720636F6D6D616E642E7E
:100D60000D0A436865636B20746865206361626C7B
:100D70006520616E642065697468657220726574AF
:100D8000727920746865206F7065726174696F6E26
:100D9000206F7220726573746172742074686520AC
:100DA0006170706C69636174696F6E2E0D0A00006A
:100DB000436F6D6D756E69636174696F6E207769DD
:100DC0007468205A2D57617665206D6F64756C6567
:100DD0002074696D6564206F7574282573292077E8
:100DE00068696C652077616974696E6720666F72E7
:100DF00020726573706F6E73652E0D0A43686563AC
:100E00006B20746865206361626C6520616E64208C
:100E1000656974686572207265747279207468659A
:100E2000206F7065726174696F6E206F72207265D9
:100E3000737461727420746865206170706C69638A
:100E40006174696F6E2E0D0A00000000436F6D6DB6
:100E5000756E69636174696F6E2077697468205A72
:100E60002D57617665206D6F64756C6520776173B1
:100E7000206C6F7374282573292E0D0A43686563EF
:100E80006B20746865206361626C6520616E64200C
:100E9000656974686572207265747279207468651A
:100EA000206F7065726174696F6E206F7220726559
:100EB000737461727420746865206170706C69630A
:100EC0006174696F6E2E0D0A00000000002800F0AA
:100ED0008380012832D0022833D0032855D004283B
:100EE00056D0052872D006286AD007286BD008286B
:100EF00057D009285BD00F2826D0102827D01128DA
:100F000028D0122829D013282AD0152861D01628D5
:100F10004AD017284ED018284FD0202823D0212877
:100F200024D030282BD0312826D040282AD0502851
:100F300031D0A1281DD0FF2830D050E00FF2A400FE
:100F400070470FF2B40070470FF2C00070470FF205
:100F5000CC0070470FF2D40070470FF2E4007047E6
:100F60000FF2EC0070470FF2F80070470FF200101C
:100F700070470FF2101070470FF2181070470FF201
:100F80001C1070470FF2201070470FF22C107047A2
:100F90000FF2381070470FF23C1070470FF24810F4
:100FA00070470FF2581070470FF25C1070470FF245
:100FB000641070470FF26C1070470FF27810704792
:100FC0000FF2801070470FF2881070470FF29410E4
:100FD00070470FF2A41070470FF2A81070470FF27D
:100FE000B010704747656E6572696320436F6E7419
:100FF000726F6C6C65720000537461746963204396
:101000006F6E74726F6C6C65720000005265706573
:101010006174657220536C617665000042696E618F
:101020007279205377697463680000004D756C74A1
:10103000696C6576656C205377697463680000009D
:1010400052656D6F746520537769746368000000A2
:10105000546F67676C65205377697463680000009C
:1010600042696E6172792053656E736F7200000081
:1010700053656E736F72204D756C74696C6576651F
:101080006C00000053656E736F7220416C61726D6D
:10109000000000004D6574657200000050756C73AF
:1010A00065204D6574657200456E74727920436FDA
:1010B0006E74726F6C000000415620436F6E747244
:1010C0006F6C20506F696E7400000000446973708B
:1010D0006C61790053656D6920496E7465726F703B
:1010E000657261626C6500004E6F6E20496E7465BA
:1010F000726F70657261626C6500000054686572A1
:101100006D6F73746174000056656E74696C617400
:10111000696F6E0057696E646F7720436F766572F2
:10112000696E670053656375726974792050616EEA
:10113000656C000057616C6C20436F6E74726F6C4D
:101140006C6572004170706C69616E6365000000CF
:1011500053656E736F72204E6F7469666963617454
:10116000696F6E004E6574776F726B204578746599
:101170006E646572000000005A6970204E6F6465ED
:10118000000000004E6F2064657669636500000012
:10119000556E6B6E6F776E2044657669636520745B
:1011A000797065002DE9FC420D46DFF8E04C6719C7
:1011B000411E06291E4662D8DFE801F0040D1627FD
:1011C000613F5C00324602B0BDE8F04201210FF2FF
:1011D000D00003F0F3BE2A4602B0BDE8F04202217F
:1011E0000FF2141003F0EABE107851780BB900200A
:1011F00002E00328A8BF084600F0AEF903460096B7
:101200002A4603210FF24C100FE0107851780BB9E9
:10121000002002E00328A8BF084600F09DF903461D
:1012200000962A4604210FF2A01003F0C7FE0DB16C
:101230000020F874DFF8582C2AE0107851780BB9A8
:10124000002002E00328A8BF08462073E57294F846
:101250000C904846FFF73AFE01960346CDF8009001
:101260002A4606210FF2DC1003F0A8FE6DB1002023
:10127000F8740AE0324607210FF2302003E00146FD
:1012800032460FF2882003F099FE0020E06300222E
:1012900004F1440002B0BDE8F042E0E14C2C00084B
:1012A000524E4E3A205B52454D4F56455F4E4F448D
:1012B000455F5354415455535F4C4541524E5F5224
:1012C000454144592825303258295D202D20576149
:1012D0006974696E672E2E2E20284E6F6465696EC4
:1012E000666F726D6174696F6E206C656E6774688D
:1012F000202575290D0A0000524E4E3A205B5245BA
:101300004D4F56455F4E4F44455F535441545553DE
:101310005F4E4F44455F464F554E44282530325866
:10132000295D20202D204E6F646520666F756E64E8
:10133000202530337520284E6F6465696E666F72A4
:101340006D6174696F6E206C656E677468202575B9
:10135000290D0A00524E4E3A205B52454D4F5645DC
:101360005F4E4F44455F5354415455535F52454D72
:101370004F56494E475F534C415645282530325809
:10138000295D20202D2052656D6F76696E67205390
:101390006C617665204E6F6465202530337520289A
:1013A0002573292E2E2E20284E6F6465696E666F78
:1013B000726D6174696F6E206C656E67746820254C
:1013C00075290D0A00000000524E4E3A205B52452E
:1013D0004D4F56455F4E4F44455F5354415455530E
:1013E0005F52454D4F56494E475F434F4E54524F03
:1013F0004C4C45522825303258295D20202D205252
:10140000656D6F76696E6720436F6E74726F6C6C7A
:101410006572204E6F646520253033752028257352
:10142000292E2E2E20284E6F6465696E666F726DB0
:101430006174696F6E206C656E677468202575290C
:101440000D0A0000524E4E3A205B52454D4F564514
:101450005F4E4F44455F5354415455535F444F4E84
:10146000452825303258295D20202D2052656D6F8A
:1014700076696E67204E6F646520253033752028AD
:101480002573282530325829292E2E2E20284E6FDC
:101490006465696E666F726D6174696F6E206C65EC
:1014A0006E677468202575290D0A0000524E4E3A69
:1014B000205B52454D4F56455F4E4F44455F535458
:1014C000415455535F4641494C45442825303258D4
:1014D000295D20202D2052656D6F7665204E6F644A
:1014E00065206661696C65642E2E2E20284E6F641F
:1014F00065696E666F726D6174696F6E206C656E82
:10150000677468202575290D0A000000524E4E3A76
:10151000205B253032585D20202D20556E6B6E6F7C
:10152000776E207374617475732C2073746F707090
:10153000696E672E2E2E20284E6F6465696E666F69
:10154000726D6174696F6E206C656E6774682025BA
:1015500075290D0A000000002073E572207BB5E4B8
:10156000F0B5471E062F83B01D46DFF82049DFF88F
:10157000E46B68D8DFE807F00411162636426200F3
:101580002A4601210FF2DC0003F018FD03B0BDE88C
:10159000F04000211420FEF719BE2A4602210FF266
:1015A000281026E01078527813B90020207303E049
:1015B0000328B4BFA072A27261722A4603210FF2FF
:1015C000641016E01078527813B90020207303E0FD
:1015D0000328B4BFA072A27261722A4604210FF2DE
:1015E000A81006E0324600F0DBF92A4605210FF28A
:1015F000002003B0BDE8F04003F0E0BC002200F0A2
:10160000CFF9A67A3046FFF761FC0346627A0FF203
:10161000502001950096062103F0D0FC627AA07A52
:10162000A118C87403B00021E1630028BDE8F040B0
:101630000CBF002201210420FEF702BE2A4607212A
:101640000FF2942003E001462A460FF2003003F027
:10165000B5FC324604F1440003B0BDE8F04005217A
:1016600003F0AFBA414E4E3A205B4144445F4E4FC7
:1016700044455F5354415455535F4C4541524E5F6E
:1016800052454144592825303258295D20202020D8
:1016900020202D205072657373206E6F6465206268
:1016A0007574746F6E2E2E2E20284E6F6465696ED1
:1016B000666F726D6174696F6E206C656E677468B9
:1016C000202575290D0A0000414E4E3A205B414409
:1016D000445F4E4F44455F5354415455535F4E4F02
:1016E00044455F464F554E442825303258295D20E9
:1016F0002020202020202D2057616974696E6720EA
:101700002E2E2E20284E6F6465696E666F726D6195
:1017100074696F6E206C656E677468202575290D7D
:101720000A000000414E4E3A205B4144445F4E4F58
:1017300044455F5354415455535F414444494E47D7
:101740005F534C4156452825303258295D202020D2
:1017500020202D20416464696E6720536C6176659A
:1017600020756E69742E2E2E204E6F6465696E662C
:101770006F726D6174696F6E206C656E677468203E
:1017800025750D0A00000000414E4E3A205B414491
:10179000445F4E4F44455F5354415455535F414459
:1017A00044494E475F434F4E54524F4C4C4552288C
:1017B00025303258295D202D20416464696E6720F0
:1017C000436F6E74726F6C6C657220756E69742EE7
:1017D0002E2E204E6F6465696E666F726D6174693E
:1017E0006F6E206C656E6774682025750D0A0000A9
:1017F000414E4E3A205B4144445F4E4F44455F5357
:1018000054415455535F50524F544F434F4C5F44D3
:101810004F4E452825303258295D202020202D208C
:101820004E6F772073746F7070696E672C206170D3
:101830007020686173206E6F7468696E672E2E2E3B
:1018400020284E6F6465696E666F726D6174696F92
:101850006E206C656E677468202575290D0A00007E
:10186000414E4E3A205B4144445F4E4F44455F53E6
:1018700054415455535F444F4E4528253032582922
:101880005D202020202020202020202020202D200E
:101890004E6F646520696E636C756465642C20739B
:1018A000746F7070696E672E2E2E202575202D2086
:1018B000257328253032582920284E6F6465696EBB
:1018C000666F726D6174696F6E206C656E677468A7
:1018D000202575290D0A0000414E4E3A205B4144F7
:1018E000445F4E4F44455F5354415455535F464106
:1018F000494C45442825303258295D20202020209D
:101900002020202020202D204164644E6F646554E7
:101910006F4E6574776F726B206661696C65642CBD
:101920002073746F7070696E672E2E2E20284E6F94
:101930006465696E666F726D6174696F6E206C6547
:101940006E677468202575290D0A0000414E4E3AD5
:10195000205B253032585D202020202020202020B0
:101960002020202020202020202020202020202D6A
:1019700020556E646566696E656420737461747564
:101980007320284E6F6465696E666F726D6174694D
:101990006F6E206C656E677468202575290D0A00CE
:1019A000052104F1440003F00CB90A224A43010066
:1019B00006BF00210FF208000FF2340003F0FEBA58
:1019C00053656E6444617461203A205375636365A6
:1019D00073732E2E2E205B253032585D20547854A0
:1019E000696D65203D2025756D730D0A00000000AE
:1019F00053656E6444617461203A204661696C7578
:101A000072652E2E2E205B253032585D205478547E
:101A1000696D65203D2025756D730D0A000000007D
:101A20000246DFF86804416B0FF2040003F0C6BA07
:101A3000526571756573744E6F64654E656967684C
:101A4000626F725570646174655F436F6D706C2076
:101A50005B253033755D3A20253032580D0A000081
:101A6000DFF82814496B00280CBF0FF20C000FF2AE
:101A7000440003F0A3BA00005265717565737420C9
:101A80004E6F646520496E666F207472616E736D6F
:101A90006974746564207375636365737366756CCC
:101AA0006C7920666F72206E6F64652025750D0A53
:101AB0000000000052657175657374204E6F646597
:101AC00020496E666F207472616E736D6974206652
:101AD00061696C656420666F72206E6F6465202595
:101AE000750D0A0080B5002201210620FEF7A8FB33
:101AF000BDE802400FF2040003F060BA5A575F538A
:101B0000657444656661756C7420646F6E652E2E15
:101B10002E0D0A0038B504460A4621460FF2580039
:101B2000DA4D03F04BFA012C06D0062C0AD0072C14
:101B30000BD0802C0CD012E00FF27C0003F03EFAA8
:101B400001200AE00FF2980004E00FF2B80001E073
:101B50000FF2D40003F032FA0020A86331BD0FF277
:101B6000F00003F02BFA05F14400BDE83840DFF83F
:101B7000342E002103F0A4B85A575F5365744C65A6
:101B800061726E4D6F64652063616C6C6261636B42
:101B90002073746174757320253032582C20736F54
:101BA0007572636520253032582C206C656E2025B7
:101BB0003032580D0A0000005A575F5365744C6567
:101BC00061726E4D6F6465204C4541524E5F4D4FC2
:101BD00044455F535441525445440D0A00000000EF
:101BE0005A575F5365744C6561726E4D6F64652022
:101BF0004C4541524E5F4D4F44455F444F4E450D5D
:101C00000A0000005A575F5365744C6561726E4D4F
:101C10006F6465204C4541524E5F4D4F44455F46D1
:101C200041494C45440D0A005A575F5365744C6551
:101C300061726E4D6F6465204C4541524E5F4D4F51
:101C400044455F44454C455445440D0A000000009E
:101C50005A575F5365744C6561726E4D6F646520B1
:101C6000556E6B6E6F776E207374617475730D0AA9
:101C70000000000010B5044621460FF2340003F0C6
:101C80009DF98248416B1CB1022C07D003D308E0B8
:101C90000FF2480008E00FF2700005E00FF2A0001C
:101CA00002E021460FF2D400BDE8104003F086B9EF
:101CB0005A575F52656D6F76654661696C65644E13
:101CC0006F64652063616C6C6261636B2073746127
:101CD00074757320253032580D0A00004661696C16
:101CE0006564206E6F64652025303364206E6F74E8
:101CF0002072656D6F766564092D205A575F4E4FCF
:101D000044455F4F4B0D0A004661696C6564206E67
:101D10006F646520253033642072656D6F7665646D
:101D200009092D205A575F4641494C45445F4E4FA3
:101D300044455F52454D4F5645440D0A0000000092
:101D40004661696C6564206E6F646520253033647C
:101D5000206E6F742072656D6F766564092D205A50
:101D6000575F4641494C45445F4E4F44455F4E4F97
:101D7000545F52454D4F5645440D0A005A575F5225
:101D8000656D6F76654661696C65644E6F6465204C
:101D9000756E6B6E6F776E2073746174757320252A
:101DA000640D0A0038B5394C211D04F1440002F0DD
:101DB000C0FF00285ED02079410705D5C00654BF7A
:101DC0000FF2D40233A209E0C10648BFE0A205D455
:101DD000C0074CBF0FF2CC020FF2D4024FF4806167
:101DE00004F17C0003F06CF900F0B9F800F0B6F8EB
:101DF00020440FF2C40200F0B6F86079A0B1207957
:101E0000400704F17C0006D503F03EF900F0A6F887
:101E10000FF2B00205E003F037F900F09FF80FF27F
:101E2000B802204400F09FF82079000708D500F0A0
:101E300096F800F093F820440FF2B00200F093F807
:101E40002079800708D500F08AF800F087F8204450
:101E50000FF2AC0200F087F82079800612D500F06E
:101E60007EF800F07BF820440FF2A802C5F58061EF
:101E70007C3005E00FF2AC024FF4806104F17C008D
:101E800003F01EF904F17C0032BD0000EC000020DC
:101E9000A511000853495300496E636C7573696F4F
:101EA0006E0000005365636F6E646172790000001C
:101EB0005072696D6172790020436F6E74726F6C3D
:101EC0006C65720020696E206120534953206E6555
:101ED00074776F726B00000020696E20612053558B
:101EE00043206E6574776F726B0000002C202852BF
:101EF00065616C207072696D617279290000000063
:101F00002C20284F74686572206E6574776F726B31
:101F1000290000002C20284E6F206E6F6465732905
:101F200000000000436F6E74726F6C6C657220432A
:101F30006F756C64206E6F742064657465726D6972
:101F40006E6520436F6E74726F6C6C6572204361B6
:101F5000706162696C69746965730000054604F11B
:101F60007C0003F091B8C5F580617C3003F0A8B81F
:101F70002DE9F947DFF8444BDFF8445B4FF00009E7
:101F8000A4F8069084B085F8069005F10D0221466C
:101F900005F1440002F0BCFC05F1440002F05CFED7
:101FA0000146697101270FF2B01003F007F8687B52
:101FB000A378627821780190E07800900FF2A81061
:101FC00002F0FCFF022104F1080003F009F804F11B
:101FD00008000090631D4FF482702118221D05F146
:101FE000440002F0C9FE2079C00704D50FF2A81002
:101FF00002F0E4FF06E0FFF7D5FE01460FF2AC1059
:1020000002F0DCFF05F1140000210022002300266D
:102010004EC004F10C00C8464EC0DFF8046BE82146
:10202000304602F0DDFFE82104F11C0002F0D8FF89
:1020300004E0083708F101005FFA80F86079804514
:1020400063DA04EB0800007A0028F2D04FF00109AF
:102050004FF0000A04F1080009FA0AF110F808002C
:1020600008424BD002AAF9B2FFB200F005F92723CB
:10207000DFF8B00A13FB07F3184441F2A953062214
:1020800002A9184402F0BCFF9DF80C00E91908757C
:10209000A1796218491C1773A1716A7B974219D004
:1020A0009DF808209DF80910120601F0600101D486
:1020B0000A000FD0AA79B754521CAA7139B99DF8F9
:1020C0000810490606D5E179491CE17102E0E219E0
:1020D00082F81B90FEF7FAFE00909DF808109DF81C
:1020E0000900090600F060034CBF0FF2D002DFF8D0
:1020F000382A39460FF2CC0002F060FF7F1C0AF14B
:10210000010ABAF1080FA5DB94E7A9790FF2CC0018
:1021100002F054FF0498B0B1FEF75EF9DFF8040A4C
:10212000AA79019004F11C03E0790090314605F191
:10213000540003F08FF900280CBF0FF2C0000FF21B
:10214000FC0002F03BFF484606B0BDE8F087000007
:102150005355430061150008535543204944202539
:102160003033750D0A0000004465766963652048C8
:102170006F6D65494420253032582530325825305E
:102180003258253032582C204E6F64654944202542
:102190003033750D0A000000446576696365206977
:1021A0007320536C6176650D0A0000004465766902
:1021B00063652069732025730D0A0000545255454C
:1021C000200000004E6F6465202530337520257394
:1021D00020253032582025730D0A00004C69737495
:1021E000656E696E67206E6F6465732072656769DE
:1021F0007374657265642025750D0A004E657477E9
:102200006F726B4D616E6167656D656E745F496E6F
:1022100069743A20457373656E7469616C206675E4
:102220006E6374696F6E616C697479204E4F5420CF
:10223000737570706F727465640D0A004E65747703
:102240006F726B4D616E6167656D656E745F496E2F
:1022500069743A20457373656E7469616C206675A4
:102260006E6374696F6E616C6974792073757070D8
:102270006F727465640D0A0005F1440002F027BC1A
:1022800020280FF2E0012CD0212839D0232864D057
:10229000252853D0262854D027284CD0322844D083
:1022A0004F2857D056282ED0602841D062282DD0F4
:1022B000702822D0712817D0722830D0732816D0F9
:1022C00075282FD0762827D0822822D084283ED087
:1022D00085280FD0862837D0942808BF0FF29C019C
:1022E0003DE00FF2B8013AE00FF2C40137E00FF21F
:1022F000D40134E00FF2E80131E00FF200112EE0DA
:102300000FF214112BE00FF2381128E00FF24C11EC
:1023100025E00FF2601122E00FF26C111FE00FF2C6
:102320007C111CE00FF2981119E00FF2B01116E0C9
:102330000FF2BC1113E00FF2F41110E00FF20821BC
:102340000DE00FF220210AE00FF2382107E00FF232
:102350004C2104E00FF25C2101E00FF274210846E9
:1023600070470000556E6B6E6F776E20436F6D6D1A
:10237000616E6420436C617373000000434F4D4DE8
:10238000414E445F434C4153535F53494D504C457C
:102390005F41565F434F4E54524F4C00434F4D4D9B
:1023A000414E445F434C4153535F424153494300C4
:1023B000434F4D4D414E445F434C4153535F414C5D
:1023C00041524D00434F4D4D414E445F434C4153AC
:1023D000535F504F5745524C4556454C0000000046
:1023E000434F4D4D414E445F434C4153535F415326
:1023F000534F43494154494F4E000000434F4D4D08
:10240000414E445F434C4153535F434F4E4649470F
:1024100055524154494F4E00434F4D4D414E445F3C
:10242000434C4153535F434F4E54524F4C4C4552D3
:102430005F5245504C49434154494F4E0000000003
:10244000434F4D4D414E445F434C4153535F4352C4
:10245000435F31365F454E4341500000434F4D4D81
:10246000414E445F434C4153535F444F4F525F4C86
:102470004F434B00434F4D4D414E445F434C4153FE
:10248000535F4841494C0000434F4D4D414E445F1E
:10249000434C4153535F4C4F434B0000434F4D4D12
:1024A000414E445F434C4153535F4D414E5546416D
:1024B0004354555245525F535045434946494300A2
:1024C000434F4D4D414E445F434C4153535F505237
:1024D0004F54454354494F4E00000000434F4D4D6B
:1024E000414E445F434C4153535F4D455445520068
:1024F000434F4D4D414E445F434C4153535F4D5507
:102500004C54495F4348414E4E454C2F434F4D4D2F
:10251000414E445F434C4153535F4D554C54495FCA
:10252000494E5354414E434500000000434F4D4D2A
:10253000414E445F434C4153535F535749544348C2
:102540005F414C4C00000000434F4D4D414E445FF5
:10255000434C4153535F5357495443485F42494E9C
:1025600041525900434F4D4D414E445F434C4153FE
:10257000535F5357495443485F4D554C54494C455C
:1025800056454C00434F4D4D414E445F434C4153E3
:10259000535F56455253494F4E000000434F4D4D37
:1025A000414E445F434C4153535F57414B455F5548
:1025B00050000000434F4D4D414E445F434C41534A
:1025C000535F5A49505F364C4F5750414E00000000
:1025D000434F4D4D414E445F434C4153535F5A4925
:1025E0005000000070B5044684B0651E80B3112C05
:1025F0002EDA21460FF26C0002F0E0FC2721DFF812
:1026000024056943451841F2D0502844A4A64179D5
:10261000029101790191C178009183784278017823
:102620000FF2700002F0CAFC21460FF2CC0002F05B
:10263000C5FC0024281941F2D951405C01000FD09B
:10264000FFF71EFE0146304602F0B8FC641CF1E7BD
:10265000214604B0BDE870400FF2D80002F0AEBCD5
:102660007FBD00004E6F6465696E666F726D617448
:10267000696F6E2072656769737465726564206640
:102680006F72206E6F6465494420253033640D0AF3
:10269000000000006361706162696C6974792025D3
:1026A0003032582C20736563757269747920253037
:1026B00032582C207265736572766564202530323D
:1026C000582C206E6F64655479706520426173697F
:1026D0006320253032582C2047656E65726963206F
:1026E000253032582C205370656369666963202554
:1026F0003032580D0A000000436F6D6D616E64202A
:10270000436C617373657320726567697374657276
:10271000656420617320737570706F7274656420D6
:10272000666F72206E6F6465494420253033640DF6
:102730000A00000044756D704E6F6465496E666FE7
:10274000206E6F64656964206E6F742076616C69B9
:102750006420253033640D0A0000000001460FF2AA
:10276000080002F02BBC00005A575F526571756576
:1027700073744E6574776F726B5570646174652005
:10278000737461747573202D2025640D0A00000098
:1027900070B5DFF82C43DFF88C13DFF884330020AA
:1027A000A06241F665000A5C521CA579AA420CDAC7
:1027B0009D5C272675430D4441F2B256AD5D002D58
:1027C000F2D1BDE87040D0B2A4E000220A5400F07B
:1027D00045F8206428B9BDE870400FF2080002F007
:1027E000EDBB70BD4E6574776F726B4865616C743C
:1027F000685374617274204661696C656420746FFB
:10280000207374617274204E6574776F726B204808
:1028100065616C746820546573740D0A00000000D3
:10282000DFF89C220021116401460FF2080002F03B
:10283000C5BB00004E6574776F726B204865616C94
:1028400074682073746F70706564202D20537461F8
:102850007475732025750D0A00000000DFF8C4228E
:10286000DFF82C1A53780020012B02D0022B07D15D
:1028700003E0DFF84C02406B1076084602F0ECBD36
:102880007047DFF80C2BDFF898121278895C00286B
:102890000CBF0FF210000FF2480002F08FBB0000D7
:1028A0002573000052657175657374204E6F646501
:1028B00020496E666F207472616E736D6974746501
:1028C00064207375636365737366756C6C792074CB
:1028D0006F206E6F646520253033640D0A000000A0
:1028E00052657175657374204E6F646520496E661C
:1028F0006F207472616E736D6974206661696C65B6
:102900006420746F206E6F646520253033640D0A77
:1029100000000000F8B541F66504DFF80852684E83
:10292000285502F0ADFBB16A706209B102F0ABFB51
:10293000706ADFF8602A082102F0A3FBB06270B968
:102940000FF2640002F03AFBFFF788FF40BB0FF282
:10295000880002F033FBBDE8F240002060E7DFF8BA
:10296000C0710A2002F07EFE285DDFF82C2A395C57
:1029700006F1440002F04BF80028285D395C05D0D0
:10298000BDE8F4400FF2840002F018BB0FF2B00073
:1029900002F014FBBDE8F2400FF2DC0002F00EBBC7
:1029A000F1BD0000151B0008446F52657175657319
:1029B00074466F724E6F6465496E666F726D6174B6
:1029C000696F6E206E6F2074696D657221204552AB
:1029D000524F52210D0A00004E6574776F726B20C2
:1029E0004865616C7468205465737420636F756CFE
:1029F00064206E6F74206265207374617274656404
:102A0000202D204641494C45440D0A005A575F523B
:102A10006571756573744E6F6465496E666F206885
:102A20006173206265656E20696E697469617465A1
:102A30006420666F72206E6F64652025750D0A0034
:102A40005A575F526571756573744E6F6465496E50
:102A5000666F20636F756C64206E6F7420626520F2
:102A6000696E6974696174656420666F72206E6F47
:102A700064652025750D0A0054696D656F757420B5
:102A800063616C6C6261636B2066756E6374696F01
:102A90006E2077696C6C20696E6974696174652059
:102AA000616E64207472792077697468206E65782D
:102AB00074206E6F64650D0A00000000D46500206C
:102AC000EC000020F8B5DFF8B84A0E46216B054649
:102AD00011B1E06A02F0D7FA2800E06A0FF24D0265
:102AE0000F4F0CBF0821042102F0CBFA206328000D
:102AF0000CBF0FF2E8020FF2EC020A2000FB06F313
:102B0000207A395C0FF2E40002F058FA3DB1217AE4
:102B1000E079795CDFF8742A1154401CE071F1BD52
:102B2000DC67002038460020783E00082DE9F0419F
:102B3000DFF84C4AA27900202063ADF5806D207A41
:102B4000401CC1B29142207225D2DFF8445ADFF80E
:102B5000443ADFF8341AC0B20222285C02F032FB99
:102B6000206498B1207A295C0FF2B40002F026FAB2
:102B7000206C78BBE07918B30FF2C00200F0ABF81C
:102B800000250FF2C806DFF8047A12E00FF2C40045
:102B900002F014FAECE700202064EBE702F074FA8C
:102BA0008046684602F070FA7B5D324600F08EF88F
:102BB0006D1CE07985426846F0DB02F0FFF903E026
:102BC0000FF2C00002F0FAF90FF2E40002F0F6F999
:102BD000002020640DF5806DBDE8F081535543431E
:102BE000455353004641494C454400004765742015
:102BF00056657273696F6E20446F6E65202D204E8E
:102C00006F64652025303375202D202573202D20FD
:102C10004C6174656E63792025756D730D0A000033
:102C20004765742056657273696F6E202D204E6F54
:102C3000646520253033750D0A0000004765742057
:102C400056657273696F6E202D2000002530582064
:102C5000000000004765742056657273696F6E202E
:102C60002D20636F756C64206E6F74206265207315
:102C7000746172746564202D2073746F7070696E56
:102C8000670D0A004765742056657273696F6E2080
:102C900053756363657373202D20416C6C204E6FF8
:102CA00064657320616E7377657265640D0A000058
:102CB0004765742056657273696F6E204E6F646548
:102CC000202D20456E640D0A00000000C8F58061CB
:102CD000684402F0F5B94FF48061684602F0F0B93B
:102CE000E0B50FF22C0002F069F90A21684601F004
:102CF00047F80A220021684602F0D8FDDFF8801864
:102D0000486301460FF2280002F058F907BD0000A1
:102D1000456E746572206E65772063757272656E9C
:102D200074204E6F646549443A0D0A20000000008B
:102D300043757272656E74204E6F646549442069F4
:102D400073206E6F772025690D0A000080B5DFF8CB
:102D50003008DFF8A42D00F093F806D0C1214430EC
:102D600001F02FFF0FF2100005E00521443001F0C3
:102D700028FF0FF2440045E05A575F4164644E6FEC
:102D80006465546F4E6574776F726B204144445F85
:102D90004E4F44455F414E597C4144445F4E4F4441
:102DA000455F4F5054494F4E5F4E4554574F524B1D
:102DB0005F574944450D0A005A575F4164644E6F9E
:102DC0006465546F4E6574776F726B204144445F45
:102DD0004E4F44455F53544F500D0A0080B5DFF805
:102DE000A007DFF8182D00F04BF805D0443001F0B3
:102DF00000FF0FF2180005E00521443001F0F9FE54
:102E00000FF25000BDE8024002F0D8B85A575F52A6
:102E1000656D6F76654E6F646546726F6D4E657455
:102E2000776F726B2052454D4F56455F4E4F44456C
:102E30005F414E597C4144445F4E4F44455F4F5083
:102E400054494F4E5F4E4554574F524B5F5749447C
:102E5000450D0A005A575F52656D6F76654E6F6477
:102E60006546726F6D4E6574776F726B2052454D7B
:102E70004F56455F4E4F44455F53544F500D0A0027
:102E8000C16B491E8941C90FC163704710B50FF26C
:102E90009000007882B001218DF80000684602F0B1
:102EA000BFFA002837D00FF27C00DFF8D44602F0DA
:102EB00085F8616B0FF2A80002F080F8616BDFF813
:102EC000402CC9B204F1440001F04EFE01000AD0CA
:102ED00002280CD004280DD008280ED010280FD0BE
:102EE000202810D012E0616B0FF2900010E00FF27A
:102EF000B80012E00FF2E4000FE00FF210100CE047
:102F00000FF23C1009E00FF2741006E00FF2A0106F
:102F100002F054F813BD0FF2BC1002F04FF813BDCD
:102F2000610000005A575F52656D6F7665466169B2
:102F30006C65644E6F646520737570706F72746534
:102F400064206279205A2D57617665205365726935
:102F5000616C415049206D6F64756C650D0A00000D
:102F60005A575F52656D6F76654661696C65644E50
:102F70006F646520253033640D0A00005A575F5294
:102F8000656D6F76654661696C65644E6F6465203A
:102F900073746172746564206F6E206E6F64652057
:102FA000253033640D0A00005A575F52656D6F7605
:102FB000654661696C65644E6F6465202D205A57C3
:102FC0005F4E4F545F5052494D4152595F434F4EEF
:102FD00054524F4C4C45520D0A0000005A575F5254
:102FE000656D6F76654661696C65644E6F646520DA
:102FF0002D205A575F4E4F5F43414C4C4241434B4B
:103000005F46554E4354494F4E0D0A005A575F5282
:10301000656D6F76654661696C65644E6F646520A9
:103020002D205A575F4641494C45445F4E4F444519
:103030005F4E4F545F464F554E440D0A000000004E
:103040005A575F52656D6F76654661696C65644E6F
:103050006F6465202D205A575F4641494C45445FB7
:103060004E4F44455F52454D4F56455F50524F437A
:103070004553535F425553590D0A00005A575F524A
:10308000656D6F76654661696C65644E6F64652039
:103090002D205A575F4641494C45445F4E4F4445A9
:1030A0005F52454D4F56455F4641494C0D0A000061
:1030B0005A575F52656D6F76654661696C65644EFF
:1030C0006F6465206661696C6564202D2025640D40
:1030D0000A0000005A575F52656D6F766546616958
:1030E0006C65644E6F6465204E6F742073757070EC
:1030F0006F72746564206279205A2D57617665205D
:1031000053657269616C415049206D6F64756C65DF
:103110000D0A000010B5DFF86844DFF8082DA06B39
:1031200038B9012104F1440001F0CAFD0FF220007A
:1031300006E0002104F1440001F0C2FD0FF240005E
:1031400001F03CFFA06B401E8041C00FA06310BD8A
:103150005A575F5365744C6561726E4D6F6465209C
:10316000656E61626C696E67206C6561726E4D6F31
:1031700064652F726563656976650D0A000000005D
:103180005A575F5365744C6561726E4D6F6465206C
:1031900064697361626C696E67206C6561726E4D03
:1031A0006F64652F726563656976650D0A000000BE
:1031B0001CB5DFF8CC432022227001226270FF226E
:1031C00010B9A07818B900E009B1A27001E00020A0
:1031D000A070626BA1780FF2300001F0EFFEDFF813
:1031E000480C616B01900323252000902246C9B250
:1031F00004F1440001F048FB616B0FF23C00BDE8B4
:103200001C4001F0DBBE00005A575F53656E6444FA
:1032100061746120426173696320536574202530B5
:1032200032582C204E6F6465494420253033642089
:103230002D200D0A0000000043757272656E742027
:103240004E6F64654944206E6F7720253033640DDE
:103250000A00000000B585B06946DFF8D00B01F028
:1032600040FD00211DF8013043B1491C0F29F9DB55
:103270001DF8013013B100230DF80130FDF74EF8B1
:1032800001466A460FF6F83001F098FE05B000BD21
:10329000212800082DE9F04ED0B00FF6044001F0CF
:1032A0008DFE6946DFF8840B01F084FB9DF8012058
:1032B0009DF800100FF60C4001F080FE9DF80320F1
:1032C0009DF802100FF2D40001F078FE9DF8052061
:1032D0009DF804100FF2081001F070FE9DF8072011
:1032E0009DF806100FF2501001F068FE0FF29C10CE
:1032F00001F064FE002408260FF280291DF8063034
:103300000FF2A8124FF4807110A801F0D9FE012726
:103310002025BA461DF806001AEA000F1CD0202D01
:103320000CD000F0CCF8834600F0C9F82B4610AD65
:103330004A46CBF58071284401F0C2FE00F0BFF888
:1033400000F0BCF8C5F5807110AD3B190FF26412A6
:10335000284401F0B5FE2C257F1C092F4FEA4A0AAC
:10336000D8DB00F0ACF800F0A9F810AB85A2C5F5E9
:103370008071184401F0A4FE10A90FF28C7001F0C6
:103380001DFE0834761C282EB8DB50B0BDE8F08E48
:103390009D5E00209127000883280008534552496C
:1033A000414C4150495F4D414E5546414354555261
:1033B00045525F49443120253032782C2053455204
:1033C00049414C4150495F4D414E5546414354554A
:1033D0005245525F49443220253032780D0A0000B0
:1033E00053455249414C4150495F4D414E5546412C
:1033F0004354555245525F50524F445543545F54C5
:103400005950453120253032782C205345524941BE
:103410004C4150495F4D414E5546414354555245EC
:10342000525F50524F445543545F545950453220D7
:10343000253032780D0A000053455249414C415025
:10344000495F4D414E5546414354555245525F5098
:10345000524F445543545F49443120253032782C33
:103460002053455249414C4150495F4D414E5546CC
:10347000414354555245525F50524F445543545F57
:1034800049443220253032780D0A000046554E431B
:1034900049445F535550504F525445445F4249543C
:1034A0004D41534B5B5D0D0A000000002530327822
:1034B000205B00002530325800000000054610A8AF
:1034C00001F0E2BD2DE9F8432D4DDFF86C49E87BB2
:1034D00001284FF0000803D102206070022706E0A7
:1034E000AB2020700327AD2060700220A070002662
:1034F0000FF608200FF63C2901F060FD0020FEF7D2
:1035000037FDA819007D010010D008EB4801C9194A
:10351000214400220E7048708A7008F10108FDF7FE
:10352000D5FC02463146484601F048FD761C102E77
:10353000E7DB41460FF610200FF6302601F03EFD86
:10354000E87B012808EB480106D18F1C2770F9B2EF
:10355000204601F097FC06E002280DD1CF1CF9B2FD
:10356000204601F0F3FCE97B3B46304601B0BDE864
:10357000F043022201F022BDBDE8F1832563000083
:10358000EC0000205D000000607A0020C46800208C
:10359000DC670020C52A00082DE9F04FADB00020FF
:1035A0008DF8080080464FF4FA7002F05BF80FF6D1
:1035B000EC10DFF8885801F001FD01210FF6002022
:1035C00001F0FCFCDFF87808DFF878380190002281
:1035D000DFF874080090012105F1440001F0BEF805
:1035E000002800F0808214A905F1440001F079FB65
:1035F0000746FCF793FE04462146C3A002F080F97B
:1036000058B121460FF6D01001F0D8FC224614A97B
:103610000FF6E81001F0D2FC05E039460FF6E41091
:1036200001F0CCFC0027DFF82448DFF824B820683C
:103630004FF47A7102F01FF80FF6C02001F0BEFCC3
:10364000002F00F02E8214A90FF2BC40DFF804789E
:103650000FF2BC440FF2CC490FF2DC4A01F0AEFC91
:103660004FF41C71DFF8F00701F0BAFCDFF8EC173B
:1036700005F1440001F027FA0020FEF779FC686BA1
:10368000697B884204BF401C68630FF6882001F004
:1036900095FC08AE02E00A2001F0E4FF00208DF85E
:1036A00008000DF1090108A801F0C0FB002857D05F
:1036B0000FF67C2001F082FCB07800F039FB7378C3
:1036C00001F07CFC7078B278F3780146801E052802
:1036D00044D8DFE800F003050D151820492017E055
:1036E0006A6398460FF6582001F068FC2A200FE024
:1036F0006A6398460FF66C2001F060FC412007E0F9
:1037000000F023FB2AE00FF6902001F057FC442044
:103710008DF8080022E0484601F050FCB07880B9EE
:10372000204601F04BFC202000F014FB402000F06C
:1037300011FB00F020FB01222021384602F0CFF9D6
:1037400009E00FF6702001F039FC202000F00BFB9F
:10375000402000F008FB012000F0F1FA012064E0B5
:103760000DF1090108A801F0C5FB002854D00FF69F
:10377000582001F023FCF07800F0DAFAB37801F079
:103780001DFCB378F07896F804E019469B1E052BD3
:1037900002463FD8DFE803F003050F181B2349203A
:1037A0001AE06A63F046014643460FF6941001F0B2
:1037B00005FC2A2010E06A63F04671780FF6A41029
:1037C00001F0FCFB412007E000F0BFFA22E00FF619
:1037D000C81001F0F3FB44208DF808001AE04846B9
:1037E00001F0ECFBF07830B9204601F0E7FB00F087
:1037F000C2FA012207E00FF6BC1001F0DFFB012244
:1038000000F0BAFA00222021384602F068F90220BE
:1038100000F095FA022008E08DF8080000F082FA26
:1038200000284DD100F078FA0020E8739DF80810C8
:10383000686B212900F0B380222900F0C68023297B
:1038400000F0C080252900F0D7802A2900F07A8076
:103850002E296BD02F2900F07A803F293DD04129B5
:103860002FD0442944D0462931D0482916D049299F
:1038700017D04C292ED0502917D0522924D05529A1
:1038800017D0562973D0572940D0582948D06129DC
:1038900017D064292CD0662919D0682900F0B0808F
:1038A00069296AD06C2915D0702963D072290BD090
:1038B000752965D076295AD0772927D078292FD035
:1038C000E9E6FFF743FAE9E6FFF788FAE6E6FFF7ED
:1038D000DDFAE3E6FFF71EFCE0E60FF6FC0001F080
:1038E0006DFBDFF87C1505F1440001F0B4F8D5E676
:1038F0000FF6081001F062FBDFF8681505F14400CF
:1039000001F005F9CAE600BF000000000FF608103C
:1039100001F054FB012105F1440001F014F9BDE66A
:103920000FF6181001F04AFB0021F4E7C1B26A4615
:10393000FEF7A2FC9DF80320696B0FF61C1001F046
:103940003DFBABE6E87B4146FFF732FCA6E60FF60F
:10395000481001F033FB00230022FF2105F1440051
:1039600000F072FF0FF65C1001F028FB96E6FFF7FF
:1039700071FC93E6FFF78EFC90E6FFF7A3FD8DE662
:103980000FF66C1001F01AFBFFF7AAF9696BDFF86C
:10399000D824C9B205F1440001F073F87EE60FF6B1
:1039A000701001F00BFBA87B30B10FF6881001F00E
:1039B00005FB0020A87371E60FF6801001F0FEFAF7
:1039C0000120F7E7FFF78CF968E601460FF674105F
:1039D00001F0F4FA696BDFF89424C9B205F14400F0
:1039E00001F015F80028696B0CBF0FF6AC100FF64C
:1039F0007C1001F0E3FA51E6C0B2FEF7F3FD4DE6AC
:103A000040A001F0DBFA0FF6C81001F0D7FA0FF66C
:103A1000F01001F0D3FA696B0FF6182001F0CEFA1E
:103A20000FF63C2001F0CAFA0FF65C2001F0C6FA4E
:103A30000FF6702001F0C2FA696B0FF6A02001F0BA
:103A4000BDFA696B0FF6CC2001F0B8FA696B0FF67E
:103A5000003001F0B3FA0FF6283001F0AFFA0FF2A0
:103A6000F80001F0ABFA0FF2141001F0A7FA0FF210
:103A7000201001F0A3FA0FF2681001F09FFA0FF284
:103A8000781001F09BFA0FF2881001F097FAA87BEA
:103A9000002814BF0FF290110FF2DC310FF29010DA
:103AA000A7E705F1440000F0BDFE20680FF2A41462
:103AB00001F0E3FD0FF2F41001F080FA0FF20420A0
:103AC00002E000F029F9204601F078FA00F02AF926
:103AD0000028F6D08021E64802F005F84FF47A700D
:103AE00001F0C0FDF2E710A90FF2042001F066FA20
:103AF0002DB0BDE8F08F000061150008A511000889
:103B0000751C00080A00000025730D0A0000000063
:103B10000D0A557362204F54472044697361626CEB
:103B2000650D0A00436D643D25642C2053657420A7
:103B30004F54470D0A0000004C656E3D2564205B24
:103B4000253032585D205B253032585D205B2530B2
:103B500032585D0D0A000000502020203A204765B1
:103B6000742073657269616C617069206361706152
:103B700062696C69746965730D0A00005620202023
:103B80003A206765742056657273696F6E0D0A007E
:103B9000492020203A20496E697469616C697A6510
:103BA000206E6F64654C69737420616E6420647567
:103BB0006D70206E6F6465696E666F20286F6E6C25
:103BC0007920737570706F72746564206279204318
:103BD0006F6E74726F6C6C6572290D0A00000000C4
:103BE0004C2020203A205A575F5365744C6561720F
:103BF0006E4D6F64650D0A00442020203A205A570C
:103C00005F53657444656661756C740D0A0000004D
:103C1000572020203A205A575F536F6674526573BD
:103C200065740D0A00000000545255450000000064
:103C3000212020203A205072696E7420696E636FD3
:103C40006D6D696E67206672616D6573202D20252C
:103C5000730D0A0054686520636F6D6D756E69633E
:103C60006174696F6E2077697468205A57204D6FB0
:103C700064756C6520776173206661696C6564208A
:103C8000736F2074686174207265626F6F74207442
:103C9000617267657420666F72206F7065726174FF
:103CA000696F6E202E2E2E0D0A0000005A57686F85
:103CB000737441707054696D65722073746F7020F5
:103CC0000D0A00004661696C656420746F206765A9
:103CD00074206C69625479706520736F2053746F1F
:103CE00070206F7065726174696F6E200D0A00003C
:103CF0004E6F20706F7274206465746563746564C0
:103D0000206F6E2073657269616C20706F72742011
:103D100025730D0A000000000123012202A9584664
:103D200001F033BF0123012202A9584601F07DBFF3
:103D30009DF820209DF80910009050467047E873C8
:103D4000002201210720FCF77BBA6A630FF22840AA
:103D500001F034B9039003A90120049000200690DB
:103D6000384601F0EFBD039003A9002004900690AF
:103D7000384601F0E7BD00224021384601F0AFBED1
:103D80002DE9F04782B0044600274D1E394EDFF87A
:103D9000C0900FF29C0A4FF6FF7802E0642001F019
:103DA00061FC012301226946484601F03EFF0028DC
:103DB000F4D19DF90000082818BF7F2809D1002FF1
:103DC000EFD0434603225146484601F0DEFE7F1EF7
:103DD000E7E70A2807D196F9000000281CBF002059
:103DE0003070DED112E00D280ED01B280ED0AF426D
:103DF000D7D29DF80000E055434601226946484667
:103E000001F0C3FE7F1CCCE7012030700020E0559C
:103E10004346022207A1484601F0B7FE3846BDE8F6
:103E2000F6870000151B0008AB19000830010020C0
:103E3000082008000D0A0000E07A0020EC000020B5
:103E4000F50C0008790500080D0900085C00002049
:103E5000A079002000040240085C00201D04000836
:103E60005D270008E51A0008211A0008611A0008F9
:103E7000000802407E6C002046414C534500000083
:103E80005A2D576176652025732070726F746F63A9
:103E90006F6C2056657273696F6E2025730D0A0072
:103EA00043616C6C696E672053657269616C5F4732
:103EB00065745F4361706162696C69746965730DF3
:103EC0000A00000053455249414C5F4150504C5F3D
:103ED00056455253494F4E20253032782C205345B9
:103EE0005249414C5F4150504C5F524556495349ED
:103EF0004F4E20253032780D0A000000496E69745B
:103F000069616C697A65206E6F64654C69737420B1
:103F100077697468206E6F646520696E666F2066CD
:103F2000726F6D20646576696365206D6F64756C72
:103F3000650D0A004E6F64652025303375202D20F5
:103F400025730D0A00000000546F74616C206F66C9
:103F50002025303375206E6F64657320696E206E86
:103F60006574776F726B0D0A000000005265737004
:103F70006F6E736520496E666F20746F2055707088
:103F8000657228256429205B253032585D5B4C3DE5
:103F900025645D2E2E2E2E0D0A0000005A575F411B
:103FA000707028534841435329202D20537973744E
:103FB000656D20737461727465640D0A0000000001
:103FC0005573696E672073657269616C20706F72DA
:103FD000742025640D0A00005A2D5761766520254E
:103FE000732062617365642073657269616C20413E
:103FF000504920666F756E640D0A00002573202DF0
:10400000202573004E6F2053657269616C2041500A
:1040100049206D6F64756C652064657465637465B3
:10402000642C205B6C6962747970652025755D2D48
:1040300020636865636B2073657269616C20636FD0
:104040006E6E656374696F6E732E0D0A54686973C2
:10405000206170706C69636174696F6E2072657144
:10406000756972657320612053657269616C2041C6
:1040700050490D0A6F6E2061205A2D5761766520D8
:104080006D6F64756C6520636F6E6E6563746564D7
:104090002076696120612073657269616C706F724E
:1040A000742E0D0A446F776E6C6F616420746865BE
:1040B00020636F72726563742053657269616C204E
:1040C00041504920636F646520746F2074686520D7
:1040D0005A2D57617665204D6F64756C6520616E51
:1040E00064207265737461727420746865206170F5
:1040F000706C69636174696F6E2E00005A57686F47
:10410000737441707054696D657220737461727458
:10411000200D0A00496E70757420434D4420666F6F
:1041200072205A57204D6F64756C650D0A000000AF
:1041300047657420425420436D640D0A000000005E
:10414000436D643D25642C204E6F64654964203DB9
:104150002025642053657456616C203D2025640D34
:104160000A000000436D643D25642C2041646420F6
:104170006E6F64650D0A0000436D643D25642C205C
:104180005175657279204E6F64655B25645D20739F
:1041900074617475730D0A00436D643D25642C20B1
:1041A000526573657420746F2044656661756C7424
:1041B0000D0A00000D0A557362204F544720456ECA
:1041C00061626C650D0A00004765742055534220FA
:1041D000436D640D0A0000005A575F5265717565A2
:1041E00073744E6574776F726B557064617465207B
:1041F00063616C6C65642E2E2E0D0A005A575F5356
:10420000657444656661756C742063616C6C65648B
:104210002E2E2E0D0A0000005A575F536F667452FF
:10422000657365742063616C6C65642028776174C4
:104230006368646F67292E2E2E0D0A005A575F534C
:104240006F667452657365742063616C6C65642E6F
:104250002E2E0D0A000000004765742050726F7406
:104260006F636F6C20496E666F2063616C6C656470
:1042700020666F72204E6F6465202575203A2042BB
:1042800061736963204E6F646574797065203D20A9
:1042900025750D0A000000005A575F53656E644E85
:1042A0006F6465496E666F726D6174696F6E2042EE
:1042B000726F616463617374202D20737461727412
:1042C0000D0A00005A575F53656E644E6F6465496E
:1042D0006E666F726D6174696F6E2042726F616499
:1042E00063617374202D20646F6E650D0A000000F9
:1042F0005A575F526571756573744E6F64654E658C
:10430000696768626F725570646174650D0A0000B8
:10431000546F67676C696E6720696E636F6D6D6956
:104320006E67206E6F74696669636174696F6E731E
:10433000200000006F66660D0A0000006F6E0D0A17
:104340000000000052657175657374204E6F6465DE
:10435000496E666F726D6174696F6E20666F722050
:104360006E6F64652025750D0A0000005A575F5274
:104370006571756573744E6F6465496E666F20690B
:104380006E6974696174656420666F72206E6F6413
:10439000652025750D0A00005A575F5265717565D5
:1043A00073744E6F6465496E666F20636F756C64DD
:1043B000206E6F7420696E6974696174656420662B
:1043C0006F72206E6F64652025750D0A0000000075
:1043D000412020203A20416464204E6F64652028EB
:1043E0006F6E6C7920737570706F72746564206283
:1043F0007920436F6E74726F6C6C6572290D0A00C0
:10440000522020203A2052656D6F7665204E6F64F1
:104410006520286F6E6C7920737570706F7274658B
:104420006420627920436F6E74726F6C6C657229C0
:104430000D0A0000462020203A2072656D6F7665D7
:10444000204661696C65642063757272656E7420C4
:104450006E6F6465494420253033640D0A00000006
:10446000552020203A205A575F5265717565737444
:104470004E6F64654E65696768626F7255706461FE
:1044800074650D0A00000000232020203A205365A7
:10449000742063757272656E74206E6F6465494432
:1044A0000D0A00002E2020203A2043616C6C205A17
:1044B000575F4765744E6F646550726F746F636FBA
:1044C0006C496E666F20666F722063757272656EDE
:1044D00074206E6F646549440D0A0000222020207C
:1044E0003A2043616C6C205A575F52657175657351
:1044F000744E6F6465496E666F20666F72206375D7
:104500007272656E74206E6F646549442025303385
:10451000640D0A002A2020203A205A575F53656E06
:1045200064446174612077697468206578706C6F89
:10453000726520746F2063757272656E74204E6FA1
:1045400064654944202825303364290D0A000000A1
:1045500025252020203A2044756D70204E6F64651B
:10456000496E666F20666F722063757272656E7435
:10457000204E6F6465494420253033640D0A0000E5
:104580002F2020203A2042726F616463617374208F
:104590004E6F646520496E666F726D6174696F6EEF
:1045A000206672616D650D0A00000000DFF88C1254
:1045B00001600022DFF88812CA620A634A638A63D4
:1045C000CA630A644A648A64CA644A658A65CA65B9
:1045D0000A664A660A674A678A678A66CA66CA6757
:1045E0004A618A61CA610021DFF858221170FF23F5
:1045F000DFF8882202F83130491C1429FADB7047B1
:104600002DE9F843DFF8FC72DFF8345238680C46C5
:104610009046994600F09EF86E783046042810DAED
:104620008822DFF8E41250430844C0F8909580F8DF
:104630000C854246214600F20D5000F0E1FC701C52
:1046400068703868BDE8F24301F060B810B582B018
:10465000044600208DF800006B462046FFF7D0FF8F
:104660006946204600F00CF816BDDFF8A00201787C
:10467000491CCAB202B901210170007870470000DC
:1046800038B5DFF8BC5100200C46286101E000F08D
:104690005EF820782228FAD12869A96821B100287B
:1046A00002D100F054F8F7E708B9012032BD00202C
:1046B000286132BD38B51D4604460023FFF7A0FF30
:1046C000059B049A2946204601B0BDE830402DE9FB
:1046D000F0470446DFF86851DFF868610120E860C0
:1046E0008846002092461F46E06041F2883901E08A
:1046F00000F02DF83278E86811000DD120B1B9F141
:10470000010906D10120E0600020E860DFB100204F
:1047100018E0E1680029EBD0E1680029F4D1002815
:10472000F4D07078012804BFB0784045E2D1002071
:10473000BAF1000FE86003D03146504600F060FC4B
:104740000FB13078387000203070BDE8F08701205C
:1047500000F088BF002100F0A5BF0000F8B50446B6
:104760000D461F460FF2800000F028FC380039D0BB
:104770000798010036D0324E0699B06237620020A9
:104780007162B0602072E0607061706830BB012DB2
:1047900008BFDFF8100212D0022D08BFDFF8700446
:1047A0000DD0032D08BFDFF86C0408D0042D08BF1E
:1047B000DFF8740403D0052D02D1DFF87C047060AB
:1047C00029460FF2440000F0F9FB706850B1002157
:1047D000616071703170062101F04CFC706808B1A5
:1047E0000120F2BD0020F2BD4353657269616C4146
:1047F0005049282564293A3A496E697469616C699F
:104800007A650D0A000000004353657269616C41CE
:1048100050493A3A5A5755617274282564290D0A4D
:10482000000000007047501EC010085C511E01F0CF
:104830000701C84000F00100704700000C9200081A
:10484000786B0020DC66002070B50C4619000CBFA8
:1048500000254325DFF82C140A71002606220E805D
:104860000A701226DFF820248E70CC704D71D3644C
:104870000023BDE8704000F0E1B900004C6A002060
:104880009DF80800042870472DE9FE430B9D8046E3
:104890000F4691461C4628000CBF0020FFF7E5FE9E
:1048A000DFF8E863002131800522132100F010F8C1
:1048B0001323DFF8D403C56202A80190D2B200F03E
:1048C000FBF9FFF7DDFFACBFF0780020BDE8FE8309
:1048D000B170F7703471002104E019F80170B75419
:1048E0001A46491C531CA142D2B2F6DB0A99B154B4
:1048F000DBB25A1CF054327000208DF8080000968C
:104900007047000064000020A85E00207F6C00203B
:1049100070B50C46DFF8B8640021318084B02021E6
:10492000B170154603213170009600F080F9202304
:1049300002A9019103223146FFF7BCFEF0782070F6
:10494000307960707079A070B079E070F07928707B
:104950007FBD00007CB514469222DFF8785400F049
:1049600023F8002605F1800101916E70922300F07A
:1049700015F895F8800078B12E7968792070A879BB
:104980006070E879A070287AE07095F880000728B8
:10499000ACBF687A00202071304676BD04222946DB
:1049A000FFF788BE607900200095E970AA700421A5
:1049B000297070473EB50D46DFF81C440094002175
:1049C000218007230721A1700322032100F06DF944
:1049D0002146FFF76FFE002005E0C0B22118401C01
:1049E000C97805F8011BC1B29DF808209142F4D3A3
:1049F00037BD2146A2700023BDE810400422FFF716
:104A0000FFBDE1700022042122802170704770B543
:104A100084B004460E46002A0CBF0020FFF725FE96
:104A2000DFF8B853009528710021052029802870EF
:104A3000602100F023F9A97002A80190EE706023B4
:104A40000522294600F08DF8FFF71AFFACBFE87881
:104A5000002004B070BD38B504460D000CBF002026
:104A6000FFF703FEDFF8781300F067F85322DFF852
:104A700004038A70C567204601B0BDE830400023BA
:104A8000BCE770B504460E4615000CBF0020FFF7CA
:104A9000ECFDDFF8501300220A80CE700871482226
:104AA0000520DFF844638A7008707560052220468F
:104AB000FFF7CCFD30B97168080003D0BDE8704045
:104AC0002320084770BDDFF82003016070473EB522
:104AD0001446DFF818530095E970002204212A805B
:104AE0002970412200F00DF80191412300F096F960
:104AF00000F0CEF8A879E070E8792071287A60712A
:104B000037BD00218DF80810AA7002A9704738B58A
:104B100004460D000CBF0020FFF7A7FDDFF8D01200
:104B200000F00BF84222DFF84C028A7085652046BF
:104B300001B0BDE83040002360E7C87000220420C7
:104B40000A800870704710B5DFF8A842FFF759FFD8
:104B500008224EE78A7003220A70FFF751BD052232
:104B600039462046FFF7A6BDFEB5044600208DF865
:104B7000080016460D4630000CBF0020FFF775FDFB
:104B8000DFF8747200F010F8612102A8B97001908A
:104B9000FD706123FFF7E3FF00F00DF8AEBFF8787A
:104BA000FF2000268E61FEBD009738710021052090
:104BB0003980387070479DF80800DFF82C120428FF
:104BC000704770B504460E4615000CBF0020FFF775
:104BD0004CFDDFF8281200F034F84A222A488A7087
:104BE000CE70C5652046BDE8704000230522FFF762
:104BF00007BD70B504460E4615000CBF0020FFF738
:104C000034FDDFF8FC1100F01CF84B22E6E7000051
:104C1000A079002010780020DFF8E81100220A8037
:104C20000023442296E70000140000200094002195
:104C30008DF8081070470000B07700200622FFF7BB
:104C4000DFBC0871002205200A8008707047DFF879
:104C500024018A70CE707047002110B5DFF8A8419A
:104C600021805621A17084B003212170FFF7DEFF5F
:104C7000562302A90191032211E0000000208DF8C3
:104C800008007047806C0020786B0020006D0020C9
:104C9000E8782070287960706879A07070472146A4
:104CA000FFF708FDE07804B010BD217000218DF8F9
:104CB000081002A90191704731464046FFF7FABC3F
:104CC00070B504460E4615000CBF0020FFF7CDFC62
:104CD0004E49FFF7B6FF5022FFF7B9FF456781E75E
:104CE0000000FEB50446FFF7C9FF0D46484F80217E
:104CF000384600F075F91520B87000263E80032074
:104D00003870009702A8019015230322FFF728FFAF
:104D100006220FF21011F81C01F0B4F938B9FE7B2D
:104D20000C22F91C284600F06BF90020287330464D
:104D3000FEBD3EB50C46374D009500212980052368
:104D4000052100F00AF8E8782070FFF799FD01DBF3
:104D500001203EBD00203EBD0000A97003220321BA
:104D6000297000218DF8081002A901912946FFF74A
:104D7000A1BC0000786B0020FEB50E46264D002138
:104D8000298014460221A9701F460321297002239D
:104D9000FFF74DFF31702170009502A901910322A8
:104DA00000F03DF8E87830700021287920706879AB
:104DB0003870089803E06A1892794254491C6A795D
:104DC0009142F8DB207810F0040018BF0120FEBDEE
:104DD000806D0020FC6B0020006E0020806E0020A3
:104DE000006F0020806F0020007B002000700020FA
:104DF000807000200071002080710020007200206F
:104E00008072002000730020807300200074002056
:104E1000807400200075002080750020042229463F
:104E2000FFF748BC5A2D5761766500002DE9F04127
:104E30002A4E804630780D46F0B1294F386800215F
:104E400000F030FC3078441E3470E4B2254E96F801
:104E500020002870314696F82020404600F0D0F817
:104E600004EB441206F12101304600F0C9F838681D
:104E700000F04CFC012003E0142000F0F3FB0020C4
:104E8000BDE8F0812DE9F843174C184F00F016F8F3
:104E90003E78032E05DA164900F016F800F008F8FF
:104EA00000E00025206800F031FC2846BDE8F283D0
:104EB00089F82080701C38700125704705468846A7
:104EC0002068002100F0EEBB06EB461001EB000964
:104ED00042462946484600F093B80000D9660020B3
:104EE000680000200076002074000020DA660020B0
:104EF000647600202DE9F0412A4E804630780D4638
:104F0000F0B1294F3868002100F0CCFB3078441E06
:104F10003470E4B2254E96F820002870314696F899
:104F20002020404600F06CF804EB441206F1210109
:104F3000304600F065F8386800F0E8FB012003E037
:104F4000142000F08FFB0020BDE8F0812DE9F8432C
:104F5000174C184F00F016F83E78032E05DA164964
:104F600000F016F800F008F800E00025206800F0D6
:104F7000CDFB2846BDE8F28389F82080701C38708C
:104F800001257047054688462068002100F08ABB4D
:104F900006EB461001EB000942462946484600F060
:104FA0002FB80000DB6600206C000020C8760020CF
:104FB000780000207D6C00202C7700200EB400B516
:104FC00082B003A9009102466B4601210348784450
:104FD0000A3001F089F806BC5DF810FBF5410000CD
:104FE000002201F0EDBA8268521C8260426832B140
:104FF0000268531C036011704168491E416070478C
:1050000062B38B0708D0521E11F8013B00F8013B38
:1050100000F024808B07F6D1830740F0208000BF8A
:10502000103A07D330B4B1E83810103AA0E838107D
:10503000F9D230BC530724BFB1E80810A0E808102B
:1050400044BF51F8043B40F8043BD20724BF31F879
:10505000022B20F8022B44BF0B7803707047083AEC
:1050600007D3B1E80810083A40F8043B40F804CBF5
:10507000F7D25307E4E7006870474068704770470D
:10508000704700207047704700F10103810704D08A
:1050900010F8011B89B18107FAD10268B2F1013120
:1050A000914311F0803F04BF50F8042FF6E710F849
:1050B000011B11B110F8011BFBE7C01A704700007B
:1050C00008B400B584B005AB03930023029311B973
:1050D0000093019302E00090481E019003AB6946E3
:1050E000074878441A3000F0FFFF009911B1009A88
:1050F00000211170002858BF029804B05DF808FB29
:10510000E7FEFFFF70B50446DFF874610D46301D01
:10511000FFF7B3FFB06900B3290003D00A21694348
:10512000016008E0F068FFF7AAFF51EC100B01F0F6
:1051300061FAB16908602000B16918BF0120887266
:10514000306938B10A1D0178DFF83001FFF702FC41
:10515000012800D00020B1694872B26B100004D061
:1051600029462046BDE87040104770BD30B5DFF8D5
:105170001041A36383B0DFF8643201932378009376
:1051800013460A460146DFF8F400FFF77DFB0500F1
:105190001FBFA0690028201DFFF76DFF28463EBDF8
:1051A00010B5DFF8DC2093692BB114690123237754
:1051B000002393611361526B130002D0BDE81040CD
:1051C000104710BD2DE9F042002405004ED0DFF855
:1051D000B0506E69002E1EBF06F1280797F804C074
:1051E000BCF1000F1DD0D5F810E0BEF1000F18D1B2
:1051F00001E00EF1010EE64513DAD7F8009019F838
:105200000E904845F5D14FF4AC7414FB00F42644DD
:10521000A6F584762E6130706E693444603CAC61D2
:1052200001246B63DFF8EC31FFF7A0FF060018BF25
:10523000012626421AD0286900F138018A7B32B94A
:105240000A680B7E521E0A600BB1521E0A6000F102
:1052500048016C223C30FFF7E3FE28693830817B3F
:1052600021B9012101730168491C0160F0B2BDE858
:10527000F0820B460A22DFF8A01177E73001002008
:10528000800000207047DFF8081210B50861002484
:10529000486900281CBF0A69002A16D000690B283B
:1052A0000DDA106A54620C23584310443C30886174
:1052B00001241078DFF8DC11FFF7DBFF09E00A2199
:1052C0000FF2D810FFF77AFE03E00FF2F810FFF7A5
:1052D00075FE204610BD2DE9F047DFF8B441626944
:1052E0000020002A76D051780FF2FC10012941F6F7
:1052F00068050FF228194FF4AC7841F6650723D002
:10530000022961D1916AD25D8E5C002E60D0314657
:105310004A1E5FFA82FAFFF751FE616918FB0AF034
:1053200001440A2281F8506000F06AF8616908704F
:1053300018B1C85D401CC8554AE0C8554846FFF73B
:105340003DFE0FF29C0036E0002100E0491CD155E3
:105350006269D15D02F118031E7DB14205D21E695A
:1053600093F800E0765C7645F0D1D25D93F800C00A
:105370001B7D9A42614604D30FF29C10FFF71EFE7C
:1053800010E0ACF10106FFF719FE61690A7EF6B282
:1053900018FB06F0014481F850200A2200F030F892
:1053A000616908706069017891B9C1554846FFF795
:1053B00005FE0FF2C010FFF701FE606941590800B9
:1053C00006D00120884703E00FF2D010FFF7F6FD6A
:1053D00060690078BDE8F087000000000551000812
:1053E000446F6E652077697468205A2D5761766521
:1053F000204E6574776F726B204865616C7468002D
:1054000061690A6106224A610844896CA03181669B
:10541000503038E7A1510008C40000200A00000005
:105420002DE9F0410D461A49DFF86C804969096A97
:105430000446012001F10806002700E07F1CAF426E
:1054400006DAE25D31464046FFF7EDF90100F5D19D
:10545000BDE8F0810020704710B50D494A6900246D
:1054600082B192F82C305BB141F66803D05041F61E
:105470006503D45449690C70FFF72DFF012405E042
:10548000147003E00FF24010FFF798FD204610BDA6
:10549000800000208552000830010020546573749C
:1054A000636F756E74206E6F742076616C69642E04
:1054B000204D696E20312C204D61782025752E0AF3
:1054C000000000004E6574776F726B204865616C58
:1054D0007468206E6F7420696E697469616C697A92
:1054E00065642E0A000000005374617274696E676F
:1054F000205A2D57617665204E6574776F726B2048
:105500004865616C746820666F72204E6F64652018
:105510002530337500000000436F756C64206E6F9A
:1055200074207374617274205A2D57617665204E11
:105530006574776F726B204865616C746820666F64
:1055400072204E6F64652025303375202D204E6FFC
:10555000742061206D656D626572206F66207468CD
:1055600065204E6F64657320556E646572205465C6
:1055700073740000436F756C64206E6F74207374D5
:10558000617274205A2D57617665204E6574776F6D
:10559000726B204865616C7468000000556E6B6E1C
:1055A0006F776E205A2D57617665204E6574776F40
:1055B000726B204865616C74682074657374206D2B
:1055C0006F646520256900004E6574776F726B20EB
:1055D0004865616C7468206E6F7420696E697469C7
:1055E000616C697A6564202D20757365204E657441
:1055F000776F726B4D616E6167656D656E745F4E3E
:105600006574776F726B4865616C74685F496E6929
:10561000740000000021842818BFC11C0846704790
:10562000EFF3058000B10120C0B2704780B501F0F2
:10563000E1F8002002BD3EB504460D46B4F908006D
:10564000FFF7E8FF02A9019100902B46226921682B
:10565000606892B200F0F4FF012801D000203EBD46
:1056600002983EBD80B500B9012001F0AFF80020DE
:1056700002BD00207047FF207047FF20704710B523
:1056800001290DD103220021012001F011FC0400A9
:1056900004D000230022002101F031FC204610BD7F
:1056A000002010BD38B50446002000900CB98020C1
:1056B00032BD002511F1010F08BF4FF0FF3500F09A
:1056C00016F838B100F00EF8012809D100F013F8EF
:1056D000002032BD2946204601F0E7FC0128F7D022
:1056E000FF2032BD6A460021204601F0A1BD01D055
:1056F00001B10D4694E7009838B11A494FF0805037
:105700000860BFF34F8FBFF36F8F704738B500F05D
:105710001BF860B16946204601F085FC012801D0E4
:10572000FF2032BD009838B100F012F804E000F01C
:1057300005F8012818BFFF25284632BD00230022A6
:105740000021204601F0DBBB00250446009567E7F9
:1057500004494FF080500860BFF34F8FBFF36F8F45
:105760007047000004ED00E02DE9F04F85B00446DD
:105770001E000D4690461CBF00203060A14601E08F
:1057800009F1010999F8000001F028FE0028F7D17D
:1057900099F800002D2816BF2B2819F8017B2B271C
:1057A000B8F1000F55D4B8F1010F52D0B8F1250F60
:1057B0004FDAB8F1010F0DDBB8F1100F04BF99F803
:1057C0000000302802BF99F8010040F0200078283E
:1057D00014D10EE099F80000302818BF4FF00A08E5
:1057E0000CD199F8010040F02000782804D14FF046
:1057F000100809F1020901E04FF00808CDF81090F7
:1058000001E009F1010999F800003028F9D00FF200
:10581000A00B4FF0000ACDF80C908DF808B00AE00C
:105820009DF80810CDF804A0401AC0B2009008FB03
:105830000A0A09F1010999F8000001F0D9FD0146B1
:105840004246584601F0DEFD0028E9D1049848455B
:1058500003D105B12C60002025E00FF27C010398F4
:1058600011F80810A9EB0000401A14D4012808DA36
:105870000098BAEB000004D30199B0FBF8F088421D
:1058800009D001F0EBFD222101600EB10120306052
:105890004FF0FF3A03E02D2F08BFCAF1000A0DB107
:1058A000C5F80090504605B0BDE8F08F00235BE7D7
:1058B0003031323334353637383961626364656686
:1058C0006768696A6B6C6D6E6F70717273747576F0
:1058D0007778797A0000000000002115110E0D0C78
:1058E0000B0B0A0A09090909090808080808080829
:1058F000070707070707070707070707070000004D
:10590000820707D010F8012B11F8013BBAB19A4277
:10591000F6D014E002680B689A42A2F1013301BF8D
:10592000934313F0803F50F8042F51F8043FF3D015
:1059300010F8012B11F8013B0AB19A42F8D0D01AA5
:10594000704700002DE9F84F02460023DFF8A481DC
:10595000DFF8A491DFF8A4A14FF00F0B01200C6831
:10596000984000EA040E864540F0B3804D689C00E4
:10597000022D18BF122D0FD1DD0802EB850C04F0AB
:105980001C05DCF820600BFA05F7BE430F6907FA27
:1059900005F53543CCF820504FEA430C0325166833
:1059A0000F7905FA0CF5ED4307F003072E4007FACF
:1059B0000CF73E4316604E68012E18BF022E03D02E
:1059C000112E18BF122E0FD19668CF682E4007FAFD
:1059D0000CF73E439660566826EA00004E68C6F310
:1059E00000169E4030435060D06828408D6805FA0C
:1059F0000CF52843D0604868C0006AD500200090AC
:105A000004F00C06DAF8000040F48040CAF8000008
:105A10000BFA06F4DAF8000000F4804000900098D9
:105A2000980859F8205025EA0404354DAA4208BFC9
:105A300000251DD0334DAA4208BF012518D0324D94
:105A4000AA4208BF022513D0304DAA4208BF032541
:105A50000ED02F4DAA4208BF042509D02D4DAA42D1
:105A600008BF052504D02C4DAA420CBF06250725EA
:105A7000B5402C4349F820406FEA0E00D8F80040AA
:105A800000EA040C4C68E40348BF4EEA0C0CC8F86A
:105A900000C0D8F8044000EA040C4C68A40348BFD6
:105AA0004EEA0C0CC8F804C0D8F8084000EA040C10
:105AB0004C68E40248BF4EEA0C0CC8F808C0D8F89D
:105AC0000C4020404C68A40248BF4EEA0000C8F8D1
:105AD0000C005B1C102BFFF441AFBDE8F18F02B945
