:020000040800F2
:1000000060050020D95200087150000873500008A4
:100010007550000877500008795000080000000073
:100020000000000000000000000000002D2F00086C
:100030007B50000800000000D52E00087D5000080D
:10004000FD52000801530008055300080953000839
:100050000D530008115300081553000819530008E8
:100060001D53000821530008255300082953000898
:100070002D53000831530008355300083953000848
:100080009F5000083D5300084153000845530008A5
:10009000495300084D5300085153000855530008B8
:1000A00059530008A55000085D530008615300082B
:1000B00065530008695300086D5300087153000828
:1000C00075530008795300087D53000881530008D8
:1000D00085530008AB500008B1500008D950000803
:1000E000895300088D530008915300089553000868
:1000F000995300089D530008A1530008A553000818
:10010000A9530008AD530008B1530008B5530008C7
:10011000DF500008E5500008B9530008BD5300083F
:10012000C1530008C5530008C9530008CD53000847
:10013000D15300080000000000000000D553000863
:10014000D9530008DD530008E1530008E5530008C7
:10015000E9530008ED530008F1530008EB50000884
:10016000F5530008F9530008FD5300080154000836
:1001700005540008095400080D5400080000000050
:100180000000000011540008000000000000000002
:100190001554000800000000000000001954000879
:1001A0000000000000000000000000001D540008D6
:1001B0002154000825540008295400082D54000833
:1001C000315400082DE9F04F82460FF25860A5B077
:1001D00015461E46D0E90023CDE9122303AF0020C7
:1001E0007960B8620DF1500900E045440020ADF897
:1001F000020012AB4FF0FF3229460DF1020001F070
:10020000AEF88046B8F1010F08DA2878B0F101089D
:1002100068EB08086FEA08004FEAD078BDF80200E2
:1002200025280CBFA8F1010BC346BBF1010F0EDB63
:100230002C4614F8011B7868D0470028786000F03D
:10024000F880B86A401CBBF1010BB862F1D1BDF86F
:100250000200252807D1002038617861B861F86173
:100260003862786205E00028BFD1B86AE2E240F067
:10027000010015F8011F2029F9D023290DD02B29C1
:1002800004D02D2906D030290AD00CE040F002001D
:1002900080B2EEE740F00400FAE740F00800F7E72C
:1002A00040F01000F4E72A290ED13168316051F88E
:1002B000042B3160002A3A6304D5514240F0040017
:1002C000396380B26D1C13E0002139630BE0396B98
:1002D0006FF00043994205D001EB810302EB43012B
:1002E000303939636D1C2A78A2F130010A29EED326
:1002F00029782E2903D04FF0FF31F9621FE015F85D
:10030000011F2A2907D1316831606D1C51F8042B77
:100310003160FA6213E00021F9620BE0F96A6FF0D4
:100320000043994205D001EB810302EB43013039D0
:10033000F9626D1C2A78A2F130010A29EED3B88641
:100340000FF2E840297801F01BF808B115F8010B0D
:100350008DF842009DF84200682802BF297868297C
:10036000622005D06C2804BF28786C2803D1712046
:100370008DF842006D1C14A8F86015F8014BB4F11B
:1003800025002AD01C3800F0DB80001F022840F234
:10039000D780133800F0FB80093800F0D180801E30
:1003A00000F06581401E00F03C81401E022840F2B2
:1003B000C780001F00F03581401F00F09280401E72
:1003C00000F0E580401E37D0C01E0BD0801E00F02C
:1003D000DE80C01E00F0DB806CE125208DF850002F
:1003E000012070E19DF842006C283068306016D022
:1003F00050F8048B3060C7F80880FC6A002C04D5E4
:10040000404600F0C9FF044607E02246002140466E
:1004100000F0DEFF08B1A0EB08047C6154E150F865
:10042000042B306002A9504600F03EFA002840F14B
:100430004B814FF0FF30FDE131683160002251F80F
:10044000040B31604FF03C0E0021CDE9020114A8ED
:10045000B860DDE902019142FC6808BF904201D119
:10046000FA6AC2B100F00F033033DBB23A2BA8BFF7
:100470002733AEF101020009A354964640EA017009
:1004800009090022914208BF904204D0BA6804EBE7
:100490000E039A42E6D304EB0E01B960CEF13C00A4
:1004A000F96A7861884207DA081AF8614FF6EF7145
:1004B000B88E0840B88607E1002940F1058197F819
:1004C000341001F01401102940F0FE80396B3A69B4
:1004D000891AFA69891A081A0128C0F2F580F861A8
:1004E000F2E09DF8420062281AD0682806D06A28F7
:1004F0000CD06C281CD0712808D019E0306830600E
:1005000050F8041B3060B86A0880DDE03068306065
:1005100050F8042B3060B86AC117C2E90001D3E07B
:100520003068306050F8041B3060B86A0870CBE067
:100530003068306050F8041B3060B86A0860C3E06F
:100540003068C01D20F007023260D2E90001083295
:100550003260CDE90201002902D538692D2109E078
:10056000B88E810702D538692B2103E0C00705D575
:100570003869202109F80010401C386114A8396935
:100580000844B860214602A800F09AFB9CE09DF860
:1005900042006C280DD0712818BF6A2809D1306834
:1005A000C01D20F007023260D2E90001083232603B
:1005B00005E03168316051F8040B31600021CDE96C
:1005C00002019DF84200682803D1DDE9020180B2F2
:1005D0000BE0622803D1DDE90201C0B205E0742816
:1005E00018BF7A2804D1DDE902010021CDE902011A
:1005F00097F83400000731D5DDE90223002083425B
:1006000008BF82422AD044F02000782826D13869D9
:10061000302109F80010401C411C396109F80040E4
:100620001CE09DF84200314600F007F9CDE90201D7
:10063000DDE9022300218B4202DA38692D2109E02D
:10064000B88E810702D538692B2103E0C00705D594
:100650003869202109F80010401C386114A8396954
:100660000844B860214602A800F0A4FA2CE09DF8E6
:1006700042006C2809D0012038613068306050F8A1
:10068000041B30608DF850101EE03068306001AA05
:1006900050F8041B3060ADF804100020ADF80600DF
:1006A00002A94FF0FF30F862504600F0FDF8002834
:1006B0000AD5BEE625208DF85000012038611CB116
:1006C00089F8014002203861386B3969401AF969AC
:1006D000401A7969401A396A401AB969401A796A28
:1006E000A0EB010897F83400400711D42020B8F19E
:1006F000010F8DF800000BDB444601236A4602A976
:10070000504600F007FE00287FF493AE641EF4D13B
:10071000D7F810B0BBF1000F14AC0DD014F8011BCA
:100720007868D047002878603FF483AEB86A401CF0
:10073000BBF1010BB862F1D130208DF80000FC69EB
:10074000012C0ADB01236A4602A9504600F0E2FDB3
:1007500000287FF46EAE641EF4D1D7F814B0BC68E4
:10076000BBF1000F0DD014F8011B7868D0470028AA
:1007700078603FF45EAEB86A401CBBF1010BB86212
:10078000F1D130208DF800003C6A012C0ADB0123F6
:100790006A4602A9504600F0BDFD00287FF449AE2C
:1007A000641EF4D1B8687969D7F818B04418BBF161
:1007B000000F0DD014F8011B7868D047002878602E
:1007C0003FF437AEB86A401CBBF1010BB862F1D1FF
:1007D00030208DF800007C6A012C0ADB01236A4678
:1007E00002A9504600F096FD00287FF422AE641E58
:1007F000F4D197F8340040077FF5F8AC2020B8F129
:10080000010F8DF80000FFF6F1AC01236A4602A942
:10081000504600F07FFD00287FF40BAEB8F10108D0
:10082000F3D1E3E40000000000000000686A6C748B
:100830007A4C000025B0BDE8F08F622826D06828E9
:100840001DD06A2808D06C2827D0712804D07428BD
:1008500023D07A280CD020E00868C01D20F00700C3
:100860000860D0E900230830086019461046704738
:100870000A680A6052F8040B0A60002170470A688F
:100880000A6052F8040B0A6000B20BE00A680A60C2
:1008900052F8040B0A6040B204E00A680A6052F899
:1008A000040B0A60C11770472DE9F44F0D4694B050
:1008B000D5F830A0BAF1000F804648BF6FF0004A6B
:1008C00000F0B2FD696B401801900FF67820D0E976
:1008D0000023CDE9022395F83800400702D401989F
:1008E000412805D240200DF110090190002609E0B1
:1008F00000F0A0FD5FEA0009F8D14FF0FF3056E1AB
:10090000AAEB040ABAF1010FC0F2CE801498018854
:1009100002AA0DF1010000F0E5FD0028044600F1F7
:10092000DE801498008810B9641E00F1D880A245BA
:10093000C0F2BA80686901992218914280F0A280C1
:100940006E634042296A401AA969401A696A401ACE
:10095000E969401AA96A461A95F83800400710D488
:100960002020012E8DF800000BDB374601236A465C
:100970002946404600F0CEFC002840F0B0807F1EA3
:10098000F4D1D5F814B0BBF1000F4F460DD017F8D5
:10099000011BA868C0470028A86000F0A080E86A92
:1009A000401CBBF1010BE862F1D130208DF8000052
:1009B0002F6A012F0ADB01236A462946404600F0D0
:1009C000A9FC002840F08B807F1EF4D1D5F818B028
:1009D000EF68BBF1000F0CD017F8011BA868C047E7
:1009E0000028A8607BD0E86A401CBBF1010BE862DC
:1009F000F2D130208DF800006F6A012F09DB01234E
:100A00006A462946404600F085FC002867D17F1ED3
:100A1000F5D1E868A969D5F81CB04718BBF1000FFB
:100A20000CD017F8011BA868C0470028A86056D052
:100A3000E86A401CBBF1010BE862F2D130208DF86E
:100A40000000AF6A012F09DB01236A4629464046B0
:100A500000F060FC002842D17F1EF5D195F83800E7
:100A600040070DD52020012E8DF8000008DB012362
:100A70006A462946404600F04DFC80BB761EF6D102
:100A800000266E61224668690DF10101484400F0BC
:100A900037FD6869201868611498801C1490801EC6
:100AA000008800287FF42CAF686B6969401A296AB6
:100AB000401AA969401A696A401AE969401AA96A84
:100AC000A0EB010A95F83800400710D4BAF1010FE5
:100AD0000DDB5446A8682021C047A86010B94FF02C
:100AE000FF365DE0E86A401C641EE862F2D16B6983
:100AF0004A462946404600F00DFC0028EFD12C6AFA
:100B0000012C0ADBA8683021C0470028A860E6D085
:100B1000E86A401C641EE862F4D1AB69EA682946C1
:100B2000404600F0F7FB0028D9D16C6A012C0ADBA3
:100B3000A8683021C0470028A860D0D0E86A401CCF
:100B4000641EE862F4D1E868A969EB694218294695
:100B5000404600F0DFFB0028C1D1AC6A012C0ADB63
:100B6000A8683021C0470028A860B8D0E86A401CB7
:100B7000641EE862F4D195F8380040070ED5BAF14A
:100B8000010F0BDBA8682021C0470028A860A6D071
:100B9000E86A401CBAF1010AE862F3D16E616E6343
:100BA00004A881451CBF484600F0E6FC304615B05D
:100BB000BDE8F08F2DE9F343054608462F696F28FD
:100BC00008BF082405D041F02001782914BF0A2469
:100BD00010243C26D5E90023642818BF69289046D4
:100BE000994606D100218B4203DAD8F1000869EB5F
:100BF00049090020814508BF80450CD1286B50B9B8
:100C0000082C38D195F83800000734D530203B2621
:100C100087F83B002FE0701E00900646404649468C
:100C20002246E31700F0E8FC02F13000C0B23A2897
:100C300003DB9DF8041051390818B8554946404661
:100C40002246E31700F0D8FC804689460020814503
:100C500008BF804503D0E868B9198842DBD3082C67
:100C600009D195F83800000705D5B85D302802D0C5
:100C7000761E3020B855B919E960C6F13C00296BE1
:100C8000A861884208DA081A28624FF6EF71288FA7
:100C900008402887BDE8F38300290ED595F8381061
:100CA00001F01401102908D1696B6A69891A2A6A4E
:100CB000891A0E1A012EA8BF2E62BDE8F383000028
:100CC0002DE9F24F04468EB0D4E90001CDE90201CE
:100CD00004AF9DF8380040F0200BBBF1610F0AD043
:100CE000206B002848BF062004D408BFBBF1670F63
:100CF00001D1012020636168C1F30A5040F2FF7204
:100D000090421CD1080304BF2068002809D10320A9
:100D1000A0619DF8380061381A2835D30FF2386188
:100D200008E00320A0619DF8380061381A2828D314
:100D30000FF21C61E068032200F0E2FBBDE1012834
:100D400015DA204600F0CFFC012810DB002500203A
:100D5000BBF1610F1FD1E16830220A708A1CE2608A
:100D60009DF83820612A0CBF782258220FE0626873
:100D700040F2FE3161F31E52451A62604FF0FF30BF
:100D8000E6E70FF2C851D5E70FF2C851D2E74A7033
:100D90006169891C616110B90026002584E1BBF1FD
:100DA000610F40F09880206BD4E900AB00284CBF65
:100DB0002126461CDDE902010022002300F0B6FCDA
:100DC00036B23ABF8BF00040CDE902A0CDE902ABCC
:100DD00006F101082D1FB8F1010F8DF810200DF15B
:100DE000110736DBDDE902010022002300F0B6FC2A
:100DF0002FD21C2102A800F0C9FCDDE9020100F09D
:100E00004FFDA8F10708B8F1010F814609DB00F09A
:100E100073FD02460B46DDE9020100F085FDCDE9D8
:100E20000201F81D072105E009F00F0200F8012D6D
:100E30004FEA2919B9F1010F01DB491EF4D5491E0A
:100E40005CBF002200F8012DF9D5C71DB8F1010FD4
:100E5000C8DA0DF11100391AB142B8BF0E4636B2E8
:100E600030000DF111072FD4884206DA04A901449D
:100E700049780829A8BF0F2100DA002104AA0244FA
:100E800000E0761E12F80139401E8B42F9D00F297E
:100E900004D104A901444A78521C4A70002802D5A2
:100EA00004AF761C2D1D36B2701E0DD439180A7889
:100EB0003032D2B23A2A03DB9DF838303A3B9A18E6
:100EC000401E01F80129F2D5206B002840F1EC808A
:100ED000701E2063E8E0DDE902010022002300F03B
:100EE00025FC3CBF81F00041CDE902012DB247F263
:100EF000975068434B49DFF8309190FBF1F52DB2E4
:100F0000C5F1070ABAF1010F90461CDBDDE9026763
:100F10005FEACA7007D542464B463046394600F074
:100F2000C3FD06460F464046494642464B464FEAF9
:100F30006A0A00F0B9FDBAF1000F80468946E7D190
:100F4000CDE9026724E0CAF1000A0026374F14E019
:100F50005FEACA7007D542464B463046394600F034
:100F6000A3FD06460F464046494642464B4600F022
:100F70009BFD4FEA6A0A80468946BAF1000FE7D125
:100F8000DDE9020132463B4600F060FECDE9020198
:100F9000BBF1660F216BDFF898900CBF05F10A00DA
:100FA00006204618142EA8BF132630208DF81000F6
:100FB0000DF11107012E3DDBDDE9020100F086FC99
:100FC00007F1080104220A23B0FBF3F303EB8307C4
:100FD000A0EB4700303001F8010C0A20B3FBF0F021
:100FE00000EB8007A3EB47033033521E01F8023DAC
:100FF000E9D1083E012E01F10807DBDBDDE9020142
:1010000000F064FC00F082FC02460B46DDE90201C0
:1010100000F08AFC00224B4600F046FDCDE90201BB
:10102000CAE700BFA0860100000024400000F03F96
:1010300084D797410DF11100381A0DF1110702E024
:10104000401E6D1E7F1C39783029F9D0BBF1660F28
:1010500008BF691C04D0BBF1650F0CBF0121002142
:10106000226B8E1836B2B042B8BF064636B2310097
:101070001AD4814204DA785C3528A8BF392000DA16
:1010800030207A18521E00E0761E12F80139491EEF
:101090008342F9D0392802D1785C401C7854002969
:1010A00002D57F1E761C6D1C2DB29DF83810009560
:1010B00033B23A46204600F003F80FB0BDE8F08F97
:1010C0002DE9F04786B006468A4690461D4600F058
:1010D00006FF012D406A376B90F8009002DA012577
:1010E0000FF278284AF02000BDF93840662808BF82
:1010F000641C12D0672878D114F1040F7BDBBC424A
:1011000079DA96F83800641C000702D4BD42B8BFF3
:101110002F4624B23F1B48BF002724B2F068B169B4
:10112000012C23DA4A1C30234354012F03DA96F8AA
:101130003800000703D5F06800F80290521CE7421F
:10114000B8BF7C4224B260427062E719AF42B2611C
:10115000B8BF3D46F068B3692DB2F5612A464146F5
:10116000184400F0CDF9781BB062BCE022469542ED
:10117000084416DA2A46414600F0C2F9B1696918F6
:10118000601B012FB161706203DA96F83800000726
:1011900005D5F06800F80190F069401CF061B76275
:1011A000A1E0414600F0ACF9B06920182D1B012FD9
:1011B00003DA96F83810090703D5F16801F80090B2
:1011C000401CB0612DB2AF42B8BF3D46F068B36974
:1011D0002DB22A4608EB0401184400F091F9B069D9
:1011E0002818B061781B70627DE0BAF1610F14D1EC
:1011F0004FF0700A16E0BD4204DA96F8381009077D
:1012000058BF2F467F1E48BF0027BAF1670F14BF93
:101210004FF0450A4FF0650A04E0BAF1410F08BFEC
:101220004FF0500AB169F368481CB061012F18F8FB
:10123000012B5A5403DA96F83810090717D5F168CC
:10124000431CB36101F80090012F10DB6D1E2DB21D
:10125000AF42B8BF3D46F0682DB22A464146184419
:1012600000F04EF9B0692818B061781B7062F06820
:10127000B1690144200081F800A004D42B204870FB
:1012800001F1020804E02D224A7001F102086442D3
:10129000002502AF08E00A22684600F039FE0198F6
:1012A00007F8010B6D1C009C21B20129F3DA022D15
:1012B00006DA4AF02000652804BF302008F8010B48
:1012C0004DB9302008F8010B07E06D1E02A8405D03
:1012D000303008F8010B012DF7DAF068B1690844E5
:1012E000A8EB0000F06196F8380000F01400102818
:1012F0000DD17069B1690818716A0818F169081888
:10130000B16A0818716B8842BCBF081A306206B017
:10131000BDE8F087F8B504460D4616461F46002086
:1013200077B116F8011BA868A047A86030B1E86A39
:10133000401CE86200207F1EF3D1F2BD4FF0FF3069
:10134000F2BD000000000000000000006E616E00B1
:101350004E414E00696E6600494E46003000F8B5B9
:1013600004460D4616461F4600F0DAFD3B4632465F
:101370002946204601B0BDE8F04000F0E8BD00007D
:101380000278C9B28A421AB11CBF10F8012FF9E7DE
:1013900018BF00207047000000F10103810704D04E
:1013A00010F8011B89B18107FAD10268B2F101314D
:1013B000914311F0803F04BF50F8042FF6E710F876
:1013C000011B11B110F8011BFBE7C01A70470000A8
:1013D000C9B2830706D0521E22D310F8013B9942AE
:1013E000F7D11FE0083A13D302F1040241EA0121C8
:1013F00041EA014150F8043B121F21BF4B40A3F1C9
:10140000013C2CEA030C1CF0803FF3D0C9B2001F52
:10141000083210F8013B521E28BF91EA030FF8D89A
:1014200018BF0120401E704780B500F079FD0120F3
:1014300002BD000070B5054605F10F00C408AFF30A
:101440000080E400A54232D2082C04D2082402E035
:10145000083000F091F82248026811000CD1011DFB
:101460000A6802B31368A34238BF111DF8D310E015
:101470001D68A5420DD2191D0B68002BF8D112680A
:10148000011D00E0191D0B6893420CD01D68A54298
:10149000F8D361B10D682A68A2F10803A3420AD209
:1014A0006A680A600FE000F075FD0028D0D1AFF344
:1014B0000080002070BD2B190B60121B6E685E60EF
:1014C0000B681A602C60096800291DBF4A68002A51
:1014D000091D00210160AFF3008005F1080070BD17
:1014E000B86D002070B504460D46164600F018FD94
:1014F000324629462046BDE8704000F01BBD000082
:1015000062B38B0708D0521E11F8013B00F8013B73
:1015100000F024808B07F6D1830740F0208000BFC5
:10152000103A07D330B4B1E83810103AA0E83810B8
:10153000F9D230BC530724BFB1E80810A0E8081066
:1015400044BF51F8043B40F8043BD20724BF31F8B4
:10155000022B20F8022B44BF0B7803707047083A27
:1015600007D3B1E80810083A40F8043B40F804CB30
:10157000F7D25307E4E7000000B9704738B5A0F18F
:1015800008042068082833D310F0070F30D1AFF3D8
:1015900000801848416809B18C4203D26160446000
:1015A00017E019464B680BB1A342FAD30B68CD186C
:1015B000AC421BD3A54204D12268D2180A600C4663
:1015C00007E04A681AB1236823449A420ED3626046
:1015D0004C60616851B12268A3188B4206D1002388
:1015E000036008688018206048686060AFF300807E
:1015F00031BD0000B86D00201B4213D1094236D125
:101600002AB18446B0FBF2F002FB10C2704700F032
:10161000D7BCFCD30022002370470B00020000213E
:1016200000207047904271EB030CF6D370B5B1FA0D
:1016300081F4B3FA83F52C1BA340C4F1200532FAE0
:1016400005F63343A2405FF00046E64002E05B0847
:101650005FEA3202841A71EB030524BF2046294653
:101660007641F4D302000B003000002170BD012A46
:10167000CFD970B5140C20D0B1FA81F4B2FA82F54A
:10168000C4F120046419B4F12006D6D3B2405FF04F
:101690000044F440002502E052085FEA3303C61A12
:1016A00071EB020E24BF3046714664416D41F3D3A5
:1016B00002000B002000290070BD0C46B1FBF2F1C6
:1016C00002FB11452D0445EA1045B5FBF2F402FB7F
:1016D000145580B240EA0545B5FBF2F002FB10520A
:1016E00040EA044070BD30B4436803F00042012179
:1016F000C3F313034360002B04BF0368002B08D11E
:101700000DE00368DD0F45EA440444605B000360BC
:10171000491E4468E302F4D5C4F3130343604368ED
:101720001A434260084630BC704700004FF4001C6A
:101730001CEB410F94BF1CEB430F09E041EA030C83
:1017400050EA4C0C52EA0C0C03D2994208BF90426A
:10175000704714BF8B428242704700004FF4001C58
:101760001CEB410F94BF1CEB430F09E041EA030C53
:1017700050EA4C0C52EA0C0C03D28B4208BF824256
:10178000704714BF994290427047000070B50446FC
:101790000D466068C0F30A5040F2FF71884207D1DD
:1017A0006068000304BF2068002817D0022070BDC5
:1017B00020B92046FFF797FF012866DA012D0FDBDD
:1017C00040F2FF71091A8D420AD3606800284CBFAD
:1017D0009FED2F0B9FED300B84ED000B012070BDB2
:1017E0004142A942616806DA6FF31E51401941EA8D
:1017F0000050606040E0401E63684519012205F119
:10180000350062F31F53352801F00041636003D3B4
:1018100061600020206070BD002015F11F0F04DA08
:10182000206823600022203562606A4212D0401E88
:1018300025688041C2F12003C0439D4045EAD07035
:1018400025686668D54006FA03F32B432360636876
:10185000D340636062680A43B0F1004F626003D80E
:101860000DD12078C0070AD52068401C2060206870
:1018700028B96068401C60604FF0FF3070BD606840
:10188000884204BF20680028F6D1002070BD00BF48
:10189000000000000000F0FF000000000000F07FEA
:1018A000F446400D40EAC120490006D200F014F889
:1018B000004248BF6FF00040604700F00DF84FF065
:1018C000004188428CBF084640426047400D40EAD4
:1018D000C120490080F00D8040F00040490DA1F585
:1018E0008061491C05D4D1F11F0154BFC840C01705
:1018F00070474FF000007047010040F10980F44646
:10190000404200F005F851F000416047010000BF7F
:1019100009D0B0FA80F18840C91CC1F5846109057D
:1019200001EBD02140057047F0B44FF0004591EA3B
:10193000030F44BF6B4000F045BB00BF841A71EB3E
:10194000030604D26E40001BB141121973414FF4DB
:10195000001C1CEB410F34BF7CEB430684E00C0DF4
:10196000A4EB1356362E7DDC012E43DC45EAC3235F
:1019700043EA525312BFD20292025B08240545EAA1
:10198000C12141EA5051D2EBC020994125D407D161
:10199000B0FA80F610FA06F164D00020203608E094
:1019A000B1FA81F6B140C6F1200220FA02F21143E9
:1019B000B0404FEAF474B4EB465434F001064FEAF9
:1019C00074040AD8D6F50016760D04F00044F040F1
:1019D00061FA06F25040F1404840C00A40EA4150E6
:1019E00021F0004128BF5FEA500550F1000044EBB0
:1019F000D12137E045EAC323DB0A45EAC121C90A00
:101A0000B6F120050EDD42EA0242120CC5F12006B5
:101A100003FA06F6EB4042EA06056D42984161F191
:101A200000010DE062FA06F5F240554063FA06FC4B
:101A300082EA0C02F3405A406D42904161EB03018F
:101A400011F4801F05D1641E620502D06D00404173
:101A5000494121F48011430875F1004350F1000021
:101A600041EB0451F0BC70471CEB410F15D223F041
:101A7000004352EA43060BD04FEA4C0CBCEB410F3B
:101A800004D80C0D661E342EB7DDEBE7801A9941A1
:101A900050EA410608BF0021E4E708BF1CEB430FF2
:101AA00028BF6FF00001DDE7B0B581EA030C0CF050
:101AB000004C40F2FF7515EA11541DBF15EA13578B
:101AC000AC42AF4239E0E41923EA455343F48013B2
:101AD000C90241F0004141EA505EC7021100A7FB74
:101AE000020200284FF00000EEFB01204FF0000141
:101AF000E3FB072118BF42F00102401800214941D1
:101B0000E3FB0E01A4F580640F0302D252004041B2
:101B1000494154F101046CDD470872F1004250F173
:101B2000000051EB0451A1F580115CBF41EA0C01AA
:101B3000B0BD4CEA05510020B0BD05EA1357AC42D8
:101B400014BFAF4241E050EA410E1CBF52EA430EBF
:101B500002E061460020B0BD24423C441BD15FEA54
:101B6000070EF6D0090302BF01460020AEF1140EA5
:101B7000B1FA81F7AEEB070401FA07FE0C37C7F1A3
:101B8000200100FA07F7C8404EEA000E23EA455349
:101B900043F48013A2E733F00043B3FA83F704BFA2
:101BA000B2FA82FE77440B3FE41BB7F1200E2FBF41
:101BB00002FA0EF3BB40C7F1200E22FA0EFE38BF28
:101BC00043EA0E03BA40641C82E750EA410E14BF98
:101BD00052EA430E6FF000014FF4001717EB430F6A
:101BE0008ABF194617EB410FB5E74CEA05510020B3
:101BF000B0BDD4F10104B4F120070FDAC4F120071D
:101C0000520828BF42F0010210FA07F501FA07F75F
:101C1000E1BF2A43E0403843E1400FE0352C98DC37
:101C2000C7F1200452EA400220FA07F218BF42F03E
:101C3000010231FA07F0A1400A43002172F100428B
:101C400050F1000051EB0C01B0BD00002DE9F04156
:101C500040F2FF7581EA030C0CF0004C15EA1154B8
:101C60001DBF15EA1357AC42AF42E9E0BC41C1F3D6
:101C70001301C3F31303801A994143F4801304D270
:101C8000641E4000494180185941C90241EA50513F
:101C9000B1FBF3F603FB1611A2FB0675D7EBC020D0
:101CA000A94102D2761E80185941C90241EA505119
:101CB000B1FBF3FE03FB1E11A2FB0E75D7EBC02098
:101CC000A94103D2AEF1010E80185941890241EABF
:101CD0009051760546EA8E2EB1FBF3F603FB161102
:101CE000A2FB0675D7EB8020A94102D2761E801890
:101CF0005941C90241EA50514EEA060EB1FBF3F6D2
:101D000003FB1611A2FB0675D7EBC020A94102D236
:101D1000761E80185941C90241EA5051B1FBF3F7D0
:101D200003FB1711A2FB0735D3EBC020A94167F1D4
:101D300000070CBF004247F0010766F3D5274FEAC2
:101D40001E31B80814F5806414DDBD0775F100423A
:101D500050EB0E5051EB045111F5801F5CBF41EA6E
:101D60000C01BDE8F0814CF07F6141F0E0410020C2
:101D7000BDE8F081BD076D0840EA0E5041F48011C6
:101D8000D4F10104B4F120060ADAC4F120060200FD
:101D9000E04001FA06F3E1401843B24015430EE07B
:101DA000342C14DCC6F1200445EA40056D0820FA05
:101DB00006F2154321FA06F0A1400D43002175F10A
:101DC000004250F1000051EB0C01BDE8F081002011
:101DD0005FEA0C01BDE8F081CFB992185B41B3FA1C
:101DE00083F704BFB2FA82F6BF190B3FB7F12006A2
:101DF0002FBF02FA06F3BB40C7F1200622FA06F60F
:101E000038BF3343BA401CB1E419641E2FE77F4248
:101E100031F00041B1FA81F404BFB0FA80F6A419A0
:101E20000B3CB4F120062FBF00FA06F1A140C4F12B
:101E3000200620FA06F638BF3143A0403C1B16E7C7
:101E4000AC421ABF05EA1357AF4214E050EA41060C
:101E50001CBF52EA4306BFE750EA410730466146DD
:101E60001CBF41EA0551BDE8F08152EA430C08BFAE
:101E7000C143BDE8F08100204FF4001616EB410F7E
:101E800098BF16EB430F08BF16EB410F24BFC143A9
:101E900005E016EB430F0CBF61464CEA0551BDE867
:101EA000F081000080B5134800F0F6F80FF24C0204
:101EB0000FF244010160426241600FF2440282630A
:101EC00081600FF24402C160016141618161816200
:101ED000C16201634163C2630164416401BD10B525
:101EE000044800F0D9F80446206808B9FFF7DAFF83
:101EF000204610BD64000020000000002E000000FD
:101F000066616C7365000000747275650000000006
:101F100091FBF2F303FB1211C0E90031704700009E
:101F200080B5DFF80C0000F0B7F8806902BD000052
:101F3000F400002030B430B90FF24800D0E9004579
:101F4000C2E900451BE00170012030BC704730B48D
:101F500031B90FF23800D0E90045C3E900450EE081
:101F60001AB930BC6FF00100704708B10A780280DE
:101F70000978481E804130BCC043C00F7047002024
:101F800030BC7047000000000000000000000000AE
:101F9000000000000749086808B1002070470648A3
:101FA000C008C00008600549C908C900091A0160D5
:101FB000704700BFC06D002067050020600D002045
:101FC00070470000841A71EB030603D2001BB14175
:101FD000121973414FF4001C1CEB410F34BF7CEB12
:101FE000430443E00C0DA4EB1356352E50DC45EAB8
:101FF000C323DB0A45EAC121C912B6F120050DDD74
:1020000063FA05F6EB4086EA0305124218BF45F075
:102010000105C01851F100010CD213E062FA06F577
:10202000F2405540F3415A40B340F3405A408018C3
:10203000594107D349085FEA30005FEA350528BFF8
:1020400045F0010501F58011420875F1004250F19B
:10205000000041EB0451F0BC4FF4001C1CEB410F9D
:1020600038BF70470020090D090570471CEB410F70
:1020700010D252EA43060BD0BCEB410F05D80C0D31
:10208000AB43661E342EB5DD02E0AB4380185941E8
:10209000F0BC7047F0BC7047704700002DE9F0437A
:1020A0000446154685B088469946A80000F03AFBDC
:1020B00006001AD04C2000F035FB070012D03E631A
:1020C0000020039002974B460D9801902A460C98E9
:1020D00000904146204600F00DF8384600F04BF8DD
:1020E000012004E0304600F0A2FB4FF0FF3005B0C5
:1020F000BDE8F0832DE9F041089C05460F461646E1
:10210000206B9846A522B10000F0E0FB206B00EBAD
:102110008600001FC608F60006F00700395C22188A
:1021200082F83410395C11B1401C1028F6D300201D
:1021300084F84300069F072F28BF0627E762201D6B
:1021400000F0EEFB04F1180000F0EAFBC7F1070015
:10215000A061246104F14400646200210160017106
:1021600042462946304600F017FC2060079800B12F
:102170000460BDE8F0812DE9F041044600F087FCE1
:10218000DFF81C55DFF88885E86C401CE8641426ED
:10219000A86A28BBAC62E86C012827D1002706FB9F
:1021A00007F0404400F0AFFB7F1C072FF7D305F189
:1021B000740000F0A8FB05F18807384600F0A3FB87
:1021C000284600F0A0FB05F1140000F09CFB05F18F
:1021D000380000F098FB05F17400E8622F6305E019
:1021E000A86D18B900F01AF828BFAC62A86E401CA0
:1021F000A8660122E06A696D8240114369657043F7
:10220000211D404400F08FFB00F05AFCA86D18B16E
:10221000A86AE16A00F027FABDE8F081E06AA96ADD
:10222000C96A88427047616D012202FA00F021EA12
:1022300000006065704710B504000DD0DFF8D404CD
:10224000006F00F0F6F800F043F80021204600F09F
:102250002FFA00F043F808B900F001F810BDDFF8DC
:10226000B8144FF080500860BFF34F8FBFF36F8FEB
:1022700070471CB5DFF89C440FF2A04104F19C00AC
:10228000019000230020009080220FF26130FFF7C0
:1022900005FF012808BF00F083FC502101280FD161
:1022A00081F3118800F0F2F94FF0FF30E066012071
:1022B000A06500202065BDE8134000F095BB13BD6C
:1022C00010F1010FFBD181F3118800F0DFF9FEE777
:1022D000DFF84004016F491C0167704770B500F0DA
:1022E00047F90026002400F042F800F0D0FB286FE8
:1022F000401E2867286F002831D1E86CA8B92EE06D
:10230000E868C66800F02FF8301D00F031FB00F0DF
:10231000C9F900F0C0F9311D104400F004FBF06A67
:10232000FFF77DFF24BF0120286628680028E7D139
:102330000EB100F07EF9EE6D3EB100F026F808B166
:1023400001202866761EF8D1EC65286E38B1DFF8DA
:10235000C8134FF080500124086000F097F900F096
:10236000AFFB204670BD06F1180000F001BB38B984
:10237000502080F31188BFF34F8FBFF36F8FFEE7BC
:102380007047DFF89003006D70472DE9F84300F0C7
:10239000EFF80024002843D1286D10F10109C5F899
:1023A00050900CD1E86A006800F043F8E86A296BA5
:1023B000E9622863686E401C686600F03AF9E86ECE
:1023C000DFF84C831427814521D313E0301D00F042
:1023D000CFFAB06A08B1FFF7C6FF00F063F969658C
:1023E0007843311D404400F09EFAF06AFFF717FF72
:1023F00028BF0124E86A006810B94FF0FF3005E0FB
:10240000E86AC068C66870688145DFD2E866A86A75
:10241000C06A784358F80000022804D3012402E07F
:10242000E86D401CE865286E00B101242046BDE837
:10243000F28338B1502080F31188BFF34F8FBFF380
:102440006F8FFEE7704710B5DFF85442206F10B170
:102450000120206610BD2066A06A006B0168B1F102
:10246000A53F04BF4168B1F1A53F07D18168B1F133
:10247000A53F04BFC068B0F1A53F05D0A06A00F138
:102480003401A06A00F00EFD606DB0FA80F0C0F17A
:102490001F0014214843DFF878120A5812B900F0DF
:1024A000F2F8FEE7084400F108024168496841601B
:1024B000914204BF496841604068C068A06210BD95
:1024C00010B50C4600F017F800F039FA2046BDE8C8
:1024D0001040FFE70121EBE038B50C46154600F04F
:1024E0000AF800F020FA0DB14FF0FF3429462046DB
:1024F000BDE83440DCE038B9502080F31188BFF3E8
:102500004F8FBFF36F8FFEE7DFF80812896A18312B
:10251000704738B5C068C46814B900F0B4F8FEE775
:1025200004F1180000F024FA00F022F820B900F0BD
:10253000A6F800F010F802E004F11801284600F0B7
:10254000F2F9A86AE16AC06A884202D201202866CC
:1025500032BD002032BDE06A696D01228240114324
:1025600069651423DFF8A8215843211D10447047E2
:10257000DFF8A051286F7047DFF898114A6E0260AB
:10258000096D41607047F8B504460D46502014B9F6
:1025900000F07AF8FEE715B900F076F8FEE700F0F3
:1025A00076FADFF87001016D62682E688B1A16F1F9
:1025B000010F0CD0406E2768B84201D091420AD278
:1025C000B34206D2F01A28602046FFF7D5FF002458
:1025D00002E000202860012400F072FA2046F2BDDB
:1025E000DFF83011012008667047000038B5DFF8C9
:1025F0002441606B0028FCD000F049FA206AC568CD
:10260000281D00F0B5F9E06C401EE064606B401ED0
:10261000606300F055FA284600F001F8E9E710B5CC
:102620000446206B00F003F92046BDE8104000F09E
:10263000FEB8DFF8E000C16A096811B94FF0FF3158
:1026400003E0C16AC968C9684968C1667047DFF8B4
:10265000C400816D09B901207047006F08B90220DC
:10266000704700207047C06A884207D22A494FF05D
:1026700080500860BFF34F8FBFF36F8F7047201DEE
:1026800000F076B90000502080F31188BFF34F8F1F
:10269000BFF36F8F7047696514231D4A5843704715
:1026A000E06A0020F06A696D0122824011437047A0
:1026B000F8B5184C256D0646A06A0F46001D00F0BF
:1026C00057F920B9A06A616DC06AFFF7ADFD16F138
:1026D000010F08D13FB1A06A011D04F13800BDE827
:1026E000F44000F020B9A06A76194660AE42A06AB4
:1026F00005D2011D206BBDE8F44000F020B9011D9A
:10270000E06A00F01CF9E06E864238BFE666F1BD73
:10271000806B0020E06A002004ED00E049444C4555
:10272000000000002DE9F8430446FFF7D1FD664F95
:10273000B8680025A94608BB07F1180307F118027D
:1027400013F007034FF4B841104605D0D01DC00860
:10275000C000C0F5B841511809180839C908C900A6
:1027600038607D60B9604D600D600A1A426001609A
:1027700040683861F8604FF0004078614FF05008D1
:102780007869044241D1002C3FD0083414F0070F7F
:102790001FBF04F1080004F00701441A14F0070FEA
:1027A00000F03CF88CB3F868A0422ED33E6838465F
:1027B00001E030460E467168A14202D2316800291C
:1027C000F7D1B9688E4220D0016801F1080531685F
:1027D00001607068011B112908D3301910F007023D
:1027E00000F01CF84160746000F04AF87068F96805
:1027F0003A69091AF960914238BF39617969084329
:102800007060C6F8009005F00709FFF767FDB9F1A1
:10281000000F00F003F82846BDE8F28306D088F3E5
:102820001188BFF34F8FBFF36F8FFEE7704738B546
:10283000F0B1A0F10804244D606869695022084293
:1028400002D100F016F8FEE7236813B100F011F88A
:10285000FEE788436060FFF73BFDE86861680818A1
:10286000E860204600F00CF8BDE83140FFF736BDC7
:1028700031BD82F31188BFF34F8FBFF36F8F704765
:1028800030B511490A4600E01A4613688342FBD36B
:102890005368D418844203D14068C0185060104671
:1028A00043681468C518A54208D189688C4204D0D1
:1028B0006168C9184160246800E00C4604608242E7
:1028C00018BF106030BD0000600D002062F30F22C1
:1028D00062F31F4200B500BF1300964694461039BC
:1028E00028BFA0E80C50FAD85FEA417C28BF0CC092
:1028F00048BF40F8042BC90728BF20F8022B48BF67
:1029000000F8012B00BD00F1080141604FF0FF31DC
:10291000816000F10801C160016100210160704720
:1029200000210161704742684A6093688B60936838
:102930005960916008610168491C0160704730B5B9
:102940000A6812F1010F08BF036907D000F10803FC
:1029500000E023465C682568AA42FAD25A684A60B9
:1029600091608B60596008610168491C016030BD4D
:102970004368016982689A60836842685A604A685D
:10298000824204BF82684A60002202610868401ED9
:1029900008600868704700004908490010B5A0F1B8
:1029A00020034FF080749961DC611A600FF211010D
:1029B00059616FF0020140F8241D203810BD00005D
:1029C00064494968502011F1010F06D080F3118845
:1029D000BFF34F8FBFF36F8FFEE780F31188BFF314
:1029E0004F8FBFF36F8FFEE730B55B495B4B83B012
:1029F0000A6850209A4202D100F083F8FEE70A6884
:102A0000574B9A4202D100F07CF8FEE7554A514CF0
:102A100013780193FF23137013788DF800309DF81D
:102A2000003003F0500323700723A36006E05B1E11
:102A3000A3609DF800305B008DF80030A3689DF81E
:102A400000502D06F3D4C3F10705042D02D000F089
:102A500058F8FEE7180200F4E060A06001981070DA
:102A6000086A40F470000862086A40F0704008622A
:102A700000F082F80020606000F076FA3A480168C1
:102A800041F04041016000F05FFA00203EBD50205F
:102A900080F31188BFF34F8FBFF36F8F2D494A68C2
:102AA000521C012A4A600AD130490968090606D039
:102AB00080F31188BFF34F8FBFF36F8FFEE770472E
:102AC0002448416839B9502080F31188BFF34F8FF3
:102AD000BFF36F8FFEE7491E416004BF002080F303
:102AE0001188704780B5502000F00BF8FFF74DFCBF
:102AF00018B11E494FF080500860002080F3118803
:102B000001BD80F31188BFF34F8FBFF36F8F704704
:102B1000EFF30580502110280E4A0BD3144B185C9C
:102B20001378984206D281F31188BFF34F8FBFF319
:102B30006F8FFEE790680F4A126802F4E0629042DD
:102B400006D281F31188BFF34F8FBFF36F8FFEE77B
:102B5000704700000800002000ED00E071C20F4146
:102B600070C20F4100E400E034EF00E004ED00E04B
:102B7000F0E300E00CED00E0074800210160816017
:102B80004FF47A7205490968B1FBF2F1491E4160C0
:102B900007210160704700BF10E000E02000002026
:102BA00000B583B000F04FF9DFF8E002816869B149
:102BB0000C3001900023022000904FF480720FF23D
:102BC000D4210FF26100FFF769FA10B900F0C5F8DF
:102BD000FEE70EBD70B51D4684B00446002314B94F
:102BE00000F0BBF8FEE7A94EB068C0B1062900911D
:102BF000019202940EDAFFF72AFD022803D1089A07
:102C0000B068002302E0B06800230022694600F0AB
:102C10001CFA03E02A46694600F0A6FA0346184665
:102C200004B070BD80B506E0C0680068002100F007
:102C30000AF800F0B5F89548006801680029F3D15A
:102C400001210020F3E7F0B583B004460E46FFF7FC
:102C50003FFB01A800F044F80546019800283CD14C
:102C60008A4F26BBA54227D3FFF738FB3868C068D8
:102C7000C668301DFFF77CFEF069012813D1B069EA
:102C8000011923462A46304600F06FF858B100205B
:102C900000900023224600213046FFF79BFF10B929
:102CA00000F05BF8FEE7716A30468847F7BD786848
:102CB0000068461EB641F60FB8683246611B00F048
:102CC000DBFBFFF70BFB50B971494FF080500860F8
:102CD000BFF34F8FBFF36F8FF7BDFFF7FFFAF7BD5D
:102CE0002DE9F04182B00446FFF74BFB674E0546E5
:102CF000306985420BD30020206035612846BDE84D
:102D0000F68178603F61391D3068FFF718FE306842
:102D10000168E9B1C068D0F80080C768381DFFF7C6
:102D200027FE796A38468847F8690128EFD1B869E3
:102D300040448045E5D30020009000234246002116
:102D40003846FFF747FF0028E1D100F006F8FEE71C
:102D50007168706031600120CEE7502080F31188E7
:102D6000BFF34F8FBFF36F8F704738B500248A428F
:102D700041600061454D06D3D11A8269914206D265
:102D8000011D686807E09A4203D2994201D30124E9
:102D900003E0011D2868FFF7D2FD204632BD000088
:102DA00010B586B004E0811813462046FFF7DDFF1A
:102DB00036488068002201A900F028FA002840D097
:102DC00001980028F4D4039C606910B1201DFFF71E
:102DD000CFFD04A8FFF784FF024601980928E7D831
:102DE000DFE800F006060605242B06060524DFE7CB
:102DF0000298A169034609182046FFF7B6FF00288C
:102E0000D6D0616A20468847E0690128D0D10020E9
:102E1000009000230298A1690A1800212046FFF7BC
:102E2000D9FE0028C4D1FFF798FFFEE70298A06101
:102E30000028B8D1FFF791FFFEE72046FFF7F7FC27
:102E4000B6E706B010BD10B5FFF721FE0F4CA06825
:102E5000C0B904F11400FFF756FD04F12800FFF794
:102E600052FD04F114002060002204F1280060608B
:102E70000C210A2000F0C2F8A06018B10FF21C016A
:102E800000F0E6FABDE81040FFF71ABE7C6D0020A6
:102E900004ED00E0546D722053766300546D72515E
:102EA0000000000080B50A4601460FF20C0000F059
:102EB00007FB00BE01BD00004672656552544F53CA
:102EC0003A4552524F525B25785D282573290D0AE9
:102ED00000000000EFF30980BFF36F8F264B1A68E4
:102EE0001EF0100F08BF20ED108A20E9F04F10608F
:102EF00009B44FF0500080F31188BFF34F8FBFF338
:102F00006F8FFFF7A0FA4FF0000080F3118809BC23
:102F100019680868B0E8F04F1EF0100F08BFB0EC59
:102F2000108A80F30988BFF36F8F7047124B1968BE
:102F30000868B0E8F04F80F30988BFF36F8F4FF057
:102F4000000080F3118870470C480068006880F327
:102F500008884FF0000080F3148862B661B6BFF3B2
:102F60004F8FBFF36F8F00DFDFF81400016841F46B
:102F70007001016070470000086B002008ED00E060
:102F800088ED00E038B504000D4602D100F0DBF911
:102F9000FEE7FFF77CFDE16B226C2068514308449B
:102FA00060600020A0632068E16B226CA060491E75
:102FB000206851430844E0604FF0FF3104F14400C1
:102FC0000170417075B92069A0B104F11000FFF7DC
:102FD000A0FA78B1DFF898144FF08050086000F044
:102FE000ADF907E004F11000FFF78DFC04F12400B7
:102FF000FFF789FCFFF764FD012032BDF8B504003E
:103000000D46164602D100F09EF9FEE7002D0EBFD8
:10301000482005FB04F04830FFF784FB070007D089
:103020000097334607F148022946204600F002F88F
:103030003846F2BD82B0029B01B91A461A60D863C5
:1030400019641846012102B09CE72DE9F74F80462C
:1030500000245025B8F1000F8B461E4600F0CDF835
:10306000BBF1000F08F1240701D1F86960B9022E05
:1030700002D1B86901280AD1FFF7E9FA70B90298BC
:1030800060B100F059F9FEE700F056F9FEE700F0F4
:1030900053F9FEE700F047F9FFF720F9FFF7F7FCD7
:1030A0007869B969DFF8C89388424FF0805A01D334
:1030B000022E14D132465946404600F04CF9396888
:1030C00021B13846FFF725FA08B904E018B1C9F86C
:1030D00000A000F033F9FFF7F3FC01203EE0029876
:1030E00010B9FFF7EDFC38E014B900F019F901242C
:1030F000FFF7E6FCFFF7ECF8FFF7C9FC00F015F965
:1031000004BF0021017000F006F904BF00214170E6
:10311000FFF7D6FC00F024F8D8B9FFF7B8FC7869BF
:10312000B96988420CBF01250025FFF7C9FC002DB5
:10313000B0D0029908F11000FFF7C2F900F0F3F8DF
:10314000FFF7CCF80028A9D1C9F800A000F0F6F8E4
:10315000A4E700F0E8F8FFF7C1F80020BDE8FE8F13
:1031600002A96846FFF70FBA2DE9F04780465025BF
:10317000B8F1000F894616461F4600F03EF8B9F137
:10318000000F08F1240401D1E06930BB022F02D105
:10319000A069012824D1FFF7BBFCEFF3118A00F0EE
:1031A000CBF86069A169884201D3022F20D198F938
:1031B00045503A464946404600F0CDF815F1010F1A
:1031C00011D1206890B12046FFF7A3F9002818BF5D
:1031D000002E0BD00120306008E000F0ADF8FEE7D3
:1031E00000F0AAF8FEE7681C88F84500012000E01E
:1031F00000208AF31188BDE8F08706D185F3118895
:10320000BFF34F8FBFF36F8FFEE770472DE9F44791
:1032100083B004468A460027502514B900F08CF884
:10322000FEE7BAF1000F04F1100601D1306B38B996
:10323000FFF70DFA60B9039850B100F07DF8FEE792
:1032400000F07AF8FEE7204600F0C2F8FFF746F8F3
:10325000FFF71DFCB56ADFF818824FF080599DB169
:103260005146204600F0A1F8681EB062306838B1BF
:103270003046FFF74EF918B1C8F8009000F05EF83C
:10328000FFF71EFC012043E0039810B9FFF718FC7C
:103290003DE017B900F044F80127FFF711FCFFF7F4
:1032A00017F8FFF7F4FB04F1440090F9001011F156
:1032B000010F04BF0021017000F02DF804BF0021B0
:1032C0004170FFF7FDFB03A9FFF74BFF00282046E5
:1032D00014D100F0B2F80028B5D0039904F124000D
:1032E000FFF7EEF8204600F073F8FEF7F7FF00282E
:1032F000AED1C8F8009000F021F8A9E700F068F816
:10330000FEF7ECFF204600F098F80028A0D000203F
:1033100004B0BDE8F08790F9011011F1010F70477A
:103320006846FFF729B9404652E008F1440090F999
:10333000001011F1010F704785F31188BFF34F8F13
:10334000BFF36F8F7047502080F31188BFF34F8F0A
:10335000BFF36F8F704770B504461646A56B226C9D
:10336000FAB166B9A068FEF7CBF8A068216C0844F2
:103370006168A060884214D32068A06011E0E06812
:10338000FEF7BEF8206CE16840420144E16022682B
:10339000914202D261680844E060022E01D105B179
:1033A0006D1E681CA063002070BD10B5026C0B463A
:1033B0006AB1C16844681144C160A14224BF016878
:1033C000C160C168BDE810401846FEF799B810BD4D
:1033D000F8B50446FFF75BFB04F1440504F1100760
:1033E00095F9016007E004F12400FFF792F808B1B5
:1033F000FFF7F6F8761E76B2012E02DB7869002818
:10340000F1D14FF0FF346C70FFF75AFBFFF73FFB31
:1034100095F9006006E03846FFF77BF808B1FFF742
:10342000DFF8761E76B2012E02DB38680028F2D172
:103430002C70BDE8F140FFF743BB10B50446FFF721
:1034400026FBA06B441EA441FFF73AFBE00F10BD22
:1034500010B50022074B53F832402CB943F8321014
:1034600003EBC201486010BD521C082AF3D310BD03
:1034700004ED00E0FC6C0020F8B504460D4616464D
:10348000FFF705FB04F1380797F90C0010F1010F65
:1034900004BF0020387397F90D0010F1010F04BF2D
:1034A00000207873FFF70CFB386828B932462946AC
:1034B00004F12400FFF710F82046BDE8F24087E74A
:1034C0000EB400B582B003A9009102466B460121FB
:1034D000034878440A30FCF775FE06BC5DF810FB23
:1034E000C11D000038B5050001D1012032BD05F134
:1034F0003804607818B92070284600F035FB00F0D9
:1035000017F800F00DF821F02A01FFE74161286863
:1035100000F019F8606020206070A070002032BDBB
:103520002868016921F49041016128684169704768
:10353000242060702868C16821F40051C1602846C9
:1035400000F037BA2068C16841F40051C160002022
:1035500070472DE9F843044604F138070D467878A2
:1035600020281646984641D10DB1300001D10120E6
:103570003DE03878012839D001203870002078608B
:103580002120787000F04EFCA6848146E68403E09A
:10359000216815F8010B4860E08CC0B1E08C401E3A
:1035A000E08400F026F80DD100F02AF8B8B9288898
:1035B0002168C0F3080048602069002814BF6D1C12
:1035C000AD1CE9E700F01CF80028E1D007E0CDF8D9
:1035D00000804B460022402100F014F808B103207F
:1035E00005E0202078700020387000E00220BDE85F
:1035F000F2834B46A068CDF80080B0F5805F70473D
:1036000000228021204642E138B5044604F1380505
:10361000A87820283DD109B1100001D1012032BD88
:103620002878012835D001202870A162A2850020C9
:1036300068602220A870636B0FF2C910D863636BB7
:103640000FF2F9101864636B0FF2F910D8640020C0
:10365000636B1865134620680A46011D606B00F015
:103660005AFC002000902068016800914168009198
:10367000009900212970C16841F48071C1602068FF
:10368000416941F0010141612068416941F0400117
:1036900001E0022032BD4161002032BDC1602068DE
:1036A00041694908490041617047416921F0400181
:1036B0004161606B704738B5044623681868D96863
:1036C0005A6910F00F0507D182065DD58A065BD5D1
:1036D0002046BDE8324023E1D50702D411F4907FA3
:1036E00052D0C30705D5CB0503D5E36B43F00103E7
:1036F000E363430705D5D30703D5E36B43F0020328
:10370000E363830705D5D30703D5E36B43F00403D5
:10371000E363030705D5D20703D5E26B42F0080245
:10372000E263E26B002A6CD0800604D5880644BFB1
:10373000204600F0F5F820684069E16B090701D4E4
:1037400040061BD5204600F0D6F82068416949069E
:103750000FD5FFF7AAFF60B10FF2B9110165606BD9
:1037600000F017FC00284CD0606B016DBDE83440C0
:1037700008472046BDE8324000F022BD204600F058
:103780001FFD0020E06331BD02062AD50A0628D5B8
:1037900094F83900212834D1A068B0F5805F206A00
:1037A0000BD10088C0F30800586020690028206A07
:1037B0000CBF801C401C206203E0411C2162007889
:1037C0005860E08C401EE08480B2D0B92068C168A7
:1037D00021F08001C1602068C16841F04001C160F2
:1037E00031BD40060DD548060BD5D86820F0400005
:1037F000D860202084F839002046BDE8324000F02F
:10380000E0BC31BD0146886B09680968C90513D45D
:103810000021C1850168CA6822F48072CA6001680B
:103820004A69520852004A6101684A6922F040021E
:103830004A61202180F83A1000F0C4BC806B00F08F
:10384000C2BC000038B5846B2068406904F13905BA
:103850002978212906D1000604D50020E0842046DD
:1038600000F040F8206840696978222906D14006B6
:1038700004D50020E085204600F03DF8E06B40F0E4
:103880001000E0632046BDE8324000F099BC2DE90D
:10389000F041069E04460D4690461F46206800688B
:1038A0002840A8420CBF01200020404517D116F146
:1038B000010FF3D026B100F0B5FAC01B8642EDD25D
:1038C0002068C16821F4D071FFF7E8FE04F13800E8
:1038D00020214170817000210170032000E0002050
:1038E000BDE8F0810168CA6822F0C002CA602021E8
:1038F00080F8391070470168CA6822F49072CA6073
:1039000001684A69520852004A61202180F83A1041
:1039100070470000806B0021C185C18400F050BC5D
:1039200080B590F83A10222941D18168B1F5805FC5
:1039300012D10269816A002A0268526805D1C2F375
:1039400008020A80816A891C04E002F0FF020A80F2
:10395000816A491C81620FE001690029816A04D1F2
:103960004A1C82620268526805E04A1C8262026850
:10397000526802F07F020A70C18D491EC18589B26A
:1039800099B90168CA6822F02002CA600168CA6851
:1039900022F48072CA6001684A69520852004A6182
:1039A000202180F83A1000F00DFC002002BD02201A
:1039B00002BD2DE9F0470446642520680169E268EC
:1039C00021F44051114301611926C168484A114050
:1039D000A26811432269114362691143E2691143EC
:1039E000C1604169A26921F4407111434161E369F9
:1039F0004049414AB3F5004F3AD1904218BF88423E
:103A00000ED100F06CFC074600F069FC804600F027
:103A100066FC814600F063FC824600F060FC0DE02D
:103A200000F055FC074600F052FC804600F04FFCC9
:103A3000814600F04CFC824600F049FC06FB08F38E
:103A40006168490000F05AF8DB003233B3FBF5F34C
:103A5000B2FBF1F25B00B2FBF5F203F4F87300F095
:103A60005AF8C0003230B0FBF5F000F0070038E043
:103A7000904218BF88420ED100F031FC074600F09A
:103A80002EFC804600F02BFC814600F028FC82468C
:103A900000F025FC0DE000F01AFC074600F017FCD2
:103AA000804600F014FC814600F011FC824600F0D4
:103AB0000EFC06FB08F36168890000F01FF81B018B
:103AC0003233B2FBF1F2B3FBF5F3B2FBF5F203F0E4
:103AD000F00300F020F800013230B0FBF5F000F008
:103AE0000F00216880188860BDE8F08700000000A2
:103AF000F369FFFF0014014000100140B3FBF1F334
:103B000006FB07F206FB09F7B7FBF1F7B7FBF5F782
:103B100005FB1733704703EB0212704306FB0AF3F1
:103B2000B0FBF1F0B3FBF1F3B0FBF5F005FB1030A7
:103B30007047000081B000200090AC48416841F41B
:103B400080414160416801F4804100910099002169
:103B50000091016841F080510160006800F08050E0
:103B60000090009801B0704770B586B0044601A877
:103B7000142100F0E5FB23689D4A9E489E4993422C
:103B80001ED1002200920A6942F400220A610A69E9
:103B900002F4002200F018F90321019102210291A0
:103BA00001210391032104910821059101A900F04D
:103BB000CBFB00220521342000F0CCFC3420CFE0E8
:103BC00000F010F928D100200090086940F480101E
:103BD0000861086900F4801000F0D9F840F008008E
:103BE0000860086800F00800009001A900984FF4F0
:103BF000805000F0C0F80420019001A900F0B4F852
:103C0000082005907D4800F09FFB0022052135200B
:103C100000F0A0FC3520A3E0794DAB4215D1002285
:103C200000924A6942F010024A614A6902F01002A9
:103C300000F0CAF84FF4C06100F0BAF80022052184
:103C4000252000F087FC25208AE06E4EB3424FF419
:103C5000806530D1002200926B4E0A6942F4003236
:103C60000A610A6902F4003200F0AEF80C2100F09B
:103C70009FF86648306035614FF00060706000204A
:103C8000B060F0607061B0614FF48070F0614FF42B
:103C90004030306200207062304600F0C9F808B150
:103CA00000F016FE6663B46300220521262000F0B2
:103CB00051FC262054E0564883422ED1002000902B
:103CC000086940F480200861086900F4802000F051
:103CD0005EF840F002000860086800F00200009002
:103CE00001A900982020019000F03EF8072000F084
:103CF0004AF80220029001950120039001A90320B7
:103D0000049007200590434800F01EFB0022052187
:103D1000272000F01FFC272022E03F48834221D1CA
:103D200000200090486940F020004861486900F098
:103D300020000090009800200090086840F00400E7
:103D40000860086800F00400009001A90098C020F5
:103D500000F011F800220521472000F0FBFB47206E
:103D600000F015FC06B070BD022002900120039007
:103D700003200490704701900220029001200390DC
:103D80000320049008200590104600F0DDBA009052
:103D9000009800200090086840F00400086008685F
:103DA00000F0040000900098002000900868704720
:103DB0000191022102910121039103210491072124
:103DC000059101A900F0C0BA0092009A0022009269
:103DD0000A6842F001020A60096801F001010091DD
:103DE000009970470D4D0E4AAB4270474038024073
:103DF000004C00400000024030380240000C0240FD
:103E000000100140004400400C6C0020886002401B
:103E100000480040000402400014014000500040EF
:103E20000008024001484068704700BF14000020AD
:103E300070B50446FFF7F6FF06460CB9012070BDC9
:103E400004F13405002028700220687000F09BF80F
:103E500020680168C90708D5FFF7E4FF801B062822
:103E6000F6D320202862032053E00168DFF8D8222F
:103E7000114062681143A2681143E268114322694C
:103E8000114362691143A2691143E2691143226A35
:103E90001143626A042A03D1E26A236B1A43114375
:103EA000016020684169626AC908042A42EAC101C6
:103EB0000AD1A26AE36A114333B1A66996B9002A0E
:103EC00018BF022A20D017D34161204600F060F9C4
:103ED000AA6A3F2191408160002028620120687019
:103EE000002070BDB6F5005F0AD1032AECD8DFE8E8
:103EF00002F00D0B0D03E7E7B3F1C07FE4D105E05D
:103F0000022A03D9D21EDFD1DA01DDD54020286292
:103F10000120687070BDF8B5054605F1340600242F
:103F20003078776A012801D10220F2BD012030707B
:103F3000707801281DD1022070703462284600F08C
:103F400017F9B16A3F208840B8602868016841F0DD
:103F5000160101602868416941F080014161F06803
:103F600020B12868016841F00801016000F005F8FF
:103F700001E0347002242046F2BD2868016841F057
:103F8000010101607047206801684908490001602B
:103F9000704790F83510022903D080214165012037
:103FA0007047052180F8351000680168490849000C
:103FB0000160002070472DE9F04182B004460020E6
:103FC00004F1340600904FF41651776A5F48006898
:103FD0003D68B0FBF1F8B16A082000FA01F10D422A
:103FE0000ED021680A6852070AD50A6822F0040236
:103FF0000A60B16A8840B860306A40F001003062FF
:10400000B06A25FA00F1C9070BD52168496909068C
:1040100007D5012101FA00F0B860306A40F00200D3
:1040200030620420B16A8840054208D021680968DE
:10403000890704D5B860306A40F00400306210206F
:10404000B16A884005421DD021680968090719D561
:10405000B86020680168490308D5006800030CD5E2
:10406000716908000ED0204688470BE00168C90539
:1040700003D4016821F008010160F16808001CBF49
:1040800020468847B16A2020884005423DD02168FB
:104090000968C90639D5B8602068717805290168B2
:1040A00018D100F055F8F068002804BF70690028A6
:1040B00001D000F056F83F20B16A8840B860002077
:1040C000307001207070F16908003BD02046BDE8D7
:1040D000FC410847490308D50068000310D4316942
:1040E000080012D0204688470FE00168C90507D4B0
:1040F000016821F010010160002030700120707013
:10410000B16808001CBF20468847306AD0B1306AC9
:10411000C00710D505207070FFF735FF0098401CD0
:104120008045009003D320680068C007F6D40020C3
:10413000307001207070B169080003D02046BDE8DE
:10414000FC410847BDE8F3813F8010F020000020CB
:1041500021F0160101602068416921F08001416170
:1041600070472068016821F0080101607047000075
:1041700030B50468256825F4802525606360806873
:10418000402802D1A260E16030BDA160E26030BD94
:10419000016801F0FF02103A1823B2FBF3F20FF2AC
:1041A00018039B5CC365890A8902042A28BF091D7C
:1041B00081650846704700000006101600061016BC
:1041C00070477047704770472DE9F04104000D4675
:1041D00052D0554E00F076F802D200F072F84BD172
:1041E0002068524F810712D5400703D5B86840F4C4
:1041F000E050B8602078000703D5B86840F460400C
:10420000B860B868A16820F0F0000843B860207872
:10421000C00729D56068012802D13968890305E003
:10422000022818BF032803D13968890103D423E089
:104230003968890720D5B968890840EA8100B860E3
:10424000FFF7F0FD8046B868616800F00C00B0EB45
:10425000810F09D0FFF7E6FDA0EB080041F289319C
:104260008842F0D303202AE0306800F00F00854236
:1042700004D200F026F801D0012020E02078400789
:1042800005D5B868E16820F4E0500843B8602078AC
:10429000000706D5B868216920F4604040EAC100F3
:1042A000B86000F02BFBBA682149C2F30312895CA5
:1042B000C84020490860002000F0D2FC0020BDE882
:1042C000F0813570306800F00F00A842704719483F
:1042D000194A006812681949C2F3822206E015489B
:1042E000154A006812681549C2F34232895CC84019
:1042F00070470F220260104A136803F00303436003
:10430000136803F0F0038360136803F4E053C360A1
:104310001268D20802F4E05202610348006800F01B
:104320000F00086070470000003C02400038024067
:10433000685100082000002008380240F4520008AC
:104340000022FEF7C7BA00002DE9F84F024600230D
:10435000DFF8A481DFF8A491DFF8A4A14FF00F0BE0
:1043600001200C68984000EA040E864540F0B380B6
:104370004D689C00022D18BF122D0FD1DD0802EBF5
:10438000850C04F01C05DCF820600BFA05F7BE4331
:104390000F6907FA05F53543CCF820504FEA430C76
:1043A000032516680F7905FA0CF5ED4307F00307AE
:1043B0002E4007FA0CF73E4316604E68012E18BFD8
:1043C000022E03D0112E18BF122E0FD19668CF687F
:1043D0002E4007FA0CF73E439660566826EA000026
:1043E0004E68C6F300169E4030435060D0682840A7
:1043F0008D6805FA0CF52843D0604868C0006AD57E
:104400000020009004F00C06DAF8000040F4804030
:10441000CAF800000BFA06F4DAF8000000F4804055
:1044200000900098980859F8205025EA0404354D6A
:10443000AA4208BF00251DD0334DAA4208BF01255E
:1044400018D0324DAA4208BF022513D0304DAA42DF
:1044500008BF03250ED02F4DAA4208BF042509D05E
:104460002D4DAA4208BF052504D02C4DAA420CBFF1
:1044700006250725B5402C4349F820406FEA0E0079
:10448000D8F8004000EA040C4C68E40348BF4EEA48
:104490000C0CC8F800C0D8F8044000EA040C4C68C2
:1044A000A40348BF4EEA0C0CC8F804C0D8F8084072
:1044B00000EA040C4C68E40248BF4EEA0C0CC8F851
:1044C00008C0D8F80C4020404C68A40248BF4EEA0F
:1044D0000000C8F80C005B1C102BFFF441AFBDE8D6
:1044E000F18F02B909048161704742690A408A422A
:1044F00008BF090481617047003C01400838014051
:10450000443802400000024000040240000802401B
:10451000000C02400010024000140240001802404B
:104520000901020002D41F48815470471E4802F05E
:104530000F02104400F8041C70471C490A684FF62B
:10454000FF0300021A4000F4E0601043184A1043D1
:104550000860704738B5154B1B68C3F30223C3F1DD
:104560000704052C28BF04241D1D072D34BF00237C
:10457000DB1E012505FA04F4641E2140994005FA6A
:1045800003F35B1E1A401143BDE83440C8E700281E
:1045900007D4012100F01F029140064A400942F869
:1045A0002010704700E400E018ED00E00CED00E0A2
:1045B0000000FA0500E100E001B54FF6FF730122AB
:1045C0006946B448FEF7C5FF009802BDF0B58BB050
:1045D00000F084FB00F0F7F801A81421FFF7B0FE0B
:1045E000002000900022AC4CAC4D2068A94F40F058
:1045F000040020602021206800F0040000F0DDF8B5
:1046000040F080002060206800F0800000F0D5F8C5
:1046100040F001002060206800F0010000F0CDF8BB
:1046200040F002002060206800F0020000F0C5F8B1
:1046300040F008002060206800F00800009000981A
:104640002846FFF74EFF4FF40050019001A994480F
:104650000290002003909348FFF776FE20200190FF
:1046600001A9012002900020039004902846FFF742
:104670006BFE002000900022206840F400102060B3
:1046800005212068884C00F40010009004F1840695
:1046900000981020FFF75EFF1020FFF778FF834897
:1046A000C4F880004FF4E13500F07CF804F180009C
:1046B000FEF718FF7E4838607D600020B860F86023
:1046C00038610C2078610020B861F8613846FEF747
:1046D00009FF2620FFF75BFF7648F0630020706437
:1046E000B064F06435640C20306500207065B065FE
:1046F00004F1C000FEF7F6FE6F48F0674FF48270D9
:10470000261800F04FF84FF480702044FEF7EAFEC0
:104710006A48206065600020A060E06020610C2095
:1047200060610020A061E0612046FEF7DBFE644886
:10473000206465640020A064E06420650C2060654E
:104740000020A065E06504F14000FEF7CBFE38686C
:10475000C16841F01001C16001A80FF27811142264
:10476000FCF7DEFE002101A800F0DDFAF063142260
:1047700006A80FF27411FCF7D3FE002106A800F082
:10478000D2FA306400F0CAFA4FF4A4702118202243
:104790003846FEF739FF786B0068016821F00801A0
:1047A0000160FEE700207060B060F06035600C20B2
:1047B000306100207061B061704700900098002067
:1047C00000902068704700B593B006A83421FFF729
:1047D000B7FD01A81421FFF7B3FD00200090394870
:1047E000016841F080510160006800F08050009045
:1047F0000098002000903448016841F44041016075
:10480000006800F4404000900098022006900120CB
:10481000099010200A9002200C9000200D9010208A
:104820000E904FF4B4700F900220109011901290DF
:1048300006A800F09EF800F09FFA0F2001900521D5
:1048400002200290002003904FF4A05004904FF4F7
:104850008050059001A8FFF7B7FC13B000BD80B5EC
:10486000012000F077FAFBE780B540210D48FFF703
:104870003CFE20210948FFF738FE4FF47A7000F023
:1048800069FAF2E700681149884208BF00F0AEBA41
:1048900070470000BC6C002030380240000002402D
:1048A000000021100008024078690020001001403B
:1048B000004400400048004000140140004C00400B
:1048C00000500040403802400070004000000140AD
:1048D00070470000C45200085F4800080000000054
:1048E0000000000080000000D05200086948000865
:1048F000FEFF000000000000800000002DE9F041F4
:10490000DFF85043DFF844636268DFF8440302F0E5
:104910000C02042A15D0082A02D00C2A08D00FE075
:1049200000F011F82168C1F30141491C490004E07D
:1049300000F009F82168C1F30271B0FBF1F000E06A
:104940003046BDE8F0812268256800236D0202F040
:104950003F0207D52568C5F38811A0FB01673046E3
:10496000394604E02068C0F38818A6FB0801FCF76C
:1049700043BE2DE9F8430446DFF8C8522078C0074B
:1049800048D500F05BF904280DD000F057F908284D
:1049900002D16868400206D400F050F90C2809D111
:1049A0006868400206D52868800333D5606888BBF4
:1049B000012037E16068B0F5803F06D0B0F5A02F48
:1049C000286806D140F480202860286840F48030B0
:1049D00005E020F480302860286820F480202860DA
:1049E000606858B1FFF71EFA07462868800311D4A3
:1049F000FFF718FAC01B6528F7D310E1FFF712FA8A
:104A000007462868800305D5FFF70CFAC01B652808
:104A1000F7D304E12078904E80071ED5A86810F0E7
:104A20000C0F0DD000F00AF9082802D16868400286
:104A300006D500F003F90C2823D16868400220D481
:104A40002868800702D5E0680128B1D1286821696B
:104A500020F0F80040EAC1002860207800073AD52D
:104A600061697E4851B301210160FFF7DBF9074618
:104A7000686F80072FD4FFF7D5F9C01B0328F7D341
:104A8000CDE0E06868B101203060FFF7CBF9074660
:104A900028688007DAD4FFF7C5F9C01B0328F7D3CD
:104AA000BDE03060FFF7BEF9074628688007D4D51F
:104AB000FFF7B8F9C01B0328F7D3B0E00160FFF798
:104AC000B1F90746686F800705D5FFF7ABF9C01B42
:104AD0000328F7D3A3E02078400761D5286CC000F5
:104AE0004FF000080CD4CDF800804FF00108286C7E
:104AF00040F080502864286C00F0805000900098AE
:104B0000DFF84491D9F80000C00512D4D9F80000AC
:104B100040F48070C9F80000FFF784F90746D9F81F
:104B20000000C00505D4FFF77DF9C01B0328F6D3AC
:104B300075E0A068012805D00528286F06D140F04F
:104B400004002867286F40F0010005E0400840009D
:104B50002867286F20F00400286741F28939A0688F
:104B600058B1FFF75FF90746286F800711D4FFF7A8
:104B700059F9C01B4845F7D351E0FFF753F90746F1
:104B8000286F800705D5FFF74DF9C01B4845F7D3BF
:104B900045E0B8F1000F03D0286C20F08050286465
:104BA000A06900283DD0A96801F00C0108293FF454
:104BB000FFAE022828D100F03DF8074628688001A2
:104BC00005D5FFF72FF9C01B0328F7D327E0E069CD
:104BD000216A0843616A40EA8110A16A00F024F862
:104BE000E16A40EA0160216B40EA017068600120DF
:104BF00000F021F807462868800112D4FFF712F967
:104C0000C01B0328F7D30AE000F014F80746286811
:104C1000800106D5FFF706F9C01B0328F7D3032050
:104C200000E00020BDE8F283891EC903090C40EAB8
:104C30000140704700203066FFF7F4B8A86800F024
:104C40000C00704700380240007000400024F4005F
:104C500000127A000438024000004742800E4742AA
:104C600010B5014688B000221920FFF773FC192007
:104C7000FFF78DFC00200090144C1548016841F0AE
:104C80000101016001A9006800F001000090009896
:104C900002A8FFF72EFBFFF722FB0E492160400020
:104CA00040F2E731E1600C49B0FBF1F0401E60607A
:104CB00000202061A060204600F0A0F818B920462E
:104CC00000F0A9F800E0012008B010BD3C6D002004
:104CD000443802400000014040420F0080B50B48BC
:104CE000016841F400710160016841F48061016074
:104CF000016841F4807101600320FFF71EFC002071
:104D0000FFF7AEFFFEF716FF002002BD003C024099
:104D10000021842818BFC11C0846704780B5FDF7E4
:104D2000A8FA002002BD3EB504460D46B4F90800BD
:104D3000FFF7EEFF02A9019100902B46226921683E
:104D4000606892B2FDF7AAF9012801D000203EBDAB
:104D500002983EBD80B500B90120FDF76CFA002035
:104D600002BD80B5FDF773FC012803D0BDE801400A
:104D7000FDF7B8BE01BD0000F8B500F01FF8012036
:104D80002060FFF74FF807463068C00305D4FFF7EF
:104D900049F8C01BA842F7D30CE001206060FFF780
:104DA00041F807463068800306D4FFF73BF8C01B84
:104DB000A842F7D30320F2BD0020F2BD00200090EE
:104DC00040F2E9350748084C0168054E41F0805132
:104DD0000160006800F0805000900098704700006B
:104DE000047000404038024040000E4202484168D2
:104DF00002788918416070471400002038B504001B
:104E000001D1012032BD00F020F818B928702046E9
:104E100000F026F90FE00068C16841F00101C160AF
:104E2000816801F00701062903D0016841F0010102
:104E300001600020704702206870211D206800F08A
:104E4000ACF801206870002032BD04F13C056878A0
:104E5000704710B5044620680169890715D5C168F7
:104E6000890712D56FF00201016101212177806964
:104E700010F0030F204602D000F0F3F803E000F03A
:104E8000F1F800F087F800202077206801694907D1
:104E900015D5C168490712D56FF0040101610221DF
:104EA0002177806910F4407F204602D000F0D9F8C5
:104EB00003E000F0D7F800F06DF8002020772068BC
:104EC0000169090715D5C168090712D56FF00801F6
:104ED000016104212177C06910F0030F204602D040
:104EE00000F0BFF803E000F0BDF800F053F8002038
:104EF000207720680169C90615D5C168C90612D591
:104F00006FF01001016108212177C06910F4407F22
:104F1000204602D000F0A5F803E000F0A3F800F06E
:104F200039F80020207720680169C90708D5C168D1
:104F3000C90705D56FF0010101612046FFF7A2FC0A
:104F400020680169090608D5C168090605D56FF012
:104F500080010161204600F086F820680169490659
:104F600008D5C168490605D56FF0400101612046AA
:104F700000F07AF82068016989060AD5C1688906B7
:104F800007D56FF0200101612046BDE8104000F018
:104F90006CB810BD204600F069B8F0B5254B046828
:104FA000254A264D264E274F984218BFB0F1804F14
:104FB00007D0B84218BFB04203D0A84218BF9042F1
:104FC0000FD1D1F804C0984224F0700418BFB0F19A
:104FD000804F4CEA040417D0B8421CBFB042A8422C
:104FE00012D090421CBF184DA8420DD0174DA842B8
:104FF0001CBF174DA84207D0164DA8421FBF164D23
:10500000A842164DA84203D1CD6824F440742C4325
:105010004D6924F080042C43046098428C68C4627B
:105020000C68846212BF90420969016301214161E9
:10503000F0BD00000000014000040140000C0040F1
:1050400000080040000400400040014000440140CE
:105050000048014000180040001C004000200040B3
:10506000704770477047704770477047704700003F
:105070007047FEE7FEE7FEE7FEE7704710B5FFF773
:1050800070FE1B4C6088012803D120701948C16B49
:105090008847608801001CBF401E608010BD154815
:1050A000FEF789BF1448FFF7D4BE1448FEF703BBD0
:1050B0001349144882B00968C9060AD50021009135
:1050C00001680A6800924968094A00910099012123
:1050D000518002B0FEF7EFBA0B48FEF7ECBA0B486E
:1050E000FEF7E9BA0A48FEF7E6BA0A48FEF7E3BA5D
:1050F000000000200C6C00203C6D0020F8690020AE
:1051000000440040BC6C0020386A00207869002010
:10511000B8690020786A00200E480F4A016841F4FF
:10512000700101600D48016841F00101016000213A
:10513000816001681140016009494160016821F402
:10514000802101600021C1604FF0006005490860C6
:105150007047000088ED00E0FFFFF6FE00380240D7
:105160001030002408ED00E0000000000000000006
:10517000010203040607080919E050F8041BCB07D5
:1051800044BFA9F101035918121F0023042A41F852
:10519000043BF9D25FEA827C0B4604D54FF0000C49
:1051A000A1F800C09B1CD10744BF0021197050F822
:1051B000042B002AE1D1704730B501684268846849
:1051C000014401EB5203D20748BF4C44994201D13C
:1051D0000C3030BD11F9012B11F8015B002A04F8E5
:1051E000015B02D5521CF9D1F0E7521EF4D5EDE770
:1051F00010B5074979441831064C7C44163404E054
:105200000A68081D114488470146A142F8D110BD23
:105210002C000000480000004EF68851CEF200013C
:10522000086840F470000860BFF34F8FBFF36F8FC2
:105230004FF00070E1EE100A704700003DFFFFFFE5
:1052400064600000600D0020000000006DFFFFFFA3
:10525000E4010000840000000000002000F00BF8D2
:10526000002801D0FFF7C4FF0020AFF30080FFF754
:10527000ADF900F002F80120704700F001B800001D
:105280000746384600F002F8FBE7000080B5AFF3B0
:105290000080024A11001820ABBEFBE72600020086
:1052A00038B504460D46284600F006F8A84218BF57
:1052B0000024204632BD00000149FFF77DB900BF40
:1052C0002400002064656661756C745461736B0022
:1052D0005461736B32000000014880470148004769
:1052E00019510008E9520008AFF30080FFF794FF5E
:1052F000FFF7B4FF0000000001020304FFF7FEBF48
:10530000FFF7FEBFFFF7FEBFFFF7FEBFFFF7FEBFD1
:10531000FFF7FEBFFFF7FEBFFFF7FEBFFFF7FEBFC1
:10532000FFF7FEBFFFF7FEBFFFF7FEBFFFF7FEBFB1
:10533000FFF7FEBFFFF7FEBFFFF7FEBFFFF7FEBFA1
:10534000FFF7FEBFFFF7FEBFFFF7FEBFFFF7FEBF91
:10535000FFF7FEBFFFF7FEBFFFF7FEBFFFF7FEBF81
:10536000FFF7FEBFFFF7FEBFFFF7FEBFFFF7FEBF71
:10537000FFF7FEBFFFF7FEBFFFF7FEBFFFF7FEBF61
:10538000FFF7FEBFFFF7FEBFFFF7FEBFFFF7FEBF51
:10539000FFF7FEBFFFF7FEBFFFF7FEBFFFF7FEBF41
:1053A000FFF7FEBFFFF7FEBFFFF7FEBFFFF7FEBF31
:1053B000FFF7FEBFFFF7FEBFFFF7FEBFFFF7FEBF21
:1053C000FFF7FEBFFFF7FEBFFFF7FEBFFFF7FEBF11
:1053D000FFF7FEBFFFF7FEBFFFF7FEBFFFF7FEBF01
:1053E000FFF7FEBFFFF7FEBFFFF7FEBFFFF7FEBFF1
:1053F000FFF7FEBFFFF7FEBFFFF7FEBFFFF7FEBFE1
:10540000FFF7FEBFFFF7FEBFFFF7FEBFFFF7FEBFD0
:10541000FFF7FEBFFFF7FEBFFFF7FEBFFFF7FEBFC0
:10542000FFF7FEBFFFF7FEBFFFF7FEBFFFF7FEBFB0
:10543000FFF7FEBFFC000020F900FCAAFC00000101
:10544000F9000010FC002224F400020401016C6C3D
:105450000020BC6C00206C6C00206C6C00206C6C1C
:1054600000206100002048000020C400F8FFDC009C
:06547000FAFF8100D100EB
:04000005080052E9B4
:00000001FF
