:020000040800F2
:1000000028090020ED3B0008F1380008F33800080B
:10001000F5380008F7380008F9380008000000003B
:100020000000000000000000000000005510000863
:10003000FB38000800000000FD0F0008FD38000834
:10004000253C0008293C00082D3C0008313C0008F4
:10005000353C0008393C00083D3C0008413C0008A4
:10006000453C0008493C00084D3C0008513C000854
:10007000553C0008593C00085D3C0008613C000804
:10008000653C0008693C00086D3C0008713C0008B4
:10009000753C0008793C00087D3C0008813C000864
:1000A000853C00081F390008893C00088D3C000889
:1000B000913C0008953C0008993C00089D3C0008D4
:1000C000A13C0008A53C0008A93C0008AD3C000884
:1000D000B13C000825390008B53C00084D3900083E
:1000E000B93C0008BD3C0008C13C0008C53C000804
:1000F000C93C0008CD3C0008D13C0008D53C0008B4
:10010000D93C0008DD3C0008E13C0008E53C000863
:100110005339000859390008E93C0008ED3C000853
:10012000F13C0008F53C00085F390008F93C000884
:10013000FD3C00080000000000000000013D000838
:10014000053D0008093D00080D3D0008113D00086F
:10015000153D0008193D00081D3D000865390008DF
:10016000213D0008253D0008293D00082D3D0008DF
:10017000313D0008353D0008393D00080000000011
:10018000000000003D3D00080000000000000000ED
:10019000413D00080000000000000000453D00084F
:1001A000000000000000000000000000493D0008C1
:1001B0004D3D0008513D0008553D0008593D0008DF
:1001C0005D3D00082DE9F0430446154685B088469C
:1001D0009946A80000F03AFB06001AD04C2000F027
:1001E00035FB070012D03E630020039002974B4678
:1001F0000D9801902A460C9800904146204600F048
:100200000DF8384600F04BF8012004E0304600F0CD
:10021000A2FB4FF0FF3005B0BDE8F0832DE9F041BF
:10022000089C05460F461646206B9846A522B1004D
:1002300000F0E0FB206B00EB8600001FC608F60014
:1002400006F00700395C221882F83410395C11B1CD
:10025000401C1028F6D3002084F84300069F072F87
:1002600028BF0627E762201D00F0EEFB04F118000E
:1002700000F0EAFBC7F10700A061246104F144002B
:10028000646200210160017142462946304600F057
:1002900017FC2060079800B10460BDE8F0812DE9EB
:1002A000F041044600F087FCDFF81C55DFF8888534
:1002B000E86C401CE8641426A86A28BBAC62E86CB1
:1002C000012827D1002706FB07F0404400F0AFFBD0
:1002D0007F1C072FF7D305F1740000F0A8FB05F190
:1002E0008807384600F0A3FB284600F0A0FB05F184
:1002F000140000F09CFB05F1380000F098FB05F1BC
:100300007400E8622F6305E0A86D18B900F01AF8D0
:1003100028BFAC62A86E401CA8660122E06A696D25
:100320008240114369657043211D404400F08FFBFA
:1003300000F05AFCA86D18B1A86AE16A00F027FA2B
:10034000BDE8F081E06AA96AC96A88427047616DB8
:10035000012202FA00F021EA00006065704710B542
:1003600004000DD0DFF8D404006F00F0F6F800F0C0
:1003700043F80021204600F02FFA00F043F808B9B6
:1003800000F001F810BDDFF8B8144FF0805008609D
:10039000BFF34F8FBFF36F8F70471CB5DFF89C44DE
:1003A0000FF2A04104F19C00019000230020009076
:1003B00080220FF26130FFF705FF012808BF00F02F
:1003C00083FC502101280FD181F3118800F0F2F94C
:1003D0004FF0FF30E0660120A06500202065BDE8F9
:1003E000134000F095BB13BD10F1010FFBD181F359
:1003F000118800F0DFF9FEE7DFF84004016F491CC7
:100400000167704770B500F047F90026002400F03E
:1004100042F800F0D0FB286F401E2867286F0028A4
:1004200031D1E86CA8B92EE0E868C66800F02FF872
:10043000301D00F031FB00F0C9F900F0C0F9311DAA
:10044000104400F004FBF06AFFF77DFF24BF012099
:10045000286628680028E7D10EB100F07EF9EE6D1D
:100460003EB100F026F808B101202866761EF8D1CA
:10047000EC65286E38B1DFF8C8134FF080500124C6
:10048000086000F097F900F0AFFB204670BD06F160
:10049000180000F001BB38B9502080F31188BFF379
:1004A0004F8FBFF36F8FFEE77047DFF89003006D4B
:1004B00070472DE9F84300F0EFF80024002843D1FD
:1004C000286D10F10109C5F850900CD1E86A006858
:1004D00000F043F8E86A296BE9622863686E401C03
:1004E000686600F03AF9E86EDFF84C83142781451E
:1004F00021D313E0301D00F0CFFAB06A08B1FFF746
:10050000C6FF00F063F969657843311D404400F08F
:100510009EFAF06AFFF717FF28BF0124E86A006817
:1005200010B94FF0FF3005E0E86AC068C66870682F
:100530008145DFD2E866A86AC06A784358F80000AF
:10054000022804D3012402E0E86D401CE865286E0F
:1005500000B101242046BDE8F28338B1502080F379
:100560001188BFF34F8FBFF36F8FFEE7704710B551
:10057000DFF85442206F10B10120206610BD2066C4
:10058000A06A006B0168B1F1A53F04BF4168B1F1F9
:10059000A53F07D18168B1F1A53F04BFC068B0F1A4
:1005A000A53F05D0A06A00F13401A06A00F00EFD5D
:1005B000606DB0FA80F0C0F11F0014214843DFF8ED
:1005C00078120A5812B900F0F2F8FEE7084400F178
:1005D0000802416849684160914204BF496841602E
:1005E0004068C068A06210BD10B50C4600F017F856
:1005F00000F039FA2046BDE81040FFE70121EBE0AA
:1006000038B50C46154600F00AF800F020FA0DB196
:100610004FF0FF3429462046BDE83440DCE038B9CD
:10062000502080F31188BFF34F8FBFF36F8FFEE729
:10063000DFF80812896A1831704738B5C068C46895
:1006400014B900F0B4F8FEE704F1180000F024FA41
:1006500000F022F820B900F0A6F800F010F802E04F
:1006600004F11801284600F0F2F9A86AE16AC06AAC
:10067000884202D20120286632BD002032BDE06AE5
:10068000696D01228240114369651423DFF8A821B6
:100690005843211D10447047DFF8A051286F704760
:1006A000DFF898114A6E0260096D41607047F8B535
:1006B00004460D46502014B900F07AF8FEE715B94B
:1006C00000F076F8FEE700F076FADFF87001016DD1
:1006D00062682E688B1A16F1010F0CD0406E2768E5
:1006E000B84201D091420AD2B34206D2F01A286031
:1006F0002046FFF7D5FF002402E0002028600124F7
:1007000000F072FA2046F2BDDFF8301101200866D1
:100710007047000038B5DFF82441606B0028FCD03A
:1007200000F049FA206AC568281D00F0B5F9E06CB0
:10073000401EE064606B401E606300F055FA28467E
:1007400000F001F8E9E710B50446206B00F003F96A
:100750002046BDE8104000F0FEB8DFF8E000C16AB6
:10076000096811B94FF0FF3103E0C16AC968C9686F
:100770004968C1667047DFF8C400816D09B901207E
:100780007047006F08B90220704700207047C06AA8
:10079000884207D22A494FF080500860BFF34F8F3C
:1007A000BFF36F8F7047201D00F076B90000502016
:1007B00080F31188BFF34F8FBFF36F8F7047696568
:1007C00014231D4A5843704744670020F06A696D3E
:1007D0000122824011437047F8B5184C256D06463A
:1007E000A06A0F46001D00F057F920B9A06A616D9C
:1007F000C06AFFF7ADFD16F1010F08D13FB1A06A45
:10080000011D04F13800BDE8F44000F020B9A06AF1
:1008100076194660AE42A06A05D2011D206BBDE884
:10082000F44000F020B9011DE06A00F01CF9E06E10
:10083000864238BFE666F1BD846800204467002028
:1008400004ED00E049444C45000000002DE9F84368
:100850000446FFF7D1FD664FB8680025A94608BBDE
:1008600007F1180307F1180213F007034FF4B8411A
:10087000104605D0D01DC008C000C0F5B8415118C1
:1008800009180839C908C90038607D60B9604D6031
:100890000D600A1A4260016040683861F8604FF0EC
:1008A000004078614FF050087869044241D1002C33
:1008B0003FD0083414F0070F1FBF04F1080004F004
:1008C0000701441A14F0070F00F03CF88CB3F868E5
:1008D000A0422ED33E68384601E030460E4671688D
:1008E000A14202D231680029F7D1B9688E4220D0E6
:1008F000016801F10805316801607068011B112968
:1009000008D3301910F0070200F01CF84160746041
:1009100000F04AF87068F9683A69091AF96091427A
:1009200038BF3961796908437060C6F8009005F0F6
:100930000709FFF767FDB9F1000F00F003F828463B
:10094000BDE8F28306D088F31188BFF34F8FBFF361
:100950006F8FFEE7704738B5F0B1A0F10804244D61
:10096000606869695022084202D100F016F8FEE77B
:10097000236813B100F011F8FEE788436060FFF7C9
:100980003BFDE86861680818E860204600F00CF854
:10099000BDE83140FFF736BD31BD82F31188BFF3AA
:1009A0004F8FBFF36F8F704730B511490A4600E093
:1009B0001A4613688342FBD35368D418844203D188
:1009C0004068C0185060104643681468C518A542B6
:1009D00008D189688C4204D06168C91841602468D4
:1009E00000E00C460460824218BF106030BD000079
:1009F0002809002062F30F2262F31F4200B500BFF6
:100A0000130096469446103928BFA0E80C50FAD837
:100A10005FEA417C28BF0CC048BF40F8042BC907DF
:100A200028BF20F8022B48BF00F8012B00BD00F1C1
:100A3000080141604FF0FF31816000F10801C160A1
:100A40000161002101607047002101617047426827
:100A50004A6093688B60936859609160086101688F
:100A6000491C0160704730B50A6812F1010F08BFD8
:100A7000036907D000F1080300E023465C6825689D
:100A8000AA42FAD25A684A6091608B605960086144
:100A90000168491C016030BD4368016982689A6041
:100AA000836842685A604A68824204BF82684A602A
:100AB000002202610868401E086008687047000054
:100AC0004908490010B5A0F120034FF080749961E6
:100AD000DC611A600FF2110159616FF0020140F8F8
:100AE000241D203810BD000064494968502011F1D0
:100AF000010F06D080F31188BFF34F8FBFF36F8FC4
:100B0000FEE780F31188BFF34F8FBFF36F8FFEE7CF
:100B100030B55B495B4B83B00A6850209A4202D1E2
:100B200000F083F8FEE70A68574B9A4202D100F0C2
:100B30007CF8FEE7554A514C13780193FF2313705C
:100B400013788DF800309DF8003003F050032370C7
:100B50000723A36006E05B1EA3609DF800305B00E6
:100B60008DF80030A3689DF800502D06F3D4C3F132
:100B70000705042D02D000F058F8FEE7180200F433
:100B8000E060A06001981070086A40F4700008628C
:100B9000086A40F07040086200F082F8002060604F
:100BA00000F076FA3A48016841F04041016000F0F7
:100BB0005FFA00203EBD502080F31188BFF34F8FB5
:100BC000BFF36F8F2D494A68521C012A4A600AD12F
:100BD00030490968090606D080F31188BFF34F8FAA
:100BE000BFF36F8FFEE770472448416839B9502042
:100BF00080F31188BFF34F8FBFF36F8FFEE7491E5D
:100C0000416004BF002080F31188704780B55020F8
:100C100000F00BF8FFF74DFC18B11E494FF0805063
:100C20000860002080F3118801BD80F31188BFF3B4
:100C30004F8FBFF36F8F7047EFF30580502110285F
:100C40000E4A0BD3144B185C1378984206D281F3EA
:100C50001188BFF34F8FBFF36F8FFEE790680F4A85
:100C6000126802F4E062904206D281F31188BFF369
:100C70004F8FBFF36F8FFEE7704700004C000020DE
:100C800000ED00E071C20F4170C20F4100E400E0CE
:100C900034EF00E004ED00E0F0E300E00CED00E0F4
:100CA00007480021016081604FF47A7205490968A4
:100CB000B1FBF2F1491E416007210160704700BF9E
:100CC00010E000E06400002000B583B000F04FF9B0
:100CD000DFF8E002816869B10C3001900023022046
:100CE00000904FF480720FF2D4210FF26100FFF7F1
:100CF00069FA10B900F0C5F8FEE70EBD70B51D46E3
:100D000084B00446002314B900F0BBF8FEE7A94EF6
:100D1000B068C0B106290091019202940EDAFFF783
:100D20002AFD022803D1089AB068002302E0B068C7
:100D300000230022694600F01CFA03E02A466946B7
:100D400000F0A6FA0346184604B070BD80B506E070
:100D5000C0680068002100F00AF800F0B5F8954876
:100D6000006801680029F3D101210020F3E7F0B504
:100D700083B004460E46FFF73FFB01A800F044F89D
:100D80000546019800283CD18A4F26BBA54227D3AF
:100D9000FFF738FB3868C068C668301DFFF77CFE77
:100DA000F069012813D1B069011923462A4630465B
:100DB00000F06FF858B10020009000232246002177
:100DC0003046FFF79BFF10B900F05BF8FEE7716A51
:100DD00030468847F7BD78680068461EB641F60F72
:100DE000B8683246611B00F0DBFBFFF70BFB50B924
:100DF00071494FF080500860BFF34F8FBFF36F8F82
:100E0000F7BDFFF7FFFAF7BD2DE9F04182B00446C8
:100E1000FFF74BFB674E0546306985420BD3002038
:100E2000206035612846BDE8F68178603F61391D54
:100E30003068FFF718FE30680168E9B1C068D0F883
:100E40000080C768381DFFF727FE796A3846884753
:100E5000F8690128EFD1B86940448045E5D3002006
:100E600000900023424600213846FFF747FF002844
:100E7000E1D100F006F8FEE7716870603160012092
:100E8000CEE7502080F31188BFF34F8FBFF36F8FF1
:100E9000704738B500248A4241600061454D06D351
:100EA000D11A8269914206D2011D686807E09A4210
:100EB00003D2994201D3012403E0011D2868FFF702
:100EC000D2FD204632BD000010B586B004E0811886
:100ED00013462046FFF7DDFF36488068002201A94F
:100EE00000F028FA002840D001980028F4D4039C90
:100EF000606910B1201DFFF7CFFD04A8FFF784FF44
:100F0000024601980928E7D8DFE800F00606060542
:100F1000242B06060524DFE70298A1690346091879
:100F20002046FFF7B6FF0028D6D0616A20468847E2
:100F3000E0690128D0D10020009000230298A16927
:100F40000A1800212046FFF7D9FE0028C4D1FFF778
:100F500098FFFEE70298A0610028B8D1FFF791FF43
:100F6000FEE72046FFF7F7FCB6E706B010BD10B568
:100F7000FFF721FE0F4CA068C0B904F11400FFF781
:100F800056FD04F12800FFF752FD04F11400206023
:100F9000002204F1280060600C210A2000F0C2F851
:100FA000A06018B10FF21C0100F0E6FABDE8104095
:100FB000FFF71ABE646B002004ED00E0546D722050
:100FC00053766300546D72510000000080B50A46EC
:100FD00001460FF20C0000F007FB00BE01BD00004F
:100FE0004672656552544F533A4552524F525B25F3
:100FF000785D282573290D0A00000000EFF30980B1
:10100000BFF36F8F264B1A681EF0100F08BF20ED3C
:10101000108A20E9F04F106009B44FF0500080F3BF
:101020001188BFF34F8FBFF36F8FFFF7A0FA4FF018
:10103000000080F3118809BC19680868B0E8F04F17
:101040001EF0100F08BFB0EC108A80F30988BFF3C0
:101050006F8F7047124B19680868B0E8F04F80F343
:101060000988BFF36F8F4FF0000080F3118870473D
:101070000C480068006880F308884FF0000080F397
:10108000148862B661B6BFF34F8FBFF36F8F00DF76
:10109000DFF81400016841F470010160704700003E
:1010A0006C67002008ED00E088ED00E038B5040032
:1010B0000D4602D100F0DBF9FEE7FFF77CFDE16BA6
:1010C000226C20685143084460600020A0632068BF
:1010D000E16B226CA060491E206851430844E06027
:1010E0004FF0FF3104F144000170417075B920697F
:1010F000A0B104F11000FFF7A0FA78B1DFF898145E
:101100004FF08050086000F0ADF907E004F11000E6
:10111000FFF78DFC04F12400FFF789FCFFF764FD65
:10112000012032BDF8B504000D46164602D100F08C
:101130009EF9FEE7002D0EBF482005FB04F0483065
:10114000FFF784FB070007D00097334607F14802FA
:101150002946204600F002F83846F2BD82B0029BD4
:1011600001B91A461A60D86319641846012102B001
:101170009CE72DE9F74F804600245025B8F1000F79
:101180008B461E4600F0CDF8BBF1000F08F1240796
:1011900001D1F86960B9022E02D1B86901280AD1DB
:1011A000FFF7E9FA70B9029860B100F059F9FEE76B
:1011B00000F056F9FEE700F053F9FEE700F047F9BA
:1011C000FFF720F9FFF7F7FC7869B969DFF8C893F2
:1011D00088424FF0805A01D3022E14D1324659462C
:1011E000404600F04CF9396821B13846FFF725FA3E
:1011F00008B904E018B1C9F800A000F033F9FFF70E
:10120000F3FC01203EE0029810B9FFF7EDFC38E056
:1012100014B900F019F90124FFF7E6FCFFF7ECF828
:10122000FFF7C9FC00F015F904BF0021017000F0C0
:1012300006F904BF00214170FFF7D6FC00F024F846
:10124000D8B9FFF7B8FC7869B96988420CBF0125A5
:101250000025FFF7C9FC002DB0D0029908F110005D
:10126000FFF7C2F900F0F3F8FFF7CCF80028A9D196
:10127000C9F800A000F0F6F8A4E700F0E8F8FFF7DE
:10128000C1F80020BDE8FE8F02A96846FFF70FBA3B
:101290002DE9F04780465025B8F1000F89461646E3
:1012A0001F4600F03EF8B9F1000F08F1240401D107
:1012B000E06930BB022F02D1A069012824D1FFF7D9
:1012C000BBFCEFF3118A00F0CBF86069A16988429A
:1012D00001D3022F20D198F945503A46494640465D
:1012E00000F0CDF815F1010F11D1206890B1204622
:1012F000FFF7A3F9002818BF002E0BD001203060A3
:1013000008E000F0ADF8FEE700F0AAF8FEE7681C80
:1013100088F84500012000E000208AF31188BDE82C
:10132000F08706D185F31188BFF34F8FBFF36F8F1E
:10133000FEE770472DE9F44783B004468A4600274C
:10134000502514B900F08CF8FEE7BAF1000F04F153
:10135000100601D1306B38B9FFF70DFA60B9039868
:1013600050B100F07DF8FEE700F07AF8FEE7204685
:1013700000F0C2F8FFF746F8FFF71DFCB56ADFF88A
:1013800018824FF080599DB15146204600F0A1F8D7
:10139000681EB062306838B13046FFF74EF918B1B8
:1013A000C8F8009000F05EF8FFF71EFC012043E053
:1013B000039810B9FFF718FC3DE017B900F044F8A6
:1013C0000127FFF711FCFFF717F8FFF7F4FB04F113
:1013D000440090F9001011F1010F04BF00210170C9
:1013E00000F02DF804BF00214170FFF7FDFB03A9B9
:1013F000FFF74BFF0028204614D100F0B2F8002878
:10140000B5D0039904F12400FFF7EEF8204600F070
:1014100073F8FEF7F7FF0028AED1C8F8009000F08F
:1014200021F8A9E700F068F8FEF7ECFF204600F08D
:1014300098F80028A0D0002004B0BDE8F08790F90B
:10144000011011F1010F70476846FFF729B94046B6
:1014500052E008F1440090F9001011F1010F7047BB
:1014600085F31188BFF34F8FBFF36F8F7047502004
:1014700080F31188BFF34F8FBFF36F8F704770B544
:1014800004461646A56B226CFAB166B9A06800F056
:10149000BDF8A068216C08446168A060884214D33C
:1014A0002068A06011E0E06800F0B0F8206CE1680E
:1014B00040420144E1602268914202D261680844DE
:1014C000E060022E01D105B16D1E681CA0630020F2
:1014D00070BD10B5026C0B466AB1C1684468114416
:1014E000C160A14224BF0168C160C168BDE810406D
:1014F000184600F08BB810BDF8B50446FFF75BFB4B
:1015000004F1440504F1100795F9016007E004F1C6
:101510002400FFF792F808B1FFF7F6F8761E76B2CE
:10152000012E02DB78690028F1D14FF0FF346C7096
:10153000FFF75AFBFFF73FFB95F9006006E03846DE
:10154000FFF77BF808B1FFF7DFF8761E76B2012EC1
:1015500002DB38680028F2D12C70BDE8F140FFF7BB
:1015600043BB10B50446FFF726FBA06B441EA44105
:10157000FFF73AFBE00F10BD10B50022074B53F800
:1015800032402CB943F8321003EBC201486010BD61
:10159000521C082AF3D310BD04ED00E0E46A0020D9
:1015A000F8B504460D461646FFF705FB04F138076B
:1015B00097F90C0010F1010F04BF0020387397F960
:1015C0000D0010F1010F04BF00207873FFF70CFB32
:1015D000386828B93246294604F12400FFF710F88C
:1015E0002046BDE8F24087E70EB400B582B003A9FB
:1015F000009102466B460121034878440A3000F00E
:1016000041F806BC5DF810FBB125000062B38B0702
:1016100008D0521E11F8013B00F8013B00F0248075
:101620008B07F6D1830740F0208000BF103A07D324
:1016300030B4B1E83810103AA0E83810F9D230BC14
:10164000530724BFB1E80810A0E8081044BF51F8C0
:10165000043B40F8043BD20724BF31F8022B20F8AA
:10166000022B44BF0B7803707047083A07D3B1E8E8
:101670000810083A40F8043B40F804CBF7D253076F
:10168000E4E700002DE9F04F93B0804602AE002061
:1016900017461D460291B0610DF130090AE017F8B6
:1016A000011B0298C0470028029000F0AA81B0698F
:1016B000401CB0613878010001D1B069A3E1252850
:1016C000EDD10020F0603061706101E040F0010078
:1016D00017F8011F2029F9D023290DD02B2904D078
:1016E0002D2906D030290AD00CE040F0020080B24B
:1016F000EEE740F00400FAE740F00800F7E740F0BA
:101700001000F4E72A290ED12968296051F8042B2A
:101710002960002A326204D5514240F0040031624F
:1017200080B27F1C13E0002131620BE0316A6FF060
:101730000043994205D001EB810302EB43013039AC
:1017400031627F1C3A78A2F130010A29EED3397850
:101750002E2903D04FF0FF31F1611FE017F8011F70
:101760002A2907D1296829607F1C51F8042B296098
:10177000F26113E00021F1610BE0F1696FF00043C9
:10178000994205D001EB810302EB43013039F1614D
:101790007F1C3A78A2F130010A29EED3B0840FF20F
:1017A000B430397800F0DAF908B117F8010B8DF888
:1017B0002E009DF82E00682804BF3878682803D1D1
:1017C00062208DF82E007F1C0CA8B06017F8014B2A
:1017D000252C13D0582C3CD0632C00F09480642C22
:1017E00018BF692C6DD06F2C33D0702C27D0732C80
:1017F0000AD0752C18BF782C2BD08EE00120F06019
:1018000025208DF8300092E02868286050F8044BBD
:1018100028607460D6F81CA0BAF1000F04D52046E9
:1018200000F0A8F9824607E052460021204600F069
:10183000BDF908B1A0EB040AC6F810A077E028684B
:10184000286050F8041B286001910CA87060782172
:1018500055E09DF82E006C280DD0712818BF6A281D
:1018600009D12868C01D20F007022A60D2E90001D2
:1018700008322A6004E02968296051F8040B2960C5
:1018800001909DF82E00682802D101A8008803E08D
:10189000622802D101A80078019096F82400000780
:1018A00028D5019830B344F02000782822D1F06880
:1018B000302109F80010401C411CF16009F800407B
:1018C00018E09DF82E00294600F0A0F800280190AD
:1018D00002D5F0682D2109E0B08C810702D5F068AF
:1018E0002B2103E0C00705D5F068202109F800107E
:1018F000401CF0600CA8F16808447060214601A803
:1019000000F0AAF813E00120F0602868286050F881
:10191000041B28608DF8301009E00120F0602520BC
:101920008DF830001CB10220F06089F80140306A67
:10193000F168401A7169401A3169441A96F8240016
:10194000400710D42020012C8DF800000BDBA246AC
:1019500001236A4601A9404600F0E5F8002850D16D
:10196000BAF1010AF4D1D6F80CB0BBF1000F0DF1B9
:10197000300A0CD01AF8011B0298C04700280290C8
:101980003FD0B069401CBBF1010BB061F2D1D6F879
:1019900014A03020BAF1010F8DF8000009DB0123FB
:1019A0006A4601A9404600F0BEF850BBBAF1010AF0
:1019B000F5D1D6F810B0D6F804A0BBF1000F0BD0CB
:1019C0001AF8011B0298C0470290D0B1B069401CC0
:1019D000BBF1010BB061F3D196F8240040077FF50D
:1019E00069AE2020012C8DF80000FFF663AE0123C4
:1019F0006A4601A9404600F096F810B9641EF6D177
:101A000058E64FF0FF3013B0BDE8F08F622815D0D4
:101A100068280CD06C2818BF742816D07A2814D1E6
:101A20000A680A6052F8040B0A60002170470A68CD
:101A30000A6052F8040B0A6000B20BE00A680A6000
:101A400052F8040B0A6040B204E00A680A6052F8D7
:101A5000040B0A60C1177047F0B4C2686F2908BF51
:101A6000082405D041F02003782B14BF0A24102449
:101A700018230668642918BF6929374602D1002E49
:101A800048BF7F425FB9056A4DB9082C27D190F84D
:101A90002810090723D530211723D1751FE0B7FB84
:101AA000F4F604FB16773037FFB25D1E3A2FA4BF61
:101AB000A1F1510C674457552B46370003D0856878
:101AC000D618B542EBD3082C09D190F82810090795
:101AD00005D5D15C302902D05B1E3021D1541A4487
:101AE0008260C3F11801026A4161914208DA511A19
:101AF00081614FF6EF72018D11400185F0BC704796
:101B0000002A0ED590F8282002F01402102A08D1DD
:101B1000426A0369D21A8369D21A531A012BA8BFE9
:101B20008361F0BC7047F8B504460D4616461F4663
:101B3000002077B116F8011B6868A047686030B1D3
:101B4000E869401CE86100207F1EF3D1F2BD4FF030
:101B5000FF30F2BD686C747A4C0000000278C9B2A4
:101B60008A421AB11CBF10F8012FF9E718BF0020F4
:101B70007047000000F10103810704D010F8011B39
:101B800089B18107FAD10268B2F10131914311F0B4
:101B9000803F04BF50F8042FF6E710F8011B11B185
:101BA00010F8011BFBE7C01A70470000C9B2830799
:101BB00006D0521E22D310F8013B9942F7D11FE004
:101BC000083A13D302F1040241EA012141EA01413A
:101BD00050F8043B121F21BF4B40A3F1013C2CEAFB
:101BE000030C1CF0803FF3D0C9B2001F083210F87C
:101BF000013B521E28BF91EA030FF8D818BF0120FD
:101C0000401E704738B5050001D1012032BD05F1F5
:101C10003804607818B92070284600F035FB00F0D1
:101C200017F800F00DF821F02A01FFE7416128685C
:101C300000F019F8606020206070A070002032BDB4
:101C40002868016921F49041016128684169704761
:101C5000242060702868C16821F40051C1602846C2
:101C600000F037BA2068C16841F40051C16000201B
:101C700070472DE9F843044604F138070D4678789B
:101C800020281646984641D10DB1300001D10120DF
:101C90003DE03878012839D0012038700020786084
:101CA0002120787000F048FCA6848146E68403E099
:101CB000216815F8010B4860E08CC0B1E08C401E33
:101CC000E08400F026F80DD100F02AF8B8B9288891
:101CD0002168C0F3080048602069002814BF6D1C0B
:101CE000AD1CE9E700F01CF80028E1D007E0CDF8D2
:101CF00000804B460022402100F014F808B1032078
:101D000005E0202078700020387000E00220BDE857
:101D1000F2834B46A068CDF80080B0F5805F704735
:101D200000228021204642E138B5044604F13805FE
:101D3000A87820283DD109B1100001D1012032BD81
:101D40002878012835D001202870A162A2850020C2
:101D500068602220A870636B0FF2C910D863636BB0
:101D60000FF2F9101864636B0FF2F910D8640020B9
:101D7000636B1865134620680A46011D606B00F00E
:101D800054FC002000902068016800914168009197
:101D9000009900212970C16841F48071C1602068F8
:101DA000416941F0010141612068416941F0400110
:101DB00001E0022032BD4161002032BDC1602068D7
:101DC00041694908490041617047416921F040017A
:101DD0004161606B704738B5044623681868D9685C
:101DE0005A6910F00F0507D182065DD58A065BD5CA
:101DF0002046BDE8324023E1D50702D411F4907F9C
:101E000052D0C30705D5CB0503D5E36B43F00103DF
:101E1000E363430705D5D30703D5E36B43F0020320
:101E2000E363830705D5D30703D5E36B43F00403CE
:101E3000E363030705D5D20703D5E26B42F008023E
:101E4000E263E26B002A6CD0800604D5880644BFAA
:101E5000204600F0F5F820684069E16B090701D4DD
:101E600040061BD5204600F0D6F820684169490697
:101E70000FD5FFF7AAFF60B10FF2B9110165606BD2
:101E800000F011FC00284CD0606B016DBDE83440BF
:101E900008472046BDE8324000F0B4BE204600F0BE
:101EA000B1FE0020E06331BD02062AD50A0628D51E
:101EB00094F83900212834D1A068B0F5805F206AF9
:101EC0000BD10088C0F30800586020690028206A00
:101ED0000CBF801C401C206203E0411C2162007882
:101EE0005860E08C401EE08480B2D0B92068C168A0
:101EF00021F08001C1602068C16841F04001C160EB
:101F000031BD40060DD548060BD5D86820F04000FD
:101F1000D860202084F839002046BDE8324000F027
:101F2000B9BE31BD0146886B09680968C90513D47B
:101F30000021C1850168CA6822F48072CA60016804
:101F40004A69520852004A6101684A6922F0400217
:101F50004A61202180F83A1000F00FBE806B00F03B
:101F60009ABE000038B5846B2068406904F13905D9
:101F70002978212906D1000604D50020E0842046D6
:101F800000F040F8206840696978222906D14006AF
:101F900004D50020E085204600F03DF8E06B40F0DD
:101FA0001000E0632046BDE8324000F02BBE2DE972
:101FB000F041069E04460D4690461F462068006884
:101FC0002840A8420CBF01200020404517D116F13F
:101FD000010FF3D026B100F0AFFAC01B8642EDD25C
:101FE0002068C16821F4D071FFF7E8FE04F13800E1
:101FF00020214170817000210170032000E0002049
:10200000BDE8F0810168CA6822F0C002CA602021E0
:1020100080F8391070470168CA6822F49072CA606B
:1020200001684A69520852004A61202180F83A103A
:1020300070470000806B0021C185C18400F0E2BDC3
:1020400080B590F83A10222941D18168B1F5805FBE
:1020500012D10269816A002A0268526805D1C2F36E
:1020600008020A80816A891C04E002F0FF020A80EB
:10207000816A491C81620FE001690029816A04D1EB
:102080004A1C82620268526805E04A1C8262026849
:10209000526802F07F020A70C18D491EC18589B263
:1020A00099B90168CA6822F02002CA600168CA684A
:1020B00022F48072CA6001684A69520852004A617B
:1020C000202180F83A1000F058FD002002BD0220C7
:1020D00002BD2DE9F0470446642520680169E268E5
:1020E00021F44051114301611926C168484A114049
:1020F000A26811432269114362691143E2691143E5
:10210000C1604169A26921F4407111434161E369F1
:102110004049414AB3F5004F3AD1904218BF884236
:102120000ED100F044FE074600F041FE804600F06C
:102130003EFE814600F03BFE824600F038FE0DE098
:1021400000F02DFE074600F02AFE804600F027FE34
:10215000814600F024FE824600F021FE06FB08F3D3
:102160006168490000F05AF8DB003233B3FBF5F345
:10217000B2FBF1F25B00B2FBF5F203F4F87300F08E
:102180005AF8C0003230B0FBF5F000F0070038E03C
:10219000904218BF88420ED100F009FE074600F0B9
:1021A00006FE804600F003FE814600F000FE8246F7
:1021B00000F0FDFD0DE000F0F2FD074600F0EFFD40
:1021C000804600F0ECFD814600F0E9FD824600F01B
:1021D000E6FD06FB08F36168890000F01FF81B01AB
:1021E0003233B2FBF1F2B3FBF5F3B2FBF5F203F0DD
:1021F000F00300F020F800013230B0FBF5F000F001
:102200000F00216880188860BDE8F087000000009A
:10221000F369FFFF0014014000100140B3FBF1F32C
:1022200006FB07F206FB09F7B7FBF1F7B7FBF5F77B
:1022300005FB1733704703EB0212704306FB0AF3EA
:10224000B0FBF1F0B3FBF1F3B0FBF5F005FB1030A0
:102250007047000081B000200090A948416841F417
:1022600080414160416801F4804100910099002162
:102270000091016841F080510160006800F08050D9
:102280000090009801B0704770B586B0044601A870
:10229000142100F0BDFD23689A4A9B489B49934254
:1022A0001ED1002200920A6942F400220A610A69E2
:1022B00002F4002200F012F903210191022102919F
:1022C00001210391032104910821059101A900F046
:1022D000A3FD00220521342000F0A4FE3420C9E033
:1022E00000F00AF928D100200090086940F480101D
:1022F0000861086900F4801000F0D3F840F008008D
:102300000860086800F00800009001A900984FF4E8
:10231000805000F0BAF80420019001A900F0AEF856
:10232000082005907A4800F077FD0022052135202D
:1023300000F078FE35209DE0764EB3424FF4806584
:1023400031D100220092744E4A6942F010024A6173
:102350004A6902F0100200F0C1F84FF4C06100F0C9
:10236000B1F86E48306035614FF000607060002059
:10237000B060F0607061B0614FF48070F0614FF454
:102380004030306200207062304600F0DBF808B167
:1023900000F074FC6663B46300220521252000F080
:1023A00041FE252066E05E4CA3420ED10022009241
:1023B0000A6942F400320A610A6902F4003200F04C
:1023C0008DF80C2100F07EF856E0564883422ED15D
:1023D00000200090086940F480200861086900F43A
:1023E000802000F05EF840F002000860086800F00D
:1023F0000200009001A900982020019000F03EF812
:10240000072000F04AF80220029001950120039075
:1024100001A90320049007200590434800F0FCFC2C
:1024200000220521272000F0FDFD272022E03F4863
:10243000834221D100200090486940F0200048618B
:10244000486900F020000090009800200090086883
:1024500040F004000860086800F00400009001A942
:102460000098C02000F011F800220521472000F05C
:10247000D9FD472000F0F3FD06B070BD02200290A8
:1024800001200390032004907047019002200290E5
:10249000012003900320049008200590104600F0CE
:1024A000BBBC0090009800200090086840F0040039
:1024B0000860086800F00400009000980020009078
:1024C00008687047019102210291012103910321C3
:1024D00004910721059101A900F09EBC0092009A89
:1024E000002200920A6842F001020A60096801F0C5
:1024F00001010091009970470D4D0E4AAB427047A3
:1025000040380240004C0040000002403038024099
:10251000000C024000100140F469002040640240B9
:102520000044004000480040000402400014014004
:10253000005000400008024001484068704700BF5A
:102540005800002070B50446FFF7F6FF06460CB9A8
:10255000012070BD04F1340500202870022068704D
:1025600000F09BF820680168C90708D5FFF7E4FF71
:10257000801B0628F6D320202862032053E0016840
:10258000DFF8D822114062681143A2681143E26863
:1025900011432269114362691143A2691143E2693F
:1025A0001143226A1143626A042A03D1E26A236B4F
:1025B0001A431143016020684169626AC908042A0C
:1025C00042EAC1010AD1A26AE36A114333B1A669A2
:1025D00096B9002A18BF022A20D017D3416120469D
:1025E00000F060F9AA6A3F219140816000202862D2
:1025F00001206870002070BDB6F5005F0AD1032A83
:10260000ECD8DFE802F00D0B0D03E7E7B3F1C07F74
:10261000E4D105E0022A03D9D21EDFD1DA01DDD5EB
:10262000402028620120687070BDF8B5054605F1AC
:10263000340600243078776A012801D10220F2BDE7
:1026400001203070707801281DD102207070346232
:10265000284600F017F9B16A3F208840B860286822
:10266000016841F0160101602868416941F080016C
:102670004161F06820B12868016841F008010160FB
:1026800000F005F801E0347002242046F2BD28680D
:10269000016841F001010160704720680168490844
:1026A00049000160704790F83510022903D080215D
:1026B000416501207047052180F8351000680168E8
:1026C000490849000160002070472DE9F04182B0BF
:1026D0000446002004F1340600904FF41651776A46
:1026E0005F4800683D68B0FBF1F8B16A082000FA65
:1026F00001F10D420ED021680A6852070AD50A6816
:1027000022F004020A60B16A8840B860306A40F082
:1027100001003062B06A25FA00F1C9070BD52168C3
:102720004969090607D5012101FA00F0B860306A4D
:1027300040F0020030620420B16A8840054208D0AF
:1027400021680968890704D5B860306A40F0040040
:1027500030621020B16A884005421DD021680968A6
:10276000090719D5B86020680168490308D50068D1
:1027700000030CD5716908000ED0204688470BE095
:102780000168C90503D4016821F008010160F168FE
:1027900008001CBF20468847B16A202088400542B7
:1027A0003DD021680968C90639D5B86020687178BC
:1027B0000529016818D100F055F8F068002804BF19
:1027C0007069002801D000F056F83F20B16A8840B7
:1027D000B8600020307001207070F16908003BD0B3
:1027E0002046BDE8FC410847490308D500680003BE
:1027F00010D43169080012D0204688470FE00168E4
:10280000C90507D4016821F0100101600020307073
:1028100001207070B16808001CBF20468847306AEC
:10282000D0B1306AC00710D505207070FFF735FFB2
:102830000098401C8045009003D320680068C007C2
:10284000F6D40020307001207070B169080003D008
:102850002046BDE8FC410847BDE8F3813F8010F009
:102860006400002021F0160101602068416921F018
:102870008001416170472068016821F00801016012
:102880007047000030B50468256825F48025256070
:1028900063608068402802D1A260E16030BDA16021
:1028A000E26030BD016801F0FF02103A1823B2FB6C
:1028B000F3F20FF218039B5CC365890A8902042AAC
:1028C00028BF091D816508467047000000061016E4
:1028D0000006101601B54FF6FF7301226946DFF8B6
:1028E0005403FFF7C6F9009802BD2DE9F04186B008
:1028F00000F0CAFB00F0F5F801A8142100F088FAF6
:10290000002000900022DFF83043DFF830532068C9
:10291000DFF82C6340F0040020602021206800F0E4
:10292000040000904FF4E13800F0D6F840F0800049
:102930002060206800F0800000F0CDF840F0010039
:102940002060206800F0010000F0C5F840F00200AF
:102950002060206800F0020000F0BDF840F00800A0
:102960002060206800F0080000900098284600F0E1
:1029700020FB4FF40050019001A9DFF8C80202903B
:1029800000200390DFF8C00200F046FA20200190FA
:1029900001A901200290002003900490284600F035
:1029A0003BFA002000900022206840F48000206064
:1029B00005212068DFF8944200F480000090009820
:1029C0003A2000F02FFB3A2000F049FBDFF88002AC
:1029D0002060C4F804800020A060E06020610C202A
:1029E00060610020A061E0612046FFF70BF9DFF88D
:1029F00064022064C4F844800020A064E064206580
:102A00000C2060650020A065E06504F14000FFF740
:102A1000F9F89148F060C6F8108000207061B0614C
:102A2000F0610C20306200207062B06206F10C0090
:102A3000FFF7E8F8894F8A483862C7F824800020F9
:102A4000B862F862386304F184050C2078630020D2
:102A5000B863F86307F12000FFF7D4F88148C4F8A1
:102A60008000C5F8008000206860A860E8600C2045
:102A7000286100206861A86104F18000FFF7C2F8B6
:102A80007948E863C5F8408000206864A864E86479
:102A90000C20286500206865A86504F1C000FFF7D8
:102AA000B1F801A80FF2D8111422FEF7BFFD0021E2
:102AB00001A800F00EFBE86700F006FB2022394673
:102AC00006F10C00FFF730F9306C0068016821F066
:102AD00008010160FEE70090009800200090206847
:102AE000704700B593B006A8342100F091F901A811
:102AF000142100F08DF9002000905C48016841F03D
:102B000080510160006800F0805000900098002023
:102B100000905748016841F440410160006800F4AA
:102B2000404000900098022006900120099010205B
:102B30000A9002200C9000200D9010200E904FF46F
:102B4000B4700F90022010901190129006A800F01F
:102B500024FB00F099FC0F20019005210220029037
:102B6000002003904FF4A05004904FF48050059043
:102B700001A800F091F813B000BD0168364A9142F7
:102B800000D07047F8B5406B006841682C48027966
:102B900089B222B1202902D100210171F1BD03893E
:102BA0000579202BB4BFC3F1200200224DB1018171
:102BB000202BB4BF5B1AC1F1200300219BB201712D
:102BC00004E0C2F1200320219BB201810024294DA1
:102BD00022490EE092B206788F5CAF55761CF6B2B1
:102BE000770906EB9767BF09A6EB87160670641C8A
:102BF000521CA4B29C42EDDBBDE8F84020220C3010
:102C0000FFF792B8704780B540210F4800F0D5F922
:102C100020210A4800F0D1F94FF47A7000F070FAE0
:102C2000F2E700681449884208BF00F067BC7047AB
:102C300000000000B469002030380240000002406B
:102C40000000002000002110000802404065002024
:102C5000004C0040005000400010014094690020EA
:102C60000044004000480040001401404038024049
:102C700000700040A46A002000000140704700007E
:102C8000143C0008072C0008FEFF000000000000B4
:102C900080000000704770472DE9F04104000D46A8
:102CA00052D0554E00F076F802D200F072F84BD1B7
:102CB0002068524F810712D5400703D5B86840F409
:102CC000E050B8602078000703D5B86840F4604051
:102CD000B860B868A16820F0F0000843B8602078B8
:102CE000C00729D56068012802D13968890305E049
:102CF000022818BF032803D13968890103D423E0CF
:102D00003968890720D5B968890840EA8100B86028
:102D1000FFF712FC8046B868616800F00C00B0EB69
:102D2000810F09D0FFF708FCA0EB080041F28931C0
:102D30008842F0D303202AE0306800F00F0085427B
:102D400004D200F026F801D0012020E020784007CE
:102D500005D5B868E16820F4E0500843B8602078F1
:102D6000000706D5B868216920F4604040EAC10038
:102D7000B86000F0D7F9BA682149C2F30312895C40
:102D8000C84020490860002000F0C0FB0020BDE8DA
:102D9000F0813570306800F00F00A8427047194884
:102DA000194A006812681949C2F3822206E01548E0
:102DB000154A006812681549C2F34232895CC8405E
:102DC00070470F220260104A136803F00303436048
:102DD000136803F0F0038360136803F4E053C360E7
:102DE0001268D20802F4E05202610348006800F061
:102DF0000F00086070470000003C024000380240AD
:102E0000443A000864000020083802401C3C0008D6
:102E10000022FDF7F3BD00002DE9F84F0246002324
:102E2000DFF8A481DFF8A491DFF8A4A14FF00F0B25
:102E300001200C68984000EA040E864540F0B380FB
:102E40004D689C00022D18BF122D0FD1DD0802EB3A
:102E5000850C04F01C05DCF820600BFA05F7BE4376
:102E60000F6907FA05F53543CCF820504FEA430CBB
:102E7000032516680F7905FA0CF5ED4307F00307F3
:102E80002E4007FA0CF73E4316604E68012E18BF1D
:102E9000022E03D0112E18BF122E0FD19668CF68C4
:102EA0002E4007FA0CF73E439660566826EA00006B
:102EB0004E68C6F300169E4030435060D0682840EC
:102EC0008D6805FA0CF52843D0604868C0006AD5C3
:102ED0000020009004F00C06DAF8000040F4804076
:102EE000CAF800000BFA06F4DAF8000000F480409B
:102EF00000900098980859F8205025EA0404354DB0
:102F0000AA4208BF00251DD0334DAA4208BF0125A3
:102F100018D0324DAA4208BF022513D0304DAA4224
:102F200008BF03250ED02F4DAA4208BF042509D0A3
:102F30002D4DAA4208BF052504D02C4DAA420CBF36
:102F400006250725B5402C4349F820406FEA0E00BE
:102F5000D8F8004000EA040C4C68E40348BF4EEA8D
:102F60000C0CC8F800C0D8F8044000EA040C4C6807
:102F7000A40348BF4EEA0C0CC8F804C0D8F80840B7
:102F800000EA040C4C68E40248BF4EEA0C0CC8F896
:102F900008C0D8F80C4020404C68A40248BF4EEA54
:102FA0000000C8F80C005B1C102BFFF441AFBDE81B
:102FB000F18F02B909048161704742690A408A426F
:102FC00008BF090481617047003C01400838014096
:102FD0004438024000000240000402400008024061
:102FE000000C024000100240001402400018024091
:102FF0000901020002D41F48815470471E4802F0A4
:103000000F02104400F8041C70471C490A684FF670
:10301000FF0300021A4000F4E0601043184A104316
:103020000860704738B5154B1B68C3F30223C3F122
:103030000704052C28BF04241D1D072D34BF0023C1
:10304000DB1E012505FA04F4641E2140994005FAAF
:1030500003F35B1E1A401143BDE83440C8E7002863
:1030600007D4012100F01F029140064A400942F8AE
:103070002010704700E400E018ED00E00CED00E0E7
:103080000000FA0500E100E080B50B48016841F45A
:1030900000710160016841F480610160016841F4E0
:1030A000807101600320FFF7B0FF002000F02EFACE
:1030B000FFF7D0F8002002BD003C02400021842828
:1030C00018BFC11C0846704780B5FDF766F900209F
:1030D00002BD3EB504460D46B4F90800FFF7EEFF09
:1030E00002A9019100902B4622692168606892B282
:1030F000FDF768F8012801D000203EBD02983EBDD2
:1031000080B500B90120FDF72AF9002002BD80B585
:10311000FDF731FB012803D0BDE80140FDF776BD86
:1031200001BD00002DE9F041DFF85043DFF84463B2
:103130006268DFF8440302F00C02042A15D0082A62
:1031400002D00C2A08D00FE000F011F82168C1F37A
:103150000141491C490004E000F009F82168C1F36D
:103160000271B0FBF1F000E03046BDE8F08122686A
:10317000256800236D0202F03F0207D52568C5F3DC
:103180008811A0FB01673046394604E02068C0F38F
:103190008818A6FB080100F0F7B92DE9F8430446AA
:1031A000DFF8C8522078C00748D500F05BF9042842
:1031B0000DD000F057F9082802D16868400206D403
:1031C00000F050F90C2809D16868400206D528683B
:1031D000800333D5606888BB012037E16068B0F5B3
:1031E000803F06D0B0F5A02F286806D140F480209B
:1031F0002860286840F4803005E020F480302860A2
:10320000286820F480202860606858B1FFF794F99E
:1032100007462868800311D4FFF78EF9C01B652884
:10322000F7D310E1FFF788F907462868800305D532
:10323000FFF782F9C01B6528F7D304E12078904E90
:1032400080071ED5A86810F00C0F0DD000F00AF909
:10325000082802D16868400206D500F003F90C285E
:1032600023D16868400220D42868800702D5E0682E
:103270000128B1D12868216920F0F80040EAC10096
:103280002860207800073AD561697E4851B3012152
:103290000160FFF751F90746686F80072FD4FFF7E9
:1032A0004BF9C01B0328F7D3CDE0E06868B10120DB
:1032B0003060FFF741F9074628688007DAD4FFF746
:1032C0003BF9C01B0328F7D3BDE03060FFF734F9AA
:1032D000074628688007D4D5FFF72EF9C01B0328BE
:1032E000F7D3B0E00160FFF727F90746686F800762
:1032F00005D5FFF721F9C01B0328F7D3A3E02078F9
:10330000400761D5286CC0004FF000080CD4CDF800
:1033100000804FF00108286C40F080502864286C31
:1033200000F0805000900098DFF84491D9F8000038
:10333000C00512D4D9F8000040F48070C9F800002C
:10334000FFF7FAF80746D9F80000C00505D4FFF7E3
:10335000F3F8C01B0328F6D375E0A068012805D058
:103360000528286F06D140F004002867286F40F038
:10337000010005E0400840002867286F20F00400A5
:10338000286741F28939A06858B1FFF7D5F8074698
:10339000286F800711D4FFF7CFF8C01B4845F7D33B
:1033A00051E0FFF7C9F80746286F800705D5FFF7FA
:1033B000C3F8C01B4845F7D345E0B8F1000F03D070
:1033C000286C20F080502864A06900283DD0A968AE
:1033D00001F00C0108293FF4FFAE022828D100F0CB
:1033E0003DF807462868800105D5FFF7A5F8C01B02
:1033F0000328F7D327E0E069216A0843616A40EABD
:103400008110A16A00F024F8E16A40EA0160216BB2
:1034100040EA01706860012000F021F80746286842
:10342000800112D4FFF788F8C01B0328F7D30AE005
:1034300000F014F807462868800106D5FFF77CF8ED
:10344000C01B0328F7D3032000E00020BDE8F2836F
:10345000891EC903090C40EA01407047002030660C
:10346000FFF76AB8A86800F00C0070470038024007
:10347000007000400024F40000127A00043802407A
:1034800000004742800E4742F8B500F01FF80120C7
:103490002060FFF751F807463068C00305D4FFF7F6
:1034A0004BF8C01BA842F7D30CE001206060FFF787
:1034B00043F807463068800306D4FFF73DF8C01B89
:1034C000A842F7D30320F2BD0020F2BD00200090F7
:1034D00040F2E9350748084C0168054E41F080513B
:1034E0000160006800F08050009000987047000074
:1034F000047000404038024040000E4202484168DB
:1035000002788918416070475800002010B50146C4
:1035100088B000221920FFF785FD1920FFF79FFDD5
:1035200000200090144C1548016841F00101016031
:1035300001A9006800F001000090009802A8FFF7C0
:1035400040FCFFF734FC0E492160400040F2E731B7
:10355000E1600C49B0FBF1F0401E6060002020618A
:10356000A060204600F088F818B9204600F091F8D5
:1035700000E0012008B010BD246B00204438024058
:103580000000014040420F001B4213D1094236D1D6
:103590002AB18446B0FBF2F002FB10C2704700F083
:1035A0009FB9FCD30022002370470B0002000021CA
:1035B00000207047904271EB030CF6D370B5B1FA5E
:1035C00081F4B3FA83F52C1BA340C4F1200532FA31
:1035D00005F63343A2405FF00046E64002E05B0898
:1035E0005FEA3202841A71EB030524BF20462946A4
:1035F0007641F4D302000B003000002170BD012A97
:10360000CFD970B5140C20D0B1FA81F4B2FA82F59A
:10361000C4F120046419B4F12006D6D3B2405FF09F
:103620000044F440002502E052085FEA3303C61A62
:1036300071EB020E24BF3046714664416D41F3D3F5
:1036400002000B002000290070BD0C46B1FBF2F116
:1036500002FB11452D0445EA1045B5FBF2F402FBCF
:10366000145580B240EA0545B5FBF2F002FB10525A
:1036700040EA044070BD000038B5040001D10120CB
:1036800032BD00F020F818B92870204600F026F965
:103690000FE00068C16841F00101C160816801F07C
:1036A0000701062903D0016841F0010101600020F3
:1036B000704702206870211D206800F0ACF80120DE
:1036C0006870002032BD04F13C056878704710B581
:1036D000044620680169890715D5C168890712D594
:1036E0006FF00201016101212177806910F0030F61
:1036F000204602D000F0F5F803E000F0F3F800F007
:1037000087F80020207720680169490715D5C1682E
:10371000490712D56FF00401016102212177806908
:1037200010F4407F204602D000F0DBF803E000F008
:10373000D9F800F06DF800202077206801690907AA
:1037400015D5C168090712D56FF008010161042180
:103750002177C06910F0030F204602D000F0C1F8B5
:1037600003E000F0BFF800F053F800202077206855
:103770000169C90615D5C168C90612D56FF01001D7
:10378000016108212177C06910F4407F204602D0F2
:1037900000F0A7F803E000F0A5F800F039F80020E9
:1037A000207720680169C90708D5C168C90705D510
:1037B0006FF0010101612046FFF733FA20680169CB
:1037C000090608D5C168090605D56FF080010161B9
:1037D000204600F088F820680169490608D5C168CC
:1037E000490605D56FF040010161204600F07CF8E4
:1037F0002068016989060AD5C168890607D56FF076
:10380000200101612046BDE8104000F06EB810BDF7
:10381000204600F06BB8F0B5254B0468254A264DCC
:10382000264E274F984218BFB0F1804F07D0B842BC
:1038300018BFB04203D0A84218BF90420FD1D1F8B0
:1038400004C0984224F0700418BFB0F1804F4CEAD5
:10385000040417D0B8421CBFB042A84212D0904214
:103860001CBF184DA8420DD0174DA8421CBF174DC4
:10387000A84207D0164DA8421FBF164DA842164DAC
:10388000A84203D1CD6824F440742C434D6924F040
:1038900080042C43046098428C68C4620C68846283
:1038A00012BF90420969016301214161F0BD00002E
:1038B0000000014000040140000C004000080040EE
:1038C0000004004000400140004401400048014025
:1038D00000180040001C004000200040704700001D
:1038E00070477047704770477047704770470000D7
:1038F0007047FEE7FEE7FEE7FEE7704710B5FFF70B
:1039000006FC1A4C6088012803D120701848C16B4E
:103910008847608801001CBF401E608010BD1548AC
:10392000FFF7D5BE1449154882B00968C9060AD503
:103930000021009101680A68009249680B4A0091D1
:1039400000990A21518002B0FEF745BA0C48FEF7F3
:1039500042BA0C48FEF73FBA0B48FEF73CBA04489F
:10396000FEF7B3BE0948FEF736BA00000400002097
:10397000F4690020246B0020001001400C0000209E
:10398000C0650020406500208065002000660020A2
:10399000DFF8501001600022DFF84C10CA620A63A1
:1039A0004A638A63CA630A644A648A64CA644A6569
:1039B0008A65CA650A664A660A674A678A678A66C6
:1039C000CA66CA674A618A61CA610021DFF81C20A1
:1039D0001170FF23DFF8182002F83130491C142938
:1039E000FADB7047E43B00081069002044660020C1
:1039F000E46700200E480F4A016841F4700101603D
:103A00000D48016841F001010160002181600168F9
:103A10001140016009494160016821F48021016081
:103A20000021C1604FF00060054908607047000048
:103A300088ED00E0FFFFF6FE003802401030002461
:103A400008ED00E000000000000000000102030497
:103A50000607080919E050F8041BCB0744BFA9F179
:103A600001035918121F0023042A41F8043BF9D21C
:103A70005FEA827C0B4604D54FF0000CA1F800C031
:103A80009B1CD10744BF0021197050F8042B002A59
:103A9000E1D1704730B5016842688468014401EBA8
:103AA0005203D20748BF4C44994201D10C3030BD7B
:103AB00011F9012B11F8015B002A04F8015B02D512
:103AC000521CF9D1F0E7521EF4D5EDE710B50749C5
:103AD00079441831064C7C44163404E00A68081D09
:103AE000114488470146A142F8D110BD2C000000C6
:103AF0004C0000004EF68851CEF20001086840F4F8
:103B000070000860BFF34F8FBFF36F8F4FF00070EE
:103B1000E1EE100A704700003DFFFFFF78620000F1
:103B200028090020000000006DFFFFFF38020000A0
:103B3000A4000000000000200500000010B50446AD
:103B4000044979440E31044878440C3000F006F8FA
:103B5000204610BD100200000802000038B50446DF
:103B60000D46AC4205D0206820188047241DAC4289
:103B7000F9D131BD00F00BF8002801D0FFF7A6FF06
:103B80000020AFF30080FEF7B0FE00F002F8012045
:103B9000704700F001B800000746384600F002F810
:103BA000FBE7000080B5AFF30080024A1100182047
:103BB000ABBEFBE72600020038B504460D4628469A
:103BC00000F006F8A84218BF0024204632BD0000CD
:103BD0000149FEF77FBE00BFE404002000000000A2
:103BE00000000000000000000000000001488047C5
:103BF00001480047F5390008093C0008DFF80400D7
:103C0000FFF7C6BEAC000020AFF30080FFF772FFE5
:103C1000FFF7B0FF5461736B32000000000000003A
:103C200001020304FFF7FEBFFFF7FEBFFFF7FEBF71
:103C3000FFF7FEBFFFF7FEBFFFF7FEBFFFF7FEBFB8
:103C4000FFF7FEBFFFF7FEBFFFF7FEBFFFF7FEBFA8
:103C5000FFF7FEBFFFF7FEBFFFF7FEBFFFF7FEBF98
:103C6000FFF7FEBFFFF7FEBFFFF7FEBFFFF7FEBF88
:103C7000FFF7FEBFFFF7FEBFFFF7FEBFFFF7FEBF78
:103C8000FFF7FEBFFFF7FEBFFFF7FEBFFFF7FEBF68
:103C9000FFF7FEBFFFF7FEBFFFF7FEBFFFF7FEBF58
:103CA000FFF7FEBFFFF7FEBFFFF7FEBFFFF7FEBF48
:103CB000FFF7FEBFFFF7FEBFFFF7FEBFFFF7FEBF38
:103CC000FFF7FEBFFFF7FEBFFFF7FEBFFFF7FEBF28
:103CD000FFF7FEBFFFF7FEBFFFF7FEBFFFF7FEBF18
:103CE000FFF7FEBFFFF7FEBFFFF7FEBFFFF7FEBF08
:103CF000FFF7FEBFFFF7FEBFFFF7FEBFFFF7FEBFF8
:103D0000FFF7FEBFFFF7FEBFFFF7FEBFFFF7FEBFE7
:103D1000FFF7FEBFFFF7FEBFFFF7FEBFFFF7FEBFD7
:103D2000FFF7FEBFFFF7FEBFFFF7FEBFFFF7FEBFC7
:103D3000FFF7FEBFFFF7FEBFFFF7FEBFFFF7FEBFB7
:103D4000FFF7FEBFFFF7FEBFFFF7FEBFFFF7FEBFA7
:103D5000FFF7FEBFFFF7FEBFFFF7FEBFFFF7FEBF97
:103D60009DFEFFFFF8000020B900FCAAFC00000146
:103D7000F9000010FC000124F4F1000001DB000058
:103D8000018100810081008100810081008100812A
:103D900000B1001F02040101546A0020A46A00203F
:103DA000546A0020546A0020546A00202105002033
:063DB00008050020E00000
:0400000508003C09AA
:00000001FF
