:020000040800F2
:10000000F0090020D9C4000821C2000823C200085A
:1000100025C2000827C2000829C20008000000000D
:100020000000000000000000000000005DBD0008AE
:100030002BC200080000000005BD00082DC200080A
:10004000FDC4000801C5000805C5000809C5000871
:100050000DC5000811C5000815C5000819C5000820
:100060001DC5000821C5000825C5000829C50008D0
:100070002DC5000831C5000835C5000839C5000880
:100080003DC5000841C5000845C5000849C5000830
:100090004DC5000851C5000855C5000859C50008E0
:1000A0005DC500084FC2000861C5000865C50008AD
:1000B00069C500086DC5000871C5000875C5000850
:1000C00079C500087DC5000881C5000885C5000800
:1000D00089C5000855C200088DC500087DC200080A
:1000E00091C5000895C5000899C500089DC5000880
:1000F000A1C50008A5C50008A9C50008ADC5000830
:10010000B1C50008B5C50008B9C50008BDC50008DF
:1001100083C2000889C20008C1C50008C5C500081F
:10012000C9C50008CDC500088FC20008D1C50008A8
:10013000D5C500080000000000000000D9C5000877
:10014000DDC50008E1C50008E5C50008E9C50008EF
:10015000EDC50008F1C50008F5C5000895C2000806
:10016000F9C50008FDC5000801C6000805C600085D
:1001700009C600080DC6000811C6000800000000EE
:100180000000000015C6000800000000000000008C
:1001900019C6000800000000000000001DC600088D
:1001A00000000000000000000000000021C6000860
:1001B00025C6000829C600082DC6000831C600085B
:1001C00035C60008DFF8E80804F078BA70B5DFF843
:1001D000E4680D46F17B04460129DFF8DC0807D10D
:1001E0000221017044708570032105F082FB0AE052
:1001F000022908D1AB2101708470AD214170C57016
:10020000042105F042FDF17B2B462246BDE87040FB
:100210000FF2040005F0E6BE5265706F727420495B
:100220006E666F20746F2055707065722825642982
:10023000205B253032585D5B253032585D0D0A0059
:100240000346DFF874082DE9F0410C46AB2101703C
:100250001546AD2141708370C47005711E46DFF8EC
:10026000548898F80F10062E16BF072E042705276E
:10027000012982B008D1791E017043708470C57065
:10028000C9B205F036FB04E0022904BF394605F087
:10029000FCFC98F80F10042F08D12346324602B018
:1002A000BDE8F0410FF2180005F09CBE0095234612
:1002B00032460FF2380005F095FEBDE8F3810000EC
:1002C000526573706F6E736520496E666F20746F30
:1002D00020557070657228256429205B25303258BE
:1002E0005D5B253032585D0D0A0000005265737069
:1002F0006F6E736520496E666F20746F2055707045
:10030000657228256429205B253032585D5B2530D5
:1003100032585D5B253032585D0D0A00401E0628BC
:100320001AD8DFE800F0040A0D13161007000FF2C8
:100330002C0070470FF2380070470FF248007047EA
:100340000FF2540070470FF2600070470FF2680020
:1003500070470FF26C00704764A07047436F6E7473
:10036000726F6C6C65722053746174696300000075
:10037000436F6E74726F6C6C657220427269646751
:1003800065000000436F6E74726F6C6C6572205074
:100390006F727461626C6500536C61766520456EA6
:1003A00068616E6365640000536C61766520526F0E
:1003B0007574696E67000000536C6176650000001B
:1003C000436F6E74726F6C6C657220496E737461EA
:1003D0006C6C65720000000010B590B0402168465A
:1003E00005F012FEDFF8CC46282104F1540005F098
:1003F0000BFE694604F1440004F0FCFF9DF8000088
:10040000002804BF9DF80100002805D02822694675
:1004100004F1540005F018FE10B010BD2DE9F046AF
:100420008A4604462721DFF89406DFF8885611FB38
:100430000AF11F4600EB0109380083B0164614D0BC
:100440006A46514601F018FF9DF803000328A8BF33
:100450009DF8040028745FEA0A0006D041F2A95012
:1004600006226946484405F0DFFD802C04D10FF2D6
:10047000800005F0B7FD36E02A7C402C03D15146C0
:100480000FF27C002DE0202C03D151460FF290009A
:1004900027E0842C21D151460FF2A40005F0A2FDE3
:1004A000BAF1000F1FD0032F1DD341F2AF5003222A
:1004B0003146484405F0B8FD41F2B250FA1EF11C35
:1004C000484405F0B1FDA96A69B1686A05F0EFFD1D
:1004D0000020A86202F05CF905E032780FF280009B
:1004E000514605F07FFDBDE8F786000000000000E2
:1004F00077616974696E67202E2E2E0D0A00000048
:100500004E6F646520257520696E636C7564656443
:10051000202E2E2E20747970652025750D0A00007E
:100520004E6F64652025752072656D6F7665642059
:10053000202E2E2E20747970652025750D0A00005E
:100540004E6F64652025752073656E6473206E6F31
:100550006465696E666F726D6174696F6E0D0A0015
:100560004E6F64652025752073656E647320253099
:1005700032780D0A000000002DE9FC4110F01C004B
:100580000C46154606D0042807D0082808D01028A5
:1005900009D00BE00FF234160AE00FF23C1607E028
:1005A0000FF2401604E00FF2481601E00FF24C166D
:1005B000DFF800752A78B87B202A47D0212A68D036
:1005C000262A2DD0302A2CD0322A68D0862A73D100
:1005D0006878AA7812281FD11046FFF79FFE804640
:1005E000324621460FF2281005F0FCFCA879019054
:1005F0004146687900902B79EA780FF2381005F0BF
:10060000F1FC396B11B1F86A05F051FD0020386337
:10061000BDE8F64102F08ABA33460FF24C1033E0DF
:10062000002850D06878032803D1AA780FF2601010
:1006300004E0012804D1AA780FF28410334623E0A5
:10064000022840D132460FF2A81030E06978012923
:1006500009D013D3032901D00AD30FE098B3AA78A5
:100660000FF2B8100EE070B3AA780FF2D41009E0C0
:1006700048B3324621460FF2EC1018E018B3AA78BE
:100680000FF200203346214602B0BDE8F04105F0EC
:10069000A9BC07F14400BDE8F64104F0E3BF697866
:1006A000022910D178B1324621460FF20C2002B057
:1006B000BDE8F04105F096BC28B100966B780FF2CA
:1006C0001C2005F08FFCBDE8F381000073696E67A4
:1006D0006C6563617374000062726F61646361735F
:1006E000740000006D756C746963617374000000C0
:1006F0006578706C6F72657200000000556E6B6EED
:100700006F776E206672616D6574797065000000A8
:100710004E6F6465202575207361797320564552AC
:1007200053494F4E205245504F525420282573298B
:100730000D0A00005A2D57617665202573207072CE
:100740006F746F636F6C2076253032752E253032D2
:10075000752C204170702E2076253032752E253074
:1007600032750D0A000000004E6F6465202575206B
:10077000736179732056455253494F4E20636F6D14
:100780006D616E6420257520282573290D0A0000EF
:100790004E6F646520257520736179732053574926
:1007A000544348204D554C54494C4556454C2052D5
:1007B00045504F525420257520282573290D0A00D5
:1007C0004E6F6465202575207361797320535749F6
:1007D000544348204D554C54494C4556454C2053A4
:1007E000455420257520282573290D0A0000000096
:1007F0004E6F6465202575207361797320535749C6
:10080000544348204D554C54494C4556454C20477F
:10081000455420282573290D0A0000004E6F646599
:10082000202575207361797320424153494320523A
:1008300045504F525420257520282573290D0A0054
:100840004E6F646520257520736179732042415392
:1008500049432053455420257520282573290D0A26
:10086000000000004E6F6465202575207361797368
:100870002042415349432047455420282573290DE0
:100880000A0000004E6F646520257520736179733E
:10089000206E6F6E6520737570706F727465642062
:1008A000424153494320636F6D6D616E642025752D
:1008B00020282573290D0A004E6F646520257520B8
:1008C00073617973204D45544552205245504F5223
:1008D0005420282573290D0A000000004E6F64651E
:1008E000202575207361797320636F6D6D616E646F
:1008F000636C6173732025752C20636F6D6D616E61
:100900006420257520282573290D0A002DE9F74F4D
:1009100010F01C001D4604D0042805D0082806D07D
:1009200008E00FF29C1007E00FF2A81004E00FF2AD
:10093000B81001E00FF2C4100C9CDFF87881019030
:100940000A46A0789DF80810009023780FF2C8108E
:1009500005F048FB002D1CBF2878002845D00FF279
:10096000DC1200F0C1F90126DFF830990DE005F046
:100970009FFB074600F0B4F9AB5D40444A46C7F51B
:1009800080617C3005F0B0FB761C2878B04208F11D
:100990007C00ECDA05F026FB0FF2AC1200F0A4F9B3
:1009A0004FF00109012619E001274FF0080AA85D60
:1009B00007420CD000F094F9834600F091F94044CE
:1009C0004B4639A2CBF580617C3005F08DFB7F0072
:1009D000BAF1010A09F10109E9D1761C2878B0427F
:1009E000E2DA08F17C0005F0FDFA30A005F0FAFA31
:1009F0002178202920D0212944D0262902D030294D
:100A000033D049E06178032905D1A2789DF8081018
:100A10000FF2441043E0012905D1A2789DF8081097
:100A20000FF260103BE0022912BF0FF280109DF818
:100A300008100FF2A81020E06178012908D011D326
:100A4000032901D008D30DE0A1780FF2B41014E00F
:100A5000A1780FF2C01010E0BDE8FE4F0FF2C810F1
:100A600005F0C0BA0FF2CC1007E06178032906BF89
:100A7000A1780FF2E4100FF2FC1003B0BDE8F04FC4
:100A800005F0B0BA0FF2182005F0ACFA08F14400F6
:100A9000BDE8FE4F04F0E6BD62780FF2202003B0FF
:100AA000BDE8F04F05F09EBA202575002A20000011
:100AB000FC000020B800002010A60020086E0020D6
:100AC0007669727475616C2073696E676C656361B9
:100AD000737400007669727475616C2062726F6164
:100AE00064636173740000007669727475616C20D0
:100AF0006D756C746963617374000000766972745B
:100B000075616C20556E6B6E6F776E206672616DCD
:100B100065747970650000004E6F6465202575204E
:100B20007361797320746F202575202D2025752C15
:100B300020257520282573290D0A0000204E6F649A
:100B4000656D61736B3A200044657374696E6174FE
:100B5000696F6E203A000000535749544348204DB6
:100B6000554C54494C4556454C205245504F5254D3
:100B700028534E6F64652D25642920253032580D89
:100B80000A000000535749544348204D554C5449DE
:100B90004C4556454C2053455428534E6F64652DA3
:100BA00025642920253032580D0A00004E6F6E65ED
:100BB00020737570706F7274656420535749544385
:100BC00048204D554C54494C4556454C20636F6D5B
:100BD0006D616E6420253032580D0A005357495418
:100BE0004348204D554C54494C4556454C204745AB
:100BF0005428534E6F64652D2564290D0A000000AA
:100C00004241534943205245504F525420253032DF
:100C1000580D0A0042415349432053455420253082
:100C200032580D0A00000000424153494320474515
:100C3000540D0A004E6F6E6520737570706F72747C
:100C4000656420424153494320636F6D6D616E645A
:100C500020253032580D0A0053454E534F52204242
:100C6000494E415259205245504F5254202530325E
:100C7000580D0A004E6F6E6520737570706F727438
:100C800065642053454E534F522042494E415259BC
:100C900020636F6D6D616E6420253032580D0A003F
:100CA000434F4E54524F4C4C4552205245504C49A4
:100CB000434154494F4E0D0A00000000436F6D6DD3
:100CC000616E64636C61737320253032582C20434D
:100CD0006F6D6D616E6420253032580D0A00000082
:100CE00008F17C0005F0E4B94FF4806108F17C0064
:100CF00005F0FAB90FF21C0110B1012803D005E08C
:100D00000FF2180004E00FF2A80001E00FF23C100F
:100D100005F068B94572726F72000000436F6D6D27
:100D2000756E69636174696F6E2077697468205AA3
:100D30002D57617665206D6F64756C6520776173E2
:100D4000206C6F737428257329207768696C65207F
:100D500073656E64696E6720636F6D6D616E642E7E
:100D60000D0A436865636B20746865206361626C7B
:100D70006520616E642065697468657220726574AF
:100D8000727920746865206F7065726174696F6E26
:100D9000206F7220726573746172742074686520AC
:100DA0006170706C69636174696F6E2E0D0A00006A
:100DB000436F6D6D756E69636174696F6E207769DD
:100DC0007468205A2D57617665206D6F64756C6567
:100DD0002074696D6564206F7574282573292077E8
:100DE00068696C652077616974696E6720666F72E7
:100DF00020726573706F6E73652E0D0A43686563AC
:100E00006B20746865206361626C6520616E64208C
:100E1000656974686572207265747279207468659A
:100E2000206F7065726174696F6E206F72207265D9
:100E3000737461727420746865206170706C69638A
:100E40006174696F6E2E0D0A00000000436F6D6DB6
:100E5000756E69636174696F6E2077697468205A72
:100E60002D57617665206D6F64756C6520776173B1
:100E7000206C6F7374282573292E0D0A43686563EF
:100E80006B20746865206361626C6520616E64200C
:100E9000656974686572207265747279207468651A
:100EA000206F7065726174696F6E206F7220726559
:100EB000737461727420746865206170706C69630A
:100EC0006174696F6E2E0D0A00000000002800F0AA
:100ED0008380012832D0022833D0032855D004283B
:100EE00056D0052872D006286AD007286BD008286B
:100EF00057D009285BD00F2826D0102827D01128DA
:100F000028D0122829D013282AD0152861D01628D5
:100F10004AD017284ED018284FD0202823D0212877
:100F200024D030282BD0312826D040282AD0502851
:100F300031D0A1281DD0FF2830D050E00FF2A400FE
:100F400070470FF2B40070470FF2C00070470FF205
:100F5000CC0070470FF2D40070470FF2E4007047E6
:100F60000FF2EC0070470FF2F80070470FF200101C
:100F700070470FF2101070470FF2181070470FF201
:100F80001C1070470FF2201070470FF22C107047A2
:100F90000FF2381070470FF23C1070470FF24810F4
:100FA00070470FF2581070470FF25C1070470FF245
:100FB000641070470FF26C1070470FF27810704792
:100FC0000FF2801070470FF2881070470FF29410E4
:100FD00070470FF2A41070470FF2A81070470FF27D
:100FE000B010704747656E6572696320436F6E7419
:100FF000726F6C6C65720000537461746963204396
:101000006F6E74726F6C6C65720000005265706573
:101010006174657220536C617665000042696E618F
:101020007279205377697463680000004D756C74A1
:10103000696C6576656C205377697463680000009D
:1010400052656D6F746520537769746368000000A2
:10105000546F67676C65205377697463680000009C
:1010600042696E6172792053656E736F7200000081
:1010700053656E736F72204D756C74696C6576651F
:101080006C00000053656E736F7220416C61726D6D
:10109000000000004D6574657200000050756C73AF
:1010A00065204D6574657200456E74727920436FDA
:1010B0006E74726F6C000000415620436F6E747244
:1010C0006F6C20506F696E7400000000446973708B
:1010D0006C61790053656D6920496E7465726F703B
:1010E000657261626C6500004E6F6E20496E7465BA
:1010F000726F70657261626C6500000054686572A1
:101100006D6F73746174000056656E74696C617400
:10111000696F6E0057696E646F7720436F766572F2
:10112000696E670053656375726974792050616EEA
:10113000656C000057616C6C20436F6E74726F6C4D
:101140006C6572004170706C69616E6365000000CF
:1011500053656E736F72204E6F7469666963617454
:10116000696F6E004E6574776F726B204578746599
:101170006E646572000000005A6970204E6F6465ED
:10118000000000004E6F2064657669636500000012
:10119000556E6B6E6F776E2044657669636520745B
:1011A000797065002DE9FC420D46DFF8E04C6719C7
:1011B000411E06291E4662D8DFE801F0040D1627FD
:1011C000613F5C00324602B0BDE8F04201210FF2FF
:1011D000D00004F007BF2A4602B0BDE8F042022169
:1011E0000FF2141004F0FEBE107851780BB90020F5
:1011F00002E00328A8BF084600F0AEF903460096B7
:101200002A4603210FF24C100FE0107851780BB9E9
:10121000002002E00328A8BF084600F09DF903461D
:1012200000962A4604210FF2A01004F0DBFE0DB157
:101230000020F874DFF8582C2AE0107851780BB9A8
:10124000002002E00328A8BF08462073E57294F846
:101250000C904846FFF73AFE01960346CDF8009001
:101260002A4606210FF2DC1004F0BCFE6DB100200E
:10127000F8740AE0324607210FF2302003E00146FD
:1012800032460FF2882004F0ADFE0020E063002219
:1012900004F1440002B0BDE8F042E0E14C2C00084B
:1012A000524E4E3A205B52454D4F56455F4E4F448D
:1012B000455F5354415455535F4C4541524E5F5224
:1012C000454144592825303258295D202D20576149
:1012D0006974696E672E2E2E20284E6F6465696EC4
:1012E000666F726D6174696F6E206C656E6774688D
:1012F000202575290D0A0000524E4E3A205B5245BA
:101300004D4F56455F4E4F44455F535441545553DE
:101310005F4E4F44455F464F554E44282530325866
:10132000295D20202D204E6F646520666F756E64E8
:10133000202530337520284E6F6465696E666F72A4
:101340006D6174696F6E206C656E677468202575B9
:10135000290D0A00524E4E3A205B52454D4F5645DC
:101360005F4E4F44455F5354415455535F52454D72
:101370004F56494E475F534C415645282530325809
:10138000295D20202D2052656D6F76696E67205390
:101390006C617665204E6F6465202530337520289A
:1013A0002573292E2E2E20284E6F6465696E666F78
:1013B000726D6174696F6E206C656E67746820254C
:1013C00075290D0A00000000524E4E3A205B52452E
:1013D0004D4F56455F4E4F44455F5354415455530E
:1013E0005F52454D4F56494E475F434F4E54524F03
:1013F0004C4C45522825303258295D20202D205252
:10140000656D6F76696E6720436F6E74726F6C6C7A
:101410006572204E6F646520253033752028257352
:10142000292E2E2E20284E6F6465696E666F726DB0
:101430006174696F6E206C656E677468202575290C
:101440000D0A0000524E4E3A205B52454D4F564514
:101450005F4E4F44455F5354415455535F444F4E84
:10146000452825303258295D20202D2052656D6F8A
:1014700076696E67204E6F646520253033752028AD
:101480002573282530325829292E2E2E20284E6FDC
:101490006465696E666F726D6174696F6E206C65EC
:1014A0006E677468202575290D0A0000524E4E3A69
:1014B000205B52454D4F56455F4E4F44455F535458
:1014C000415455535F4641494C45442825303258D4
:1014D000295D20202D2052656D6F7665204E6F644A
:1014E00065206661696C65642E2E2E20284E6F641F
:1014F00065696E666F726D6174696F6E206C656E82
:10150000677468202575290D0A000000524E4E3A76
:10151000205B253032585D20202D20556E6B6E6F7C
:10152000776E207374617475732C2073746F707090
:10153000696E672E2E2E20284E6F6465696E666F69
:10154000726D6174696F6E206C656E6774682025BA
:1015500075290D0A000000002073E572207BB5E4B8
:10156000F0B5471E062F83B01D46DFF82049DFF88F
:10157000E46B68D8DFE807F00411162636426200F3
:101580002A4601210FF2DC0004F02CFD03B0BDE877
:10159000F04000211420FEF719BE2A4602210FF266
:1015A000281026E01078527813B90020207303E049
:1015B0000328B4BFA072A27261722A4603210FF2FF
:1015C000641016E01078527813B90020207303E0FD
:1015D0000328B4BFA072A27261722A4604210FF2DE
:1015E000A81006E0324600F0DBF92A4605210FF28A
:1015F000002003B0BDE8F04004F0F4BC002200F08D
:10160000CFF9A67A3046FFF761FC0346627A0FF203
:10161000502001950096062104F0E4FC627AA07A3D
:10162000A118C87403B00021E1630028BDE8F040B0
:101630000CBF002201210420FEF702BE2A4607212A
:101640000FF2942003E001462A460FF2003004F026
:10165000C9FC324604F1440003B0BDE8F040052166
:1016600003F0D4BF414E4E3A205B4144445F4E4F9D
:1016700044455F5354415455535F4C4541524E5F6E
:1016800052454144592825303258295D20202020D8
:1016900020202D205072657373206E6F6465206268
:1016A0007574746F6E2E2E2E20284E6F6465696ED1
:1016B000666F726D6174696F6E206C656E677468B9
:1016C000202575290D0A0000414E4E3A205B414409
:1016D000445F4E4F44455F5354415455535F4E4F02
:1016E00044455F464F554E442825303258295D20E9
:1016F0002020202020202D2057616974696E6720EA
:101700002E2E2E20284E6F6465696E666F726D6195
:1017100074696F6E206C656E677468202575290D7D
:101720000A000000414E4E3A205B4144445F4E4F58
:1017300044455F5354415455535F414444494E47D7
:101740005F534C4156452825303258295D202020D2
:1017500020202D20416464696E6720536C6176659A
:1017600020756E69742E2E2E204E6F6465696E662C
:101770006F726D6174696F6E206C656E677468203E
:1017800025750D0A00000000414E4E3A205B414491
:10179000445F4E4F44455F5354415455535F414459
:1017A00044494E475F434F4E54524F4C4C4552288C
:1017B00025303258295D202D20416464696E6720F0
:1017C000436F6E74726F6C6C657220756E69742EE7
:1017D0002E2E204E6F6465696E666F726D6174693E
:1017E0006F6E206C656E6774682025750D0A0000A9
:1017F000414E4E3A205B4144445F4E4F44455F5357
:1018000054415455535F50524F544F434F4C5F44D3
:101810004F4E452825303258295D202020202D208C
:101820004E6F772073746F7070696E672C206170D3
:101830007020686173206E6F7468696E672E2E2E3B
:1018400020284E6F6465696E666F726D6174696F92
:101850006E206C656E677468202575290D0A00007E
:10186000414E4E3A205B4144445F4E4F44455F53E6
:1018700054415455535F444F4E4528253032582922
:101880005D202020202020202020202020202D200E
:101890004E6F646520696E636C756465642C20739B
:1018A000746F7070696E672E2E2E202575202D2086
:1018B000257328253032582920284E6F6465696EBB
:1018C000666F726D6174696F6E206C656E677468A7
:1018D000202575290D0A0000414E4E3A205B4144F7
:1018E000445F4E4F44455F5354415455535F464106
:1018F000494C45442825303258295D20202020209D
:101900002020202020202D204164644E6F646554E7
:101910006F4E6574776F726B206661696C65642CBD
:101920002073746F7070696E672E2E2E20284E6F94
:101930006465696E666F726D6174696F6E206C6547
:101940006E677468202575290D0A0000414E4E3AD5
:10195000205B253032585D202020202020202020B0
:101960002020202020202020202020202020202D6A
:1019700020556E646566696E656420737461747564
:101980007320284E6F6465696E666F726D6174694D
:101990006F6E206C656E677468202575290D0A00CE
:1019A000052104F1440003F031BE0A224A4301003C
:1019B00006BF00210FF208000FF2340004F012BB42
:1019C00053656E6444617461203A205375636365A6
:1019D00073732E2E2E205B253032585D20547854A0
:1019E000696D65203D2025756D730D0A00000000AE
:1019F00053656E6444617461203A204661696C7578
:101A000072652E2E2E205B253032585D205478547E
:101A1000696D65203D2025756D730D0A000000007D
:101A20000246DFF86804416B0FF2040004F0DABAF2
:101A3000526571756573744E6F64654E656967684C
:101A4000626F725570646174655F436F6D706C2076
:101A50005B253033755D3A20253032580D0A000081
:101A6000DFF82814496B00280CBF0FF20C000FF2AE
:101A7000440004F0B7BA00005265717565737420B4
:101A80004E6F646520496E666F207472616E736D6F
:101A90006974746564207375636365737366756CCC
:101AA0006C7920666F72206E6F64652025750D0A53
:101AB0000000000052657175657374204E6F646597
:101AC00020496E666F207472616E736D6974206652
:101AD00061696C656420666F72206E6F6465202595
:101AE000750D0A0080B5002201210620FEF7A8FB33
:101AF000BDE802400FF2040004F074BA5A575F5375
:101B0000657444656661756C7420646F6E652E2E15
:101B10002E0D0A0038B504460A4621460FF2580039
:101B2000DA4D04F05FFA012C06D0062C0AD0072CFF
:101B30000BD0802C0CD012E00FF27C0004F052FA93
:101B400001200AE00FF2980004E00FF2B80001E073
:101B50000FF2D40004F046FA0020A86331BD0FF262
:101B6000F00004F03FFA05F14400BDE83840DFF82A
:101B7000342E002103F0CABD5A575F5365744C657B
:101B800061726E4D6F64652063616C6C6261636B42
:101B90002073746174757320253032582C20736F54
:101BA0007572636520253032582C206C656E2025B7
:101BB0003032580D0A0000005A575F5365744C6567
:101BC00061726E4D6F6465204C4541524E5F4D4FC2
:101BD00044455F535441525445440D0A00000000EF
:101BE0005A575F5365744C6561726E4D6F64652022
:101BF0004C4541524E5F4D4F44455F444F4E450D5D
:101C00000A0000005A575F5365744C6561726E4D4F
:101C10006F6465204C4541524E5F4D4F44455F46D1
:101C200041494C45440D0A005A575F5365744C6551
:101C300061726E4D6F6465204C4541524E5F4D4F51
:101C400044455F44454C455445440D0A000000009E
:101C50005A575F5365744C6561726E4D6F646520B1
:101C6000556E6B6E6F776E207374617475730D0AA9
:101C70000000000010B5044621460FF2340004F0C5
:101C8000B1F98248416B1CB1022C07D003D308E0A4
:101C90000FF2480008E00FF2700005E00FF2A0001C
:101CA00002E021460FF2D400BDE8104004F09AB9DA
:101CB0005A575F52656D6F76654661696C65644E13
:101CC0006F64652063616C6C6261636B2073746127
:101CD00074757320253032580D0A00004661696C16
:101CE0006564206E6F64652025303364206E6F74E8
:101CF0002072656D6F766564092D205A575F4E4FCF
:101D000044455F4F4B0D0A004661696C6564206E67
:101D10006F646520253033642072656D6F7665646D
:101D200009092D205A575F4641494C45445F4E4FA3
:101D300044455F52454D4F5645440D0A0000000092
:101D40004661696C6564206E6F646520253033647C
:101D5000206E6F742072656D6F766564092D205A50
:101D6000575F4641494C45445F4E4F44455F4E4F97
:101D7000545F52454D4F5645440D0A005A575F5225
:101D8000656D6F76654661696C65644E6F6465204C
:101D9000756E6B6E6F776E2073746174757320252A
:101DA000640D0A0038B5394C211D04F1440003F0DC
:101DB000E6FC00285ED02079410705D5C00654BF57
:101DC0000FF2D40233A209E0C10648BFE0A205D455
:101DD000C0074CBF0FF2CC020FF2D4024FF4806167
:101DE00004F17C0004F080F900F0B9F800F0B6F8D6
:101DF00020440FF2C40200F0B6F86079A0B1207957
:101E0000400704F17C0006D504F052F900F0A6F872
:101E10000FF2B00205E004F04BF900F09FF80FF26A
:101E2000B802204400F09FF82079000708D500F0A0
:101E300096F800F093F820440FF2B00200F093F807
:101E40002079800708D500F08AF800F087F8204450
:101E50000FF2AC0200F087F82079800612D500F06E
:101E60007EF800F07BF820440FF2A802C5F58061EF
:101E70007C3005E00FF2AC024FF4806104F17C008D
:101E800004F032F904F17C0032BD0000B8000020FB
:101E9000A511000853495300496E636C7573696F4F
:101EA0006E0000005365636F6E646172790000001C
:101EB0005072696D6172790020436F6E74726F6C3D
:101EC0006C65720020696E206120534953206E6555
:101ED00074776F726B00000020696E20612053558B
:101EE00043206E6574776F726B0000002C202852BF
:101EF00065616C207072696D617279290000000063
:101F00002C20284F74686572206E6574776F726B31
:101F1000290000002C20284E6F206E6F6465732905
:101F200000000000436F6E74726F6C6C657220432A
:101F30006F756C64206E6F742064657465726D6972
:101F40006E6520436F6E74726F6C6C6572204361B6
:101F5000706162696C69746965730000054604F11B
:101F60007C0004F0A5B8C5F580617C3004F0BCB8F5
:101F70002DE9F947DFF8444BDFF8445B4FF00009E7
:101F8000A4F8069084B085F8069005F10D0221466C
:101F900005F1440003F0DAF905F1440003F082FB97
:101FA0000146697101270FF2B01004F01BF8687B3D
:101FB000A378627821780190E07800900FF2A81061
:101FC00004F010F8022104F1080004F01DF804F1F7
:101FD00008000090631D4FF482702118221D05F146
:101FE000440003F0EFFB2079C00704D50FF2A810DE
:101FF00003F0F8FF06E0FFF7D5FE01460FF2AC1044
:1020000003F0F0FF05F11400002100220023002658
:102010004EC004F10C00C8464EC0DFF8046BE82146
:10202000304603F0F1FFE82104F11C0003F0ECFF5F
:1020300004E0083708F101005FFA80F86079804514
:1020400063DA04EB0800007A0028F2D04FF00109AF
:102050004FF0000A04F1080009FA0AF110F808002C
:1020600008424BD002AAF9B2FFB200F005F92723CB
:10207000DFF8B00A13FB07F3184441F2A953062214
:1020800002A9184403F0D0FF9DF80C00E919087567
:10209000A1796218491C1773A1716A7B974219D004
:1020A0009DF808209DF80910120601F0600101D486
:1020B0000A000FD0AA79B754521CAA7139B99DF8F9
:1020C0000810490606D5E179491CE17102E0E219E0
:1020D00082F81B90FEF7FAFE00909DF808109DF81C
:1020E0000900090600F060034CBF0FF2D002DFF8D0
:1020F000382A39460FF2CC0003F074FF7F1C0AF136
:10210000010ABAF1080FA5DB94E7A9790FF2CC0018
:1021100003F068FF0498B0B1FEF75EF9DFF8040A37
:10212000AA79019004F11C03E0790090314605F191
:10213000540004F0A3F900280CBF0FF2C0000FF206
:10214000FC0003F04FFF484606B0BDE8F0870000F2
:102150005355430061150008535543204944202539
:102160003033750D0A0000004465766963652048C8
:102170006F6D65494420253032582530325825305E
:102180003258253032582C204E6F64654944202542
:102190003033750D0A000000446576696365206977
:1021A0007320536C6176650D0A0000004465766902
:1021B00063652069732025730D0A0000545255454C
:1021C000200000004E6F6465202530337520257394
:1021D00020253032582025730D0A00004C69737495
:1021E000656E696E67206E6F6465732072656769DE
:1021F0007374657265642025750D0A004E657477E9
:102200006F726B4D616E6167656D656E745F496E6F
:1022100069743A20457373656E7469616C206675E4
:102220006E6374696F6E616C697479204E4F5420CF
:10223000737570706F727465640D0A004E65747703
:102240006F726B4D616E6167656D656E745F496E2F
:1022500069743A20457373656E7469616C206675A4
:102260006E6374696F6E616C6974792073757070D8
:102270006F727465640D0A0005F1440003F04CB9F7
:1022800020280FF2E0012CD0212839D0232864D057
:10229000252853D0262854D027284CD0322844D083
:1022A0004F2857D056282ED0602841D062282DD0F4
:1022B000702822D0712817D0722830D0732816D0F9
:1022C00075282FD0762827D0822822D084283ED087
:1022D00085280FD0862837D0942808BF0FF29C019C
:1022E0003DE00FF2B8013AE00FF2C40137E00FF21F
:1022F000D40134E00FF2E80131E00FF200112EE0DA
:102300000FF214112BE00FF2381128E00FF24C11EC
:1023100025E00FF2601122E00FF26C111FE00FF2C6
:102320007C111CE00FF2981119E00FF2B01116E0C9
:102330000FF2BC1113E00FF2F41110E00FF20821BC
:102340000DE00FF220210AE00FF2382107E00FF232
:102350004C2104E00FF25C2101E00FF274210846E9
:1023600070470000556E6B6E6F776E20436F6D6D1A
:10237000616E6420436C617373000000434F4D4DE8
:10238000414E445F434C4153535F53494D504C457C
:102390005F41565F434F4E54524F4C00434F4D4D9B
:1023A000414E445F434C4153535F424153494300C4
:1023B000434F4D4D414E445F434C4153535F414C5D
:1023C00041524D00434F4D4D414E445F434C4153AC
:1023D000535F504F5745524C4556454C0000000046
:1023E000434F4D4D414E445F434C4153535F415326
:1023F000534F43494154494F4E000000434F4D4D08
:10240000414E445F434C4153535F434F4E4649470F
:1024100055524154494F4E00434F4D4D414E445F3C
:10242000434C4153535F434F4E54524F4C4C4552D3
:102430005F5245504C49434154494F4E0000000003
:10244000434F4D4D414E445F434C4153535F4352C4
:10245000435F31365F454E4341500000434F4D4D81
:10246000414E445F434C4153535F444F4F525F4C86
:102470004F434B00434F4D4D414E445F434C4153FE
:10248000535F4841494C0000434F4D4D414E445F1E
:10249000434C4153535F4C4F434B0000434F4D4D12
:1024A000414E445F434C4153535F4D414E5546416D
:1024B0004354555245525F535045434946494300A2
:1024C000434F4D4D414E445F434C4153535F505237
:1024D0004F54454354494F4E00000000434F4D4D6B
:1024E000414E445F434C4153535F4D455445520068
:1024F000434F4D4D414E445F434C4153535F4D5507
:102500004C54495F4348414E4E454C2F434F4D4D2F
:10251000414E445F434C4153535F4D554C54495FCA
:10252000494E5354414E434500000000434F4D4D2A
:10253000414E445F434C4153535F535749544348C2
:102540005F414C4C00000000434F4D4D414E445FF5
:10255000434C4153535F5357495443485F42494E9C
:1025600041525900434F4D4D414E445F434C4153FE
:10257000535F5357495443485F4D554C54494C455C
:1025800056454C00434F4D4D414E445F434C4153E3
:10259000535F56455253494F4E000000434F4D4D37
:1025A000414E445F434C4153535F57414B455F5548
:1025B00050000000434F4D4D414E445F434C41534A
:1025C000535F5A49505F364C4F5750414E00000000
:1025D000434F4D4D414E445F434C4153535F5A4925
:1025E0005000000070B5044684B0651E80B3112C05
:1025F0002EDA21460FF26C0003F0F4FC2721DFF8FD
:1026000024056943451841F2D0502844A4A64179D5
:10261000029101790191C178009183784278017823
:102620000FF2700003F0DEFC21460FF2CC0003F045
:10263000D9FC0024281941F2D951405C01000FD087
:10264000FFF71EFE0146304603F0CCFC641CF1E7A8
:10265000214604B0BDE870400FF2D80003F0C2BCC0
:102660007FBD00004E6F6465696E666F726D617448
:10267000696F6E2072656769737465726564206640
:102680006F72206E6F6465494420253033640D0AF3
:10269000000000006361706162696C6974792025D3
:1026A0003032582C20736563757269747920253037
:1026B00032582C207265736572766564202530323D
:1026C000582C206E6F64655479706520426173697F
:1026D0006320253032582C2047656E65726963206F
:1026E000253032582C205370656369666963202554
:1026F0003032580D0A000000436F6D6D616E64202A
:10270000436C617373657320726567697374657276
:10271000656420617320737570706F7274656420D6
:10272000666F72206E6F6465494420253033640DF6
:102730000A00000044756D704E6F6465496E666FE7
:10274000206E6F64656964206E6F742076616C69B9
:102750006420253033640D0A0000000001460FF2AA
:10276000080003F03FBC00005A575F526571756561
:1027700073744E6574776F726B5570646174652005
:10278000737461747573202D2025640D0A00000098
:1027900070B5DFF82C43DFF88C13DFF884330020AA
:1027A000A06241F665000A5C521CA579AA420CDAC7
:1027B0009D5C272675430D4441F2B256AD5D002D58
:1027C000F2D1BDE87040D0B2A4E000220A5400F07B
:1027D00045F8206428B9BDE870400FF2080003F006
:1027E00001BC70BD4E6574776F726B4865616C7427
:1027F000685374617274204661696C656420746FFB
:10280000207374617274204E6574776F726B204808
:1028100065616C746820546573740D0A00000000D3
:10282000DFF89C220021116401460FF2080003F03A
:10283000D9BB00004E6574776F726B204865616C80
:1028400074682073746F70706564202D20537461F8
:102850007475732025750D0A00000000DFF8C4228E
:10286000DFF82C1A53780020012B02D0022B07D15D
:1028700003E0DFF84C02406B1076084603F000BE20
:102880007047DFF82C2BDFF898121278895C00284B
:102890000CBF0FF210000FF2480003F0A3BB0000C2
:1028A0002573000052657175657374204E6F646501
:1028B00020496E666F207472616E736D6974746501
:1028C00064207375636365737366756C6C792074CB
:1028D0006F206E6F646520253033640D0A000000A0
:1028E00052657175657374204E6F646520496E661C
:1028F0006F207472616E736D6974206661696C65B6
:102900006420746F206E6F646520253033640D0A77
:1029100000000000F8B541F66504DFF80852684E83
:10292000285503F0C1FBB16A706209B103F0BFFB27
:10293000706ADFF8802A082103F0B7FBB06270B933
:102940000FF2640003F04EFBFFF788FF40BB0FF26D
:10295000880003F047FBBDE8F240002060E7DFF8A5
:10296000C0710A2003F092FE285DDFF84C2A395C22
:1029700006F1440002F070FD0028285D395C05D0A6
:10298000BDE8F4400FF2840003F02CBB0FF2B0005E
:1029900003F028FBBDE8F2400FF2DC0003F022BB9D
:1029A000F1BD0000151B0008446F52657175657319
:1029B00074466F724E6F6465496E666F726D6174B6
:1029C000696F6E206E6F2074696D657221204552AB
:1029D000524F52210D0A00004E6574776F726B20C2
:1029E0004865616C7468205465737420636F756CFE
:1029F00064206E6F74206265207374617274656404
:102A0000202D204641494C45440D0A005A575F523B
:102A10006571756573744E6F6465496E666F206885
:102A20006173206265656E20696E697469617465A1
:102A30006420666F72206E6F64652025750D0A0034
:102A40005A575F526571756573744E6F6465496E50
:102A5000666F20636F756C64206E6F7420626520F2
:102A6000696E6974696174656420666F72206E6F47
:102A700064652025750D0A0054696D656F757420B5
:102A800063616C6C6261636B2066756E6374696F01
:102A90006E2077696C6C20696E6974696174652059
:102AA000616E64207472792077697468206E65782D
:102AB00074206E6F64650D0A000000007C8F00209A
:102AC000B8000020F8B5DFF8344B0E46216B054600
:102AD00011B1E06A03F0EBFA2800E06A0FF24D0250
:102AE0000F4F0CBF0821042103F0DFFA20632800F8
:102AF0000CBF0FF2E8020FF2EC020A2000FB06F313
:102B0000207A395C0FF2E40003F06CFA3DB1217ACF
:102B1000E079795CDFF8F02A1154401CE071F1BDD6
:102B200084910020086E0020AC3F00082DE9F041A0
:102B3000DFF8C84AA27900202063ADF5806D207AC5
:102B4000401CC1B29142207225D2DFF8C05ADFF892
:102B5000C03ADFF8B01AC0B20222285C03F046FB8C
:102B6000206498B1207A295C0FF2B40003F03AFA9D
:102B7000206C78BBE07918B30FF2C00200F0ABF81C
:102B800000250FF2C806DFF8807A12E00FF2C400C9
:102B900003F028FAECE700202064EBE703F088FA62
:102BA0008046684603F084FA7B5D324600F08EF87A
:102BB0006D1CE07985426846F0DB03F013FA03E010
:102BC0000FF2C00003F00EFA0FF2E40003F00AFA6D
:102BD000002020640DF5806DBDE8F081535543431E
:102BE000455353004641494C454400004765742015
:102BF00056657273696F6E20446F6E65202D204E8E
:102C00006F64652025303375202D202573202D20FD
:102C10004C6174656E63792025756D730D0A000033
:102C20004765742056657273696F6E202D204E6F54
:102C3000646520253033750D0A0000004765742057
:102C400056657273696F6E202D2000002530582064
:102C5000000000004765742056657273696F6E202E
:102C60002D20636F756C64206E6F74206265207315
:102C7000746172746564202D2073746F7070696E56
:102C8000670D0A004765742056657273696F6E2080
:102C900053756363657373202D20416C6C204E6FF8
:102CA00064657320616E7377657265640D0A000058
:102CB0004765742056657273696F6E204E6F646548
:102CC000202D20456E640D0A00000000C8F58061CB
:102CD000684403F009BA4FF48061684603F004BA0F
:102CE000E0B50FF22C0003F07DF90A21684601F0EF
:102CF000E3F80A220021684603F046FEDFF8FC18DC
:102D0000486301460FF2280003F06CF907BD00008C
:102D1000456E746572206E65772063757272656E9C
:102D200074204E6F646549443A0D0A20000000008B
:102D300043757272656E74204E6F646549442069F4
:102D400073206E6F772025690D0A000080B5DFF8CB
:102D5000AC08DFF8C02800F093F806D0C121443059
:102D600002F054FC0FF2100005E00521443002F09F
:102D70004DFC0FF2440045E05A575F4164644E6FCA
:102D80006465546F4E6574776F726B204144445F85
:102D90004E4F44455F414E597C4144445F4E4F4441
:102DA000455F4F5054494F4E5F4E4554574F524B1D
:102DB0005F574944450D0A005A575F4164644E6F9E
:102DC0006465546F4E6574776F726B204144445F45
:102DD0004E4F44455F53544F500D0A0080B5DFF805
:102DE0001C08DFF8342800F04BF805D0443002F01E
:102DF00025FC0FF2180005E00521443002F01EFC0E
:102E00000FF25000BDE8024003F0ECB85A575F5291
:102E1000656D6F76654E6F646546726F6D4E657455
:102E2000776F726B2052454D4F56455F4E4F44456C
:102E30005F414E597C4144445F4E4F44455F4F5083
:102E400054494F4E5F4E4554574F524B5F5749447C
:102E5000450D0A005A575F52656D6F76654E6F6477
:102E60006546726F6D4E6574776F726B2052454D7B
:102E70004F56455F4E4F44455F53544F500D0A0027
:102E8000C16B491E8941C90FC163704710B50FF26C
:102E90009000007882B001218DF80000684603F0B0
:102EA000D3FA002837D00FF27C00DFF8504703F048
:102EB00099F8616B0FF2A80003F094F8616BDFF8EA
:102EC000082DC9B204F1440002F073FB01000AD0DE
:102ED00002280CD004280DD008280ED010280FD0BE
:102EE000202810D012E0616B0FF2900010E00FF27A
:102EF000B80012E00FF2E4000FE00FF210100CE047
:102F00000FF23C1009E00FF2741006E00FF2A0106F
:102F100003F068F813BD0FF2BC1003F063F813BDA3
:102F2000610000005A575F52656D6F7665466169B2
:102F30006C65644E6F646520737570706F72746534
:102F400064206279205A2D57617665205365726935
:102F5000616C415049206D6F64756C650D0A00000D
:102F60005A575F52656D6F76654661696C65644E50
:102F70006F646520253033640D0A00005A575F5294
:102F8000656D6F76654661696C65644E6F6465203A
:102F900073746172746564206F6E206E6F64652057
:102FA000253033640D0A00005A575F52656D6F7605
:102FB000654661696C65644E6F6465202D205A57C3
:102FC0005F4E4F545F5052494D4152595F434F4EEF
:102FD00054524F4C4C45520D0A0000005A575F5254
:102FE000656D6F76654661696C65644E6F646520DA
:102FF0002D205A575F4E4F5F43414C4C4241434B4B
:103000005F46554E4354494F4E0D0A005A575F5282
:10301000656D6F76654661696C65644E6F646520A9
:103020002D205A575F4641494C45445F4E4F444519
:103030005F4E4F545F464F554E440D0A000000004E
:103040005A575F52656D6F76654661696C65644E6F
:103050006F6465202D205A575F4641494C45445FB7
:103060004E4F44455F52454D4F56455F50524F437A
:103070004553535F425553590D0A00005A575F524A
:10308000656D6F76654661696C65644E6F64652039
:103090002D205A575F4641494C45445F4E4F4445A9
:1030A0005F52454D4F56455F4641494C0D0A000061
:1030B0005A575F52656D6F76654661696C65644EFF
:1030C0006F6465206661696C6564202D2025640D40
:1030D0000A0000005A575F52656D6F766546616958
:1030E0006C65644E6F6465204E6F742073757070EC
:1030F0006F72746564206279205A2D57617665205D
:1031000053657269616C415049206D6F64756C65DF
:103110000D0A000010B5DFF8E444DFF8B42AA06B14
:1031200038B9012104F1440002F0F0FA0FF2200056
:1031300006E0002104F1440002F0E8FA0FF240003A
:1031400002F050FFA06B401E8041C00FA06310BD75
:103150005A575F5365744C6561726E4D6F6465209C
:10316000656E61626C696E67206C6561726E4D6F31
:1031700064652F726563656976650D0A000000005D
:103180005A575F5365744C6561726E4D6F6465206C
:1031900064697361626C696E67206C6561726E4D03
:1031A0006F64652F726563656976650D0A000000BE
:1031B0001CB5DFF848442022227001226270FF22F1
:1031C00010B9A07818B900E009B1A27001E00020A0
:1031D000A070626BA1780FF2300002F003FFDFF8FD
:1031E0007C0D616B01900323252000902246C9B21B
:1031F00004F1440002F064F8616B0FF23C00BDE89A
:103200001C4002F0EFBE00005A575F53656E6444E5
:1032100061746120426173696320536574202530B5
:1032200032582C204E6F6465494420253033642089
:103230002D200D0A0000000043757272656E742027
:103240004E6F64654944206E6F7720253033640DDE
:103250000A00000000B585B06946DFF8040D02F0F1
:1032600066FA00211DF8013043B1491C0F29F9DB32
:103270001DF8013013B100230DF80130FDF74EF8B1
:1032800001466A460FF20C0002F0ACFE05B000BD2C
:10329000212800085A2D5761766520257320707209
:1032A0006F746F636F6C2056657273696F6E202543
:1032B000730D0A002DE9F04ED0B00FF2001002F0AD
:1032C00091FE6946DFF8980C02F094F89DF8012011
:1032D0009DF800100FF2081002F084FE9DF8032004
:1032E0009DF802100FF2301002F07CFE9DF80520D0
:1032F0009DF804100FF2641002F074FE9DF8072090
:103300009DF806100FF2AC1002F06CFE0FF2F810F0
:1033100002F068FE002408260FF2DC291DF80630B2
:103320000FF204224FF4807110A802F0DDFE012795
:103330002025BA461DF806001AEA000F1CD0202DE1
:103340000CD000F0FAF8834600F0F7F82B4610ADE9
:103350004A46CBF58071284402F0C6FE00F0EDF835
:1033600000F0EAF8C5F5807110AD3B190FF2C012FC
:10337000284402F0B9FE2C257F1C092F4FEA4A0A87
:10338000D8DB00F0DAF800F0D7F810AB9CA2C5F556
:103390008071184402F0A8FE10A90FF6500002F048
:1033A00021FE0834761C282EB8DB50B0BDE8F08E24
:1033B0006D860020912700088328000843616C6C0B
:1033C000696E672053657269616C5F4765745F431E
:1033D00061706162696C69746965730D0A0000004F
:1033E00053455249414C5F4150504C5F56455253F2
:1033F000494F4E20253032782C2053455249414CBC
:103400005F4150504C5F5245564953494F4E20251D
:103410003032780D0A00000053455249414C41506A
:10342000495F4D414E5546414354555245525F49BF
:10343000443120253032782C2053455249414C41AB
:1034400050495F4D414E5546414354555245525F98
:1034500049443220253032780D0A00005345524944
:10346000414C4150495F4D414E55464143545552A0
:1034700045525F50524F445543545F545950453163
:1034800020253032782C2053455249414C41504937
:103490005F4D414E5546414354555245525F50523F
:1034A0004F445543545F54595045322025303278AB
:1034B0000D0A000053455249414C4150495F4D416E
:1034C0004E5546414354555245525F50524F445514
:1034D00043545F49443120253032782C20534552E3
:1034E00049414C4150495F4D414E55464143545529
:1034F0005245525F50524F445543545F4944322025
:10350000253032780D0A000046554E4349445F533A
:103510005550504F525445445F4249544D41534BCE
:103520005B5D0D0A0000000025303278205B000052
:103530002530325800000000054610A802F0B8BD42
:103540002DE9F8432D4DDFF8244AE87B01284FF0A0
:10355000000803D102206070022706E0AB20207033
:103560000327AD2060700220A07000260FF64420D3
:103570000FF6782902F036FD0020FEF7F9FCA819B5
:10358000007D010010D008EB4801C9192144002238
:103590000E7048708A7008F10108FDF797FC02462A
:1035A0003146484602F01EFD761C102EE7DB4146F0
:1035B0000FF64C200FF66C2602F014FDE87B012874
:1035C00008EB480106D18F1C2770F9B2204602F0A3
:1035D00090F906E002280DD1CF1CF9B2204602F086
:1035E00054FBE97B3B46304601B0BDE8F043022284
:1035F00002F0F8BCBDE8F18325630000B8000020AC
:103600005D00000054A500206C92002084910020F1
:10361000C52A000861150008A51100082DE9F04F22
:10362000ADB000208DF8080080464FF4FA7003F02A
:103630002DF80FF62020DFF8385902F0D3FC0121D5
:103640000FF6342002F0CEFCDFF82809DFF8283925
:1036500001900022DFF824090090012105F14400C7
:1036600001F098FD002800F0A68214A905F144009D
:1036700002F05DF80746FCF751FE0446214627A0FC
:1036800003F0ACF958B121460FF6042002F0AAFC71
:10369000224614A90FF61C2002F0A4FC05E03946CE
:1036A0000FF6182002F09EFC0027DFF8D448DFF860
:1036B000D4B820684FF47A7102F0FCFF0FF2145076
:1036C00002F090FC002F00F0538214A90FF21C505E
:1036D000DFF8B4780FF21C540FF22C590FF23C5A59
:1036E00002F080FC4FF41C71DFF8A00802F08CFCA3
:1036F000DFF89C1805F1440001F00AFF0020FEF7F6
:1037000037FC686B697B884204BF401C68630FF21A
:103710002C5002F067FC08AE05E000BF000000007E
:103720000A2002F0B3FF00208DF808000DF1090116
:1037300008A802F0A1F800283DD00FF21C5002F0BA
:1037400051FC00F0AAFB00F05DFB32D8DFE800F08E
:103750000305090D101649200DE000F06BFB2A202F
:1037600009E000F094FB412005E000F070FB20E050
:1037700000F085FB44208DF808001AE0484602F06E
:1037800031FCB07860B9204602F02CFC00F064FBFC
:10379000402000F062FB00F08AFB00F046FB06E0F0
:1037A00000F071FB00F062FB402000F060FB00F0D5
:1037B00047FB0120A5E00DF1090108A802F028FA55
:1037C000002850D00FF6742002F00CFCF0789DF821
:1037D00020209DF8091000905046B37802F002FCBA
:1037E000B378F07896F804E019469B1E052B024644
:1037F00037D8DFE803F003050D14171D492014E046
:103800006A63F0460146434600F016FB2A200CE0AE
:103810006A63F046717800F03CFB412005E000F05F
:1038200016FB1EE000F02BFB44208DF8080018E08A
:10383000484602F0D7FBF07830B9204602F0D2FBC0
:1038400000F035FB012205E000F01DFB012200F035
:103850002FFB00222021384603F0AFF9022000F0B0
:10386000F0FA02204DE00DF1090108A803F0C4F9B7
:1038700000283DD00FF6D41002F0B4FB00F00DFB91
:1038800000F0C0FA32D8DFE800F00305090D101689
:1038900049200DE000F0CEFA2A2009E000F0F7FA06
:1038A000412005E000F0D3FA20E000F0E8FA4420DF
:1038B0008DF808001AE0484602F094FBB07860B931
:1038C000204602F08FFB00F0C7FA402000F0C5FA56
:1038D00000F0EDFA00F0A9FA06E000F0D4FA00F0EA
:1038E000C5FA402000F0C3FA00F0AAFA032008E06D
:1038F0008DF8080000F093FA00284BD100F089FA07
:103900000020E8739DF80810686B212900F0AE8054
:10391000222900F0C180232900F0BB80252900F076
:10392000D2802A2975D02E2967D02F2976D03F2919
:103930003DD041292FD0442944D0462931D04829AF
:1039400016D0492917D04C292ED0502979D0522988
:1039500024D055297BD0562970D057293DD05829DD
:1039600045D0612917D064292CD0662919D068293F
:1039700000F0AD80692967D06C2915D0702960D01E
:1039800072290BD0752962D0762957D0772924D097
:1039900078292CD0C4E6FFF7D9F9C4E6FFF71EFA60
:1039A000C1E6FFF773FABEE6FFF7B4FBBBE60FF61E
:1039B000AC0002F017FBDFF8DC1505F1440001F064
:1039C0006FFDB0E60FF6B80002F00CFBDFF8C8158B
:1039D00005F1440001F0C0FDA5E60FF6C00002F0BD
:1039E00001FB012105F1440001F0D2FD9BE60FF639
:1039F000D00002F0F7FA0021F4E7C1B26A46FEF700
:103A00003BFC9DF80320696B0FF6D00002F0EAFA48
:103A100089E6E87B4146FFF7CBFB84E60FF6FC0026
:103A200002F0E0FA00230022FF2105F1440001F03A
:103A300027FC0FF6141002F0D5FA74E6FFF70AFC23
:103A400071E6FFF737FC6EE6FFF77AFD6BE60FF6DF
:103A5000241002F0C7FAFFF743F9696BDFF83C2541
:103A6000C9B205F1440001F031FD5CE60FF6241007
:103A700002F0B8FAA87B30B10FF63C1002F0B2FAAF
:103A80000020A8734FE60FF6381002F0ABFA0120C1
:103A9000F7E7FFF725F946E601460FF62C1002F08E
:103AA000A1FA696BDFF8F824C9B205F1440001F00E
:103AB000D3FC0028696B0CBF0FF660100FF63010B6
:103AC00002F090FA2FE6C0B2FEF78CFD2BE63FA085
:103AD00002F088FA0FF67C1002F084FA0FF6A410B8
:103AE00002F080FA696B0FF6D01002F07BFA0FF645
:103AF000F41002F077FA0FF6142002F073FA0FF6C2
:103B0000282002F06FFA696B0FF6542002F06AFA6F
:103B1000696B0FF6842002F065FA696B0FF6B4202A
:103B200002F060FA0FF6DC2002F05CFA0FF60030CB
:103B300002F058FA0FF2301002F054FA0FF23C1073
:103B400002F050FA0FF2841002F04CFA0FF29410C7
:103B500002F048FA0FF2A41002F044FAA87B002801
:103B600014BF0FF2B0110FF244410FF2B010A7E7EB
:103B700005F1440001F072FB20680FF2C41402F05A
:103B8000BDFD0FF2142002F02DFA0FF2242002E006
:103B900000F03FF9204602F025FA00F040F9002835
:103BA000F6D08021DFF8FC0303F00BF84FF47A70B5
:103BB00002F06CFDF1E710A90FF2202002F012FADA
:103BC0002DB0BDE8F08F0000751C00080A00000051
:103BD000151B00085A57686F737441707054696DF3
:103BE0006572207374617274200D0A0025730D0ACA
:103BF000000000000D0A557362204F5447204469AD
:103C00007361626C650D0A00436D643D25642C2070
:103C1000536574204F54470D0A0000004C656E3DFB
:103C20002564205B253032585D205B253032585D9D
:103C3000205B253032585D0D0A000000496E70751A
:103C40007420434D4420666F72205A57204D6F6494
:103C5000756C650D0A0000004765742042542043CE
:103C60006D640D0A00000000562020203A20676590
:103C7000742056657273696F6E0D0A00492020200A
:103C80003A20496E697469616C697A65206E6F6467
:103C9000654C69737420616E642064756D70206E6C
:103CA0006F6465696E666F20286F6E6C792073751E
:103CB00070706F7274656420627920436F6E7472E5
:103CC0006F6C6C6572290D0A000000004C202020EA
:103CD0003A205A575F5365744C6561726E4D6F643C
:103CE000650D0A00442020203A205A575F5365741E
:103CF00044656661756C740D0A0000005720202031
:103D00003A205A575F536F667452657365740D0A93
:103D100000000000545255450000000021202020E2
:103D20003A205072696E7420696E636F6D6D696EB2
:103D300067206672616D6573202D2025730D0A0062
:103D400054686520636F6D6D756E69636174696F2A
:103D50006E2077697468205A57204D6F64756C65C2
:103D600020776173206661696C656420736F2074CD
:103D7000686174207265626F6F7420746172676528
:103D80007420666F72206F7065726174696F6E2047
:103D90002E2E2E0D0A0000005A57686F7374417062
:103DA0007054696D65722073746F70200D0A000085
:103DB0004661696C656420746F20676574206C6966
:103DC000625479706520736F2053746F70206F7028
:103DD00065726174696F6E200D0A00004E6F20706D
:103DE0006F7274206465746563746564206F6E20FF
:103DF00073657269616C20706F72742025730D0A8F
:103E0000000000007078B278F3780146801E052823
:103E100070470123012202A9584603F0F2B801239A
:103E2000012202A9584603F03CB90122202138465C
:103E300002F0C3BE6A6398460FF2783002F0D2B83F
:103E40000120E873002201210720FCF7F9B96A6319
:103E50000FF2983002F0C6B82020039003A9012089
:103E6000049000200690384602F0DABD202003902E
:103E700003A9002004900690384602F0D1BD0FF24D
:103E80008C3002F0AFB80FF2A03002F0ABB86A632A
:103E900098460FF2443002F0A5B8B0789DF8202083
:103EA0009DF8091000905046737802F09BB80022EC
:103EB0004021384602F081BE2DE9F04782B0044629
:103EC00000274D1E384EDFF8BC900FF2980A4FF6CF
:103ED000FF7802E0642002F0D9FB01230122694649
:103EE000484603F0DEF80028F4D19DF900000828C8
:103EF00018BF7F2809D1002FEFD043460322514637
:103F0000484603F07EF87F1EE7E70A2807D196F9B6
:103F1000000000281CBF00203070DED112E00D2808
:103F20000ED01B280ED0AF42D7D29DF80000E0552E
:103F3000434601226946484603F063F87F1CCCE7FC
:103F4000012030700020E0554346022206A1484679
:103F500003F057F83846BDE8F6870000AB190008B3
:103F6000FC000020082008000D0A000010A6002018
:103F7000B8000020F50C0008790500080D090008BC
:103F80008496002054A4002000040240D88300201E
:103F90001D0400085D270008E51A0008211A000822
:103FA000611A0008000802406FA6002046414C53E9
:103FB00045000000496E697469616C697A65206E1C
:103FC0006F64654C6973742077697468206E6F64E0
:103FD0006520696E666F2066726F6D206465766914
:103FE0006365206D6F64756C650D0A004E6F6465C6
:103FF0002025303375202D2025730D0A0000000088
:10400000546F74616C206F662025303375206E6F9D
:1040100064657320696E206E6574776F726B0D0A2C
:1040200000000000526573706F6E736520496E6604
:104030006F20746F20557070657228256429205B8D
:10404000253032585D5B4C3D25645D2E2E2E2E0DA5
:104050000A0000005A575F4170702853484143538B
:1040600029202D2053797374656D207374617274E7
:1040700065640D0A000000005573696E6720736562
:104080007269616C20706F72742025640D0A0000E3
:104090005A2D57617665202573206261736564200F
:1040A00073657269616C2041504920666F756E645A
:1040B0000D0A00002573202D202573004E6F20531C
:1040C000657269616C20415049206D6F64756C6543
:1040D0002064657465637465642C205B6C6962742C
:1040E0007970652025755D2D20636865636B20738D
:1040F000657269616C20636F6E6E656374696F6E63
:10410000732E0D0A54686973206170706C69636165
:1041100074696F6E207265717569726573206120B4
:1041200053657269616C204150490D0A6F6E2061C0
:10413000205A2D57617665206D6F64756C6520631C
:104140006F6E6E65637465642076696120612073AB
:10415000657269616C706F72742E0D0A446F776EB0
:104160006C6F61642074686520636F72726563743C
:104170002053657269616C2041504920636F64650A
:1041800020746F20746865205A2D57617665204D24
:104190006F64756C6520616E642072657374617202
:1041A0007420746865206170706C69636174696FF4
:1041B0006E2E0000436D643D25642C204E6F6465B7
:1041C0004964203D2025642053657456616C203D70
:1041D0002025640D0A000000436D643D25642C20F9
:1041E000416464206E6F64650D0A0000436D643D98
:1041F00025642C205175657279204E6F64655B25AE
:10420000645D207374617475730D0A00436D643DC1
:1042100025642C20526573657420746F2044656694
:1042200061756C740D0A00000D0A557362204F54BD
:104230004720456E61626C650D0A00004765742079
:1042400055534220436D640D0A00000047657420F9
:104250005769666920436D640D0A00005A575F5222
:104260006571756573744E6574776F726B557064A4
:104270006174652063616C6C65642E2E2E0D0A00DE
:104280005A575F53657444656661756C7420636149
:104290006C6C65642E2E2E0D0A0000005A575F5379
:1042A0006F667452657365742063616C6C6564201D
:1042B000287761746368646F67292E2E2E0D0A00BB
:1042C0005A575F536F667452657365742063616CEF
:1042D0006C65642E2E2E0D0A0000000047657420C8
:1042E00050726F746F636F6C20496E666F206361EC
:1042F0006C6C656420666F72204E6F646520257556
:10430000203A204261736963204E6F64657479704E
:1043100065203D2025750D0A000000005A575F53A7
:10432000656E644E6F6465496E666F726D61746927
:104330006F6E2042726F616463617374202D20730D
:10434000746172740D0A00005A575F53656E644EB3
:104350006F6465496E666F726D6174696F6E20423D
:10436000726F616463617374202D20646F6E650DDC
:104370000A0000005A575F526571756573744E6F7D
:1043800064654E65696768626F72557064617465D3
:104390000D0A0000546F67676C696E6720696E6371
:1043A0006F6D6D696E67206E6F74696669636174A5
:1043B000696F6E73200000006F66660D0A000000D2
:1043C0006F6E0D0A000000005265717565737420F0
:1043D0004E6F6465496E666F726D6174696F6E20B1
:1043E000666F72206E6F64652025750D0A000000EF
:1043F0005A575F526571756573744E6F6465496E87
:10440000666F20696E6974696174656420666F7295
:10441000206E6F64652025750D0A00005A575F52A3
:104420006571756573744E6F6465496E666F206360
:104430006F756C64206E6F7420696E697469617445
:10444000656420666F72206E6F64652025750D0AA5
:1044500000000000412020203A20416464204E6F7B
:10446000646520286F6E6C7920737570706F72743C
:10447000656420627920436F6E74726F6C6C657234
:10448000290D0A00522020203A2052656D6F766572
:10449000204E6F646520286F6E6C79207375707084
:1044A0006F7274656420627920436F6E74726F6CF2
:1044B0006C6572290D0A0000462020203A207265A2
:1044C0006D6F7665204661696C65642063757272F4
:1044D000656E74206E6F6465494420253033640D29
:1044E0000A000000552020203A205A575F5265717B
:1044F000756573744E6F64654E65696768626F7247
:104500005570646174650D0A0000000023202020AE
:104510003A205365742063757272656E74206E6FF5
:10452000646549440D0A00002E2020203A20436192
:104530006C6C205A575F4765744E6F646550726F9C
:10454000746F636F6C496E666F20666F722063755F
:104550007272656E74206E6F646549440D0A0000C6
:10456000222020203A2043616C6C205A575F52650C
:1045700071756573744E6F6465496E666F20666F02
:10458000722063757272656E74206E6F6465494443
:1045900020253033640D0A002A2020203A205A5763
:1045A0005F53656E64446174612077697468206547
:1045B00078706C6F726520746F2063757272656EAF
:1045C00074204E6F64654944202825303364290DDA
:1045D0000A00000025252020203A2044756D702017
:1045E0004E6F6465496E666F20666F7220637572E8
:1045F00072656E74204E6F646549442025303364C3
:104600000D0A00002F2020203A2042726F6164635F
:10461000617374204E6F646520496E666F726D61C0
:1046200074696F6E206672616D650D0A000000008E
:10463000502020203A204765742073657269616CB0
:10464000617069206361706162696C697469657326
:104650000D0A00002DE9F04780460D46914640F2D4
:104660000D2003F03EF80746002400260FF2340A1E
:1046700009E040F20D20AB5D011B5246381901F0F4
:1046800033FDE41C761C4E45F3DB4B463A4641466F
:104690000FF2180001F0A6FC3846BDE8F04703F021
:1046A00024B80000253032582000000025732573FF
:1046B0005B4C3D25645D0D0A00000000DFF8B41B73
:1046C00001600022DFF8B01BCA620A634A638A6392
:1046D000CA630A644A648A64CA644A658A65CA65A8
:1046E0000A664A660A674A678A678A66CA66CA6746
:1046F0004A618A61CA610021DFF8802B1170FF23B3
:10470000DFF8B02B02F83130491C1429FADB70476E
:10471000DFF8640B826A10001CBF08461047704720
:104720002DE9F047DFF8507BD7F8048082B081464E
:104730000C4615461E4600F03FF900285ED09DF855
:104740000010012939D00629BA6818BF152913D1DC
:10475000002028709DF8000006280CBFD0A1D1A130
:104760000FF2041001F03EFCB868E8B19DF80000BB
:1047700006285AD1012074E0182911D111460FF2F0
:10478000001001F02FFCB86870B1F86930B100F08A
:104790000FF9F9690FF2001001F024FC042060E029
:1047A0000FF2101001F01EFC3068D0B900F004F9CF
:1047B0000028C4D10FF218101EE0324621464046B0
:1047C00002F098FF10B90FF22C1015E094F800A039
:1047D000012700E07F1C0AF10100874210DA3068EF
:1047E00008B105203DE03246E119404602F082FF63
:1047F0000028EFD10FF2241001F0F4FB032030E089
:104800007A1E2146484600F0B9F9E11911F8011C59
:1048100088420CD00FF2301001F0E4FB152100F0BB
:10482000C8F80FF23C1001F0DDFB022019E0E1199D
:10483000002001F8010C00F0BBF828B90FF2341089
:1048400001F0D0FB00F0B4F87A1E2A702146D2B2F3
:104850000FF23810FFF7FEFE0FF2401001F0C2FB1E
:104860000020BDE8F68700005265636569766564DF
:10487000202D202573205B253031755D0D0A000049
:104880005265636569766564202D2043414E205B47
:10489000253031755D0D0A005472616E736D697457
:1048A000202D2041434B2043414E205B2530327563
:1048B0005D0D0A005265636569766564202D2047A9
:1048C00061726261676520253032580D0A00000070
:1048D0005265636569766564202D20527854696D50
:1048E000656F75742053594E432068756E740D0AB8
:1048F000000000005265636569766564202D2052D2
:104900007854696D656F7574206F6E204C656E67A5
:10491000746820627974650D0A0000005265636551
:1049200069766564202D20527854696D656F7574C1
:1049300020696E6672616D652062797465207469A4
:104940006D656F75740D0A005265636569766564FF
:10495000202D204C5243206572726F720D0A0000A8
:104960005472616E736D6974202D204E414B0D0A97
:10497000000000005472616E736D6974202D204137
:10498000434B2072657472790D0A000052656365AD
:1049900069766564203C2D20000000005472616E31
:1049A000736D6974202D2041434B0D0A00000000F7
:1049B0000621404602F0A8BE32466946404602F053
:1049C00099BE70B5DFF8B048656811B1C4F88010C1
:1049D000A270A278D4F8801000F0D0F80646012129
:1049E000284602F091FEA278D4F88010284602F002
:1049F00086FE3146284602F087FEA278D4F8801061
:104A00000120A060BDE870400FF2040022E6000023
:104A10005472616E736D6974202D3E200000000099
:104A20002DE9F843DFF81479DFF84C5838680C4664
:104A30009046994600F0F6F86E783046042810DA71
:104A40008822DFF8FC1850430844C0F8909580F89D
:104A50000C854246214600F20D5001F0E5FA701C2B
:104A600068703868BDE8F24301F0B3BE10B582B09B
:104A7000044600208DF800006B462046FFF7D0FF6B
:104A80006946204600F010F816BDDFF8B808017836
:104A9000491CCAB202B901210170007870470000B8
:104AA00041434B004E414B0038B5DFF8CC57002056
:104AB0000C46286101E000F05EF820782228FAD147
:104AC0002869A96821B1002802D100F054F8F7E75D
:104AD00008B9012032BD0020286132BD38B51D461D
:104AE00004460023FFF79CFF059B049A29462046B5
:104AF00001B0BDE830402DE9F0470446DFF87857B3
:104B0000DFF878670120E8608846002092461F465B
:104B1000E06041F2883901E000F02DF83278E86871
:104B200011000DD120B1B9F1010906D10120E060D9
:104B30000020E860DFB1002018E0E1680029EBD038
:104B4000E1680029F4D10028F4D07078012804BF6E
:104B5000B0784045E2D10020BAF1000FE86003D000
:104B60003146504601F060FA0FB1307838700020BD
:104B70003070BDE8F087012001F088BDFF2003E020
:104B800011F8013B5840521E012AF9DAC0B27047B1
:104B90002DE9F043A1B0642001F078FD0FF2680028
:104BA000DFF8A447DFF89887DFF8E467DFF8C87616
:104BB00001F018FA20E0306800F034F83878451E2B
:104BC0003D70802198F88090684601F01DFA4A46B1
:104BD0004146684601F038FAEDB205EBC51208F11E
:104BE0008101404601F020FA306801F0F2FD4A46AA
:104BF0006946204600F006F938780028DBD11420F9
:104C000001F044FDF8E700000D0A5A575F4469734C
:104C100070617463685461736B2073746172740D96
:104C20000A000000002101F0A0BD00002DE9F04FB6
:104C3000A3B000200290782001F028FD0FF2981018
:104C4000DFF8FC96DFF84857DFF8F076DFF8F886F3
:104C5000DFF8244601F0C6F901220DF10101DFF869
:104C6000840702F07CFA09F2945001904FF0880A10
:104C70000FE098F8080000281CBFD8F80C000028A6
:104C800005D00020E06001214046FFF741FDFFF71D
:104C900072FF607868B1A06858B9D9F8900508B17A
:104CA0002221017009F20D5199F80C254046FFF7B9
:104CB00088FE00208DF8000002AB6A4603A940463A
:104CC000FFF72EFD8DF8010009F20C569DF801202A
:104CD000A1683868042ADAD8DFE802F004384646CA
:104CE0004600D4E79DF8000068B39DF80D00010070
:104CF00019D12868FFF796FF26780A2E0FDA06EBFF
:104D0000C61009EB000B9DF8002003A9584601F0DE
:104D10008BF99DF800008BF88000701C20702868CB
:104D200001F057FD0FE001280DD19DF80000421E53
:104D30000DF10D01DFF8FC0601F076F99DF80C008D
:104D4000DFF838150870FFF716FFA0E700299ED09E
:104D5000FFF768FF00F04CF8386801F03AFD0020DA
:104D6000A0606061E06192E700293FF482AF616971
:104D700011B90022A26106E0022904D1A269521CE5
:104D8000022AA261EFDB9DF80130E269042B01D118
:104D9000032A07DB01F1010C0329C4F814C00BDA64
:104DA000042B01D1501C00E00020E0610022002112
:104DB0004046FFF706FE6AE70021E161616101F00C
:104DC000D4FC00F015F8386801F003FD01202061E3
:104DD0000020A060E0605AE70D0A5A575F417069F1
:104DE0005461736B2053746172740D0A00000000EB
:104DF0006078401E6070C0B21AFB00F20199304624
:104E000001F012B92DE9FC470C46DFF86C54A0788C
:104E1000DFF84066042873D0122800F0BD80132804
:104E200000F0C880142800F0DD80182800F0D3803E
:104E3000192800F0DE801A2800F0E280242800F013
:104E40000F81332800F00681362800F0F5804228D3
:104E500000F00C81452800F02981462800F02D81C2
:104E6000472800F03181482800F08481492831D05A
:104E70004A2818BF4B2802D04C2818BF4D2800F0F4
:104E8000FB80502800F03C81512800F024815328F9
:104E900000F02F81542800F05181552800F0228124
:104EA000572800F052815A2800F06B81612800F0E9
:104EB0005A81632800F05081A82834D0A92800F036
:104EC000A680AA2800F0AA80AB2800F0AE80BE28F9
:104ED00069D05DE1607902F004FC0546002103E041
:104EE000601880796854491C63799942F8DB366808
:104EF000300003D02179E0782A46B0472846D1E037
:104F0000607902F0EEFB0646002103E0601880792C
:104F10007054491C63799942F8DB2179E0782C6A56
:104F20003246A047BDE0A67904EB060A30469AF85F
:104F3000078002F0D6FB814608F1010002F0D1FBA8
:104F40000746002104E06018C07909F80100491CF7
:104F5000B142F8DBB8F1000F19D09AF807003870A9
:104F60000021881920447A18007A5070491C414564
:104F7000F7DB0196CDF8009062792179E0786C6AD0
:104F80003B46A047384602F0B0FB48468AE0384628
:104F900002F0ABFB0027ECE7E96C080099D0207920
:104FA000BDE8FC470847296D080092D02079BDE88C
:104FB000FC470847EB6A18008BD02079062A05DBEE
:104FC0006179A27902EB012189B200E0002102B0EF
:104FD000BDE8F0471847296B080069D02079BDE883
:104FE000FC470847696B080062D02079BDE8FC47A0
:104FF0000847A96B08005BD02079BDE8FC4708474B
:10500000E96B080054D02079BDE8FC470847296CBB
:1050100008004DD02079BDE8FC470847696C0800BE
:1050200046D02079BDE8FC470847A96C08003FD06E
:105030002079BDE8FC470847E178DFF8780200EB0B
:10504000C1004268100033D06179207902B0BDE818
:10505000F0471047A86F01002AD0BDE8F647004787
:10506000686D010024D0BDE8F6470047A86D010037
:105070001ED0BDE8F6470047E86D002818D0A0799B
:1050800002F02FFB0646002103E06018C07970543F
:10509000491CA3799942F8DB61792079EC6D32469D
:1050A000A0473046BDE8F64702F01FBB296E080056
:1050B0006ED02079BDE8FC470847696E080067D0CC
:1050C0002079BDE8FC470847296F080060D02079A7
:1050D000BDE8FC470847A96E080059D02079BDE813
:1050E000FC470847E96E080052D02079BDE8FC472C
:1050F0000847E96F08004BD02079BDE8FC47084716
:10510000686F002844D00020072A07DBA679310009
:105110000DD0304602F0E5FA002105E0002606E059
:105120006218D2794254491CA2799142F8DB0246B6
:10513000617920796C6F3346A04729E0F168080057
:1051400026D02079BDE8FC470847316908001FD008
:105150002079BDE8FC4708477169080018D020791C
:10516000BDE8FC470847B169080011D02079BDE8C7
:10517000FC470847716808000AD02079BDE8FC4761
:105180000847B168080003D02079BDE8FC4708470C
:10519000BDE8F387F8B504460D461F460FF28000C0
:1051A00000F020FF380039D00798010036D0324E89
:1051B0000699B062376200207162B0602072E060D0
:1051C0007061706830BB012D08BFDFF8180212D083
:1051D000022D08BFDFF884040DD0032D08BFDFF8CF
:1051E000800408D0042D08BFDFF8880403D0052D03
:1051F00002D1DFF89004706029460FF2440000F0FD
:10520000F1FE706850B1002161607170317006214B
:1052100002F07AFA706808B10120F2BD0020F2BDF8
:105220004353657269616C415049282564293A3AB3
:10523000496E697469616C697A650D0A0000000045
:105240004353657269616C4150493A3A5A57556106
:105250007274282564290D0A000000007047501E52
:10526000C010085C511E01F00701C84000F00100A9
:1052700070470000D0C400082095002084900020D2
:1052800070B50C4619000CBF00254325DFF840140B
:105290000A71002606220E800A701226DFF83424D6
:1052A0008E70CC704D71D3640023BDE8704000F067
:1052B000EBB90000F49300209DF808000428704723
:1052C0002DE9FE430B9D80460F4691461C46280063
:1052D0000CBF0020FFF7D9FBDFF8FC630021318011
:1052E0000522132100F010F81323DFF8E803C5624C
:1052F00002A80190D2B200F005FAFFF7DDFFACBFC3
:10530000F0780020BDE8FE83B170F77034710021A1
:1053100004E019F80170B7541A46491C531CA14205
:10532000D2B2F6DB0A99B154DBB25A1CF054327097
:1053300000208DF808000096704700008C96002031
:105340007886002070A60020FC00002070B50C4676
:10535000DFF8C8640021318084B02021B170154687
:1053600003213170009600F088F9202302A90191F1
:1053700003223146FFF7B2FBF0782070307960707D
:105380007079A070B079E070F07928707FBD00006E
:10539000889600207CB514469222DFF8845400F0F1
:1053A00023F8002605F1800101916E70922300F030
:1053B00015F895F8800078B12E7968792070A87971
:1053C0006070E879A070287AE07095F8800007286E
:1053D000ACBF687A00202071304676BD0422294691
:1053E000FFF77CBB0C0000200095E970AA70042137
:1053F000297070473EB50D46DFF82844009400211F
:10540000218007230721A1700322032100F073F9F3
:105410002146FFF763FB002005E0C0B22118401CC5
:10542000C97805F8011BC1B29DF808209142F4D358
:1054300037BD0000859000202146A2700023BDE802
:1054400010400422FFF7ECBAE17000220421228010
:105450002170704730A6002070B584B004460E4617
:10546000002A0CBF0020FFF710FBDFF8BC530095AB
:1054700028710021052029802870602100F024F97E
:10548000A97002A80190EE7060230522294600F061
:105490008DF8FFF711FFACBFE878002004B070BDB5
:1054A00038B504460D000CBF0020FFF7EEFADFF818
:1054B0007C1300F067F85322DFF804038A70C56795
:1054C000204601B0BDE830400023BAE770B504467D
:1054D0000E4615000CBF0020FFF7D7FADFF8501377
:1054E00000220A80CE70087148220520DFF844634C
:1054F0008A700870756005222046FFF7B7FA30B948
:105500007168080003D0BDE870402320084770BDD3
:10551000DFF82003016070473EB51446DFF81853EA
:105520000095E970002204212A802970412200F0B0
:105530000DF80191412300F097F900F0CFF8A87918
:10554000E070E8792071287A607137BD00218DF80C
:105550000810AA7002A9704738B504460D000CBFA8
:105560000020FFF792FADFF8D41200F00BF8422285
:10557000DFF84C028A708565204601B0BDE83040F6
:1055800000235EE7C870002204200A80087070477C
:1055900010B5DFF8AC42FFF757FF08224CE78A70DE
:1055A00003220A70FFF73CBA052239462046FFF76E
:1055B00095BAFEB5044600208DF8080016460D4643
:1055C00030000CBF0020FFF760FADFF8787200F0BF
:1055D00010F8612102A8B9700190FD706123FFF7F6
:1055E000E3FF00F00DF8AEBFF878FF2000268E61D3
:1055F000FEBD009738710021052039803870704752
:105600009DF80800DFF82C120428704770B5044696
:105610000E4615000CBF0020FFF737FADFF82812FE
:1056200000F035F84A222B488A70CE70C5652046B6
:10563000BDE8704000230522FFF7F2B970B50446BB
:105640000E4615000CBF0020FFF71FFADFF8FC1113
:1056500000F01DF84B22E6E70000000054A40020F3
:1056600004A30020DFF8E81100220A80002344226E
:1056700095E7000014A10020009400218DF8081087
:1056800070470000289600200622FFF7C9B908716C
:10569000002205200A8008707047DFF824018A7014
:1056A000CE707047002110B5DFF8A8412180562147
:1056B000A17084B003212170FFF7DEFF562302A9F9
:1056C0000191032211E0000000208DF808007047CE
:1056D000A89600202095002028970020E8782070C8
:1056E000287960706879A07070472146FFF7F6F955
:1056F000E07804B010BD217000218DF8081002A9D7
:105700000191704731464046FFF7E8B970B504464D
:105710000E4615000CBF0020FFF7B7F94E49FFF702
:10572000B6FF5022FFF7B9FF456780E70000FEB5DE
:105730000446FFF7C9FF0D46484F8021384600F068
:1057400063FC1520B87000263E8003203870009757
:1057500002A8019015230322FFF727FF06220FF26C
:105760001011F81C01F0D8FF38B9FE7B0C22F91C8F
:10577000284600F059FC002028733046FEBD3EB597
:105780000C46374D0095002129800523052100F0A6
:105790000AF8E8782070FFF78FFD01DB01203EBD9D
:1057A00000203EBD0000A9700322032129700021C2
:1057B0008DF8081002A901912946FFF78FB9000062
:1057C00020950020FEB50E46264D00212980144666
:1057D0000221A9701F46032129700223FFF74DFF04
:1057E00031702170009502A90191032200F03DF86B
:1057F000E87830700021287920706879387008982E
:1058000003E06A1892794254491C6A799142F8DBA4
:10581000207810F0040018BF0120FEBDA8970020DA
:10582000A495002028980020A898002028990020FE
:10583000A899002030A60020289A0020A89A0020CD
:10584000289B0020A89B0020289C0020A89C0020CA
:10585000289D0020A89D0020289E0020A89E0020B2
:10586000289F0020A89F002004222946FFF736B970
:105870005A2D5761766500002DE9F041814E804632
:1058800030780D46F0B1804F3868002100F06DFF90
:105890003078441E3470E4B27C4E96F820002870B4
:1058A000314696F82020404600F0BEFB04EB44123F
:1058B00006F12101304600F0B7FB386800F089FF9F
:1058C000012003E0142000F0E1FE0020BDE8F0819B
:1058D0002DE9F8436C4C6B4F00F027F83E78032E0F
:1058E00005DA6A4900F027F800F019F800E0002511
:1058F0000FE02DE9F843664C664F00F016F83E784D
:10590000032E05DA644900F016F800F008F800E00C
:105910000025206800F05DFF2846BDE8F28389F885
:105920002080701C38700125704705468846206825
:10593000002100F01ABF06EB461001EB00094246B9
:105940002946484600F070BB2DE9F04F89B00FF2B0
:105950005010524C0FF24C280FF25C19DFF838A1AE
:105960004B4D4C4E00F03EFB01226946204601F0B3
:10597000F6FB03E00FF24C1000F034FB307840B33C
:105980002868002100F0F1FE3078471E3770202192
:105990009AF820B001A800F037FB5A46514601A8FA
:1059A00000F052FBFFB207EB47120AF1210150460B
:1059B00000F03AFB286800F00CFF4FF480735A4661
:1059C00001A9204601F01DFB5A4601A94846FEF7F1
:1059D00041FE4FF41671684602F0BEF90028CDD0A2
:1059E0009DF80010AB29C5D10FF2F80000F0FAFACB
:1059F0006421684602F0B0F920B90FF2041000F0FB
:105A0000F1FABBE79DF80010AD291CBFA5290FF2E4
:105A10001410B1D10FF2401000F0E4FA9DF800002C
:105A20008DF80400012705E001A8C15D404600F0A3
:105A3000D9FA7F1C01A86421C01902F08DF9002851
:105A4000F2D10FF2341000F0CDFA39460FF26C109B
:105A500000F0C8FA9DF80410AD290DD10FF27C10AA
:105A600000F0C0FA39460FF2841000F0BBFAF9B228
:105A700001A8FFF72DFF81E7A529FCD10FF28010C7
:105A80007AE70000819000209096002028A0002056
:105A90009C960020829000208CA0002004A300206F
:105AA0000D0A427453657269616C417070205374C1
:105AB0006172740D0A0000005B42545D5478202D21
:105AC0003E2000005B42545D526563656976656403
:105AD000202D204761726261676520253032580DA4
