:020000040800F2
:1000000098040020792E0008152E0008172E0008ED
:10001000192E00081B2E00081D2E000800000000ED
:10002000000000000000000000000000CD0C0008EF
:100030001F2E000800000000750C0008050C0008C9
:10004000A52E0008A92E0008AD2E0008B12E00082C
:10005000B52E0008B92E0008BD2E0008C12E0008DC
:10006000C52E0008C92E0008CD2E0008D12E00088C
:10007000D52E0008D92E0008DD2E0008E12E00083C
:10008000E52E0008E92E0008ED2E0008F12E0008EC
:10009000F52E0008F92E0008FD2E0008012F00089B
:1000A000052F0008212E0008092F00080D2F000839
:1000B000112F0008152F0008192F00081D2F000808
:1000C000212F0008252F0008292F00082D2F0008B8
:1000D000312F0008352F0008392F00083D2F000868
:1000E000412F0008452F0008492F00084D2F000818
:1000F000512F0008552F0008592F00085D2F0008C8
:10010000612F0008652F0008692F00086D2F000877
:10011000712F0008752F0008792F00087D2F000827
:10012000812F0008852F0008272E0008892F00083E
:100130008D2F00080000000000000000912F000833
:10014000952F0008992F00089D2F0008A12F000867
:10015000A52F0008A92F0008AD2F0008B12F000817
:10016000B52F0008B92F0008BD2F0008C12F0008C7
:10017000C52F0008C92F0008CD2F0008000000007F
:1001800000000000D12F0008000000000000000067
:10019000D52F00080000000000000000D92F000843
:1001A000000000000000000000000000DD2F00083B
:1001B000E12F0008E52F0008E92F0008ED2F0008C7
:1001C000F12F00082DE9F0430446154685B0884616
:1001D0009946A80000F054FB06001AD0542000F005
:1001E0004FFB070012D03E630020039002974B465E
:1001F0000D9801902A460C9800904146204600F048
:100200000DF8384600F046F8012004E0304600F0D2
:10021000BCFB4FF0FF3005B0BDE8F0832DE9F8439B
:100220000A9C8046206B00EB8200001FC708FF007D
:10023000994607F007000A5C231883F834200A5C0B
:1002400012B1401C1028F6D3002084F8430004F1BA
:100250004405089E072E28BF0626E6622E606860C9
:10026000201D00F0EEFB04F1180000F0EAFBC6F1DF
:100270000700A061246164620020A86028734A46D8
:100280004146384600F018FC2060099800B104602F
:10029000BDE8F1832DE9F041044600F088FCDFF869
:1002A0005455DFF85485E86C401CE8641426A86AAD
:1002B00028BBAC62E86C012827D1002706FB07F0B9
:1002C000404400F0B1FB7F1C072FF7D305F1740009
:1002D00000F0AAFB05F18807384600F0A5FB284688
:1002E00000F0A2FB05F1140000F09EFB05F13800C0
:1002F00000F09AFB05F17400E8622F6305E0A86D39
:1003000018B900F018F828BFAC62A86E401CA866A7
:1003100000F055FA704300F00AF800F061FCA86D97
:1003200018B1A86AE16A00F059FABDE8F081211D10
:10033000404400F089BBE06AA96AC96A88427047F4
:10034000616D012202FA00F021EA00006065704749
:1003500010B504000DD0DFF89C04006F00F0E9F840
:1003600000F035F80021204600F04EFA00F035F894
:1003700008B900F0AFF910BD1CB5DFF8F0440FF27A
:10038000F84104F19C00019000230020009080229D
:100390000FF20130FFF716FF502101280FD181F332
:1003A000118800F016FA4FF0FF30E0660120A065DA
:1003B00000202065BDE8134000F0A6BB13BD10F17E
:1003C000010FFBD181F3118800F003FAFEE7DFF89B
:1003D0009C04016F491C0167704770B500F01BF960
:1003E0000026002400F043F800F0E1FB286F401ED7
:1003F0002867286F002832D1E86CB0B92FE0E86890
:10040000C66800F030F800F091F8F06A696D0122DA
:10041000824000F0F3F9311D104400F015FBF06A42
:10042000FFF78AFF24BF0120286628680028E6D14C
:100430000EB100F063F9EE6D3EB100F022F808B1A4
:1004400001202866761EF8D1EC65286E38B1DFF8F9
:1004500018144FF080500124086000F0BAF900F041
:10046000BFFB204670BD06F1180000F012BB38B982
:10047000502080F31188BFF34F8FBFF36F8FFEE7DB
:1004800070472DE9F84300F0C6F80024002844D155
:10049000286D10F10109C5F850900CD1E86A006888
:1004A00000F047F8E86A296BE9622863686E401C2F
:1004B000686600F023F9E86EDFF8A8831427814509
:1004C00022D314E000F032F8B06A08B1FFF7CBFF96
:1004D000F06A696D01228240114369657843311DDC
:1004E000FFF726FFF06AFFF727FF28BF0124E86A1D
:1004F000006810B94FF0FF3005E0E86AC068C668D0
:1005000070688145DED2E866A86AC06A784358F808
:100510000000022804D3012402E0E86D401CE865D5
:10052000286E00B101242046BDE8F283301D00F0A2
:10053000B0BA38B1502080F31188BFF34F8FBFF3AA
:100540006F8FFEE77047DFF8AC02016F11B1012138
:100550000166704701661422416DB1FA81F1C1F163
:100560001F015143DFF8FC2253583BB9502080F360
:100570001188BFF34F8FBFF36F8FFEE7114401F176
:1005800008034A6852684A609A4204BF52684A6047
:100590004968C9688162704710B50C46FFF767FF6C
:1005A000DFF85012896A183100F05AFA2046BDE887
:1005B0001040FFE7012127E138B5C068C46814B9CD
:1005C00000F004F9FEE704F1180000F062FA00F010
:1005D00022F820B900F0F0F800F010F802E004F181
:1005E0001801284600F030FAA86AE16AC06A884219
:1005F00002D20120286632BD002032BDE06A696D5A
:1006000001228240114369651423DFF858225843C0
:10061000211D10447047DFF85452286F7047DFF8EF
:100620004C124A6E0260096D41607047F8B504468D
:100630000D46502014B900F0CAF8FEE715B900F0D5
:10064000C6F8FEE700F0B3FADFF82002016D626839
:100650002E688B1A16F1010F0CD0406E2768B84235
:1006600001D091420AD2B34206D2F01A2860204645
:10067000FFF7D5FF002402E000202860012400F0ED
:10068000AFFA2046F2BDDFF8E4110120086670479A
:100690000000000070B5DFF86041DFF8D05110E0D5
:1006A00000F085FA286AC668FFF740FFE86C401E34
:1006B000E864686B401E686300F092FA304600F010
:1006C00013F8686B0028EBD120680228F9D300F0FA
:1006D00001F8F6E7DFF890114FF080500860BFF3A3
:1006E0004F8FBFF36F8F704710B50446206B00F03B
:1006F0004CF92046BDE8104000F047B9DFF8F4009F
:10070000C16A096811B94FF0FF3103E0C16AC968D5
:10071000C9684968C1667047DFF85001816D09B941
:1007200001207047006F08B9022070470020704711
:100730002DE9F04104460020002C3BD02D4DAA6A43
:100740005021944204D081F3118800F042F8FEE772
:10075000A26C22B981F3118800F03BF8FEE7636CCC
:10076000511EE26AA1649A4224D019BB00F024F819
:1007700001261427DFF8EC80002801BFE06A07FBA0
:1007800000F158F80110002905D1696D06FA00F052
:1007900021EA00006865606CE062C0F10700A061BA
:1007A000E06A696D06FA00F2114369657843FFF764
:1007B000BEFD0120BDE8F081201D00F06AB90122D4
:1007C000E06A696D8240114369657047502080F38B
:1007D0001188BFF34F8FBFF36F8F7047C06A884295
:1007E00007D221494FF080500860BFF34F8FBFF30D
:1007F0006F8F7047B0400020504100201143696561
:100800001423184A58437047F8B5184C256D06460E
:10081000A06A0F46001D00F03CF920B9A06A616D86
:10082000C06AFFF78EFD16F1010F05D127B1A06A4E
:10083000011D04F138001BE0A06A76194660AE4243
:10084000A06A05D2011D206BBDE8F44000F008B994
:10085000011DE06A00F004F9E06E864238BFE666EA
:10086000F1BD00005041002004ED00E0B040002048
:10087000BDE8F44000F0E8B849444C4500000000F1
:100880002DE9F8430446FFF7A2FD664FB86800253E
:10089000A94608BB07F1180307F1180213F0070374
:1008A0004FF47051104605D0D01DC008C000C0F5EF
:1008B0007051511809180839C908C90038607D609D
:1008C000B9604D600D600A1A42600160406838618D
:1008D000F8604FF0004078614FF0500878690442AA
:1008E00041D1002C3FD0083414F0070F1FBF04F192
:1008F000080004F00701441A14F0070F00F03CF858
:100900008CB3F868A0422ED33E68384601E03046EA
:100910000E467168A14202D231680029F7D1B96848
:100920008E4220D0016801F10805316801607068CD
:10093000011B112908D3301910F0070200F01CF830
:100940004160746000F04AF87068F9683A69091A01
:10095000F960914238BF3961796908437060C6F81F
:10096000009005F00709FFF738FDB9F1000F00F01E
:1009700003F82846BDE8F28306D088F31188BFF358
:100980004F8FBFF36F8FFEE7704738B5F0B1A0F11E
:100990000804244D606869695022084202D100F0C1
:1009A00016F8FEE7236813B100F011F8FEE788435C
:1009B0006060FFF70CFDE86861680818E860204691
:1009C00000F00CF8BDE83140FFF707BD31BD82F300
:1009D0001188BFF34F8FBFF36F8F704730B5114948
:1009E0000A4600E01A4613688342FBD35368D418C2
:1009F000844203D14068C0185060104643681468B0
:100A0000C518A54208D189688C4204D06168C9180C
:100A10004160246800E00C460460824218BF106008
:100A200030BD00009804002000F1080141604FF043
:100A3000FF31816000F10801C160016100210160A6
:100A4000704700210161704742684A6093688B607B
:100A500093685960916008610168491C01607047A2
:100A600030B50A6812F1010F08BF036907D000F121
:100A7000080300E023465C682568AA42FAD25A6857
:100A80004A6091608B60596008610168491C01608F
:100A900030BD4368016982689A60836842685A6021
:100AA0004A68824204BF82684A6000220261086884
:100AB000401E0860086870474908490010B5A0F159
:100AC00020034FF080749961DC611A600FF211010C
:100AD00059616FF0020140F8241D203810BD00005C
:100AE00053494968502011F1010F06D080F3118855
:100AF000BFF34F8FBFF36F8FFEE780F31188BFF313
:100B00004F8FBFF36F8FFEE730B54A494A4B83B032
:100B10000A6850209A4202D100F083F8FEE70A6882
:100B2000464B9A4202D100F07CF8FEE7444A404C22
:100B300013780193FF23137013788DF800309DF81C
:100B4000003003F0500323700723A36006E05B1E10
:100B5000A3609DF800305B008DF80030A3689DF81D
:100B600000502D06F3D4C3F10705042D02D000F088
:100B700058F8FEE7180200F4E060A06001981070D9
:100B8000086A40F470000862086A40F07040086229
:100B900000F05CF80020606000F0B6F829480168B9
:100BA00041F04041016000F09FF800203EBD502020
:100BB00080F31188BFF34F8FBFF36F8F1C494A68D2
:100BC000521C012A4A600AD11F490968090606D049
:100BD00080F31188BFF34F8FBFF36F8FFEE770472D
:100BE0001348416839B9502080F31188BFF34F8F03
:100BF000BFF36F8FFEE7491E416004BF002080F302
:100C00001188704780B5502000F00BF8FFF739FCD1
:100C100018B10D494FF080500860002080F3118812
:100C200001BD80F31188BFF34F8FBFF36F8F704703
:100C30007C00002000ED00E071C20F4170C20F4146
:100C400000E400E034EF00E004ED00E0074800219C
:100C5000016081604FF47A7205490968B1FBF2F1D5
:100C6000491E416007210160704700BF10E000E0AD
:100C700094000020EFF30980BFF36F8F264B1A68B2
:100C80001EF0100F08BF20ED108A20E9F04F106011
:100C900009B44FF0500080F31188BFF34F8FBFF3BA
:100CA0006F8FFFF750FC4FF0000080F3118809BCF4
:100CB00019680868B0E8F04F1EF0100F08BFB0ECDC
:100CC000108A80F30988BFF36F8F7047124B196841
:100CD0000868B0E8F04F80F30988BFF36F8F4FF0DA
:100CE000000080F3118870470C480068006880F3AA
:100CF00008884FF0000080F3148862B661B6BFF335
:100D00004F8FBFF36F8F00DFDFF81400016841F4ED
:100D10007001016070470000D840002008ED00E03D
:100D200088ED00E02DE9F0438FB000F0DFFA00F02D
:100D300029F900F075F900F0D2F9DFF81C450168D7
:100D4000DFF81855DFF81865DFF81895DFF8187523
:100D500041F4800101600521006800F480000090EA
:100D60004FF4E13800983A2000F0F4FA3A2000F00D
:100D70000EFBDFF8F8046061C4F818800020E06121
:100D8000206260620C20A0620020E062206304F117
:100D9000140000F011FBDFF8D8042862C5F82480A5
:100DA0000020A862E86228630C2068630020A86322
:100DB000E86305F1200000F0FFFADFF8B8043060C6
:100DC000C6F804800020B060F06030610C207061D3
:100DD0000020B061F061304600F0EEFADFF87404F4
:100DE000DFF894140160C0F8048000218160C160C4
:100DF00001610C21416100218161C16100F0DCFAD7
:100E0000DFF87804C9F82000C9F824800020C9F868
:100E10002800C9F82C00C9F830000C20C9F83400AB
:100E20000020C9F83800C9F83C0009F1200000F0A2
:100E3000C3FADFF84C043862C7F824800020B86297
:100E4000F86238630C2078630020B863F86307F118
:100E5000200000F0B1FADFF82C84012200F089F8BC
:100E60000022402100F086F80022802100F082F864
:100E7000DFF814840122402100F07CF8002200F009
:100E800078F8D9F8200000F078F8606900F075F87B
:100E9000286A00F072F8386A00F06FF801210FF24A
:100EA000144000680090684600F07DFCE065012178
:100EB0000FF204400068089008A800F074FC206657
:100EC00001210FF2F8300068079007A800F06BFCD2
:100ED000606601210FF2E8300068069006A800F075
:100EE00062FCA06601210FF2DC300068059005A8C5
:100EF00000F059FCE06601210FF2CC30006804904C
:100F000004A800F050FC206701210FF2C0300068F7
:100F1000039003A800F047FC606701210FF2B03096
:100F20000068029002A800F03EFCA06700220FF2C9
:100F3000A43000680190012101A800F032FCA065F6
:100F4000142209A80FF2903100F050FC002109A8EA
:100F500000F009FC606500F001FC202229463046C3
:100F600000F08EFA706B0068016821F008010160E2
:100F7000FEE72021404600F032BDC16841F020016B
:100F8000C160704700B593B006A8342100F046FD5B
:100F900001A8142100F042FD00200090DFF8EC02CF
:100FA000016841F080510160006800F080500090BD
:100FB000009800200090DFF8D802016841F4404119
:100FC0000160006800F44040009000980220069004
:100FD0000120099010200A9002200C9000200D9012
:100FE00010200E904FF4B4700F90022010901190CA
:100FF000129006A800F051FD00F0C6FE0F200190EF
:10100000052102200290002003904FF4A05004908C
:101010004FF48050059001A800F0F0FE13B000BD21
:1010200010B586B001A8142100F0F8FC00F057F8C4
:10103000DFF86042016841F004010160016801F0DD
:10104000040100F046F841F080010160016801F000
:10105000800100F03EF841F001010160016801F0FB
:10106000010100F036F841F002010160016801F071
:10107000020100F02EF841F0080101602021006813
:1010800000F0080000900098204600F0A8FC4FF403
:101090000050019001A9DFF80002029000200390A7
:1010A000DFF8E00100F0CEFB2020019001A9012033
:1010B0000290002003900490204600F0C3FB002221
:1010C0000521282000F046F9282000F060F906B03C
:1010D00010BD009100990021009101687047002027
:1010E00000900022DFF8B4017047F8B50168614A4A
:1010F0005A4C594D914236D1406B00684268287B6A
:1011000092B220B1202A02D100202873F1BD298A91
:101110002E7B2029B4BFC1F1200000204EB12A82CD
:101120002029B4BF891AC2F12001002289B22A7392
:1011300004E0C0F12001202289B22A820022584B0B
:1011400008E080B22E78275C9F5500F052F82E7090
:10115000521C401C92B28A42F3DB202221464048B6
:1011600000F08EF9F1BD454881420CD13D4C00F0B4
:1011700053F800283CD1A8789DF80010215400F0C5
:1011800042F8A870F2E73948374E81420FD1012268
:10119000694605F1140000F046F9002828D12879A5
:1011A0009DF80010315400F02EF82871EFE7304818
:1011B00081420AD100F030F8D0B9A8799DF800102A
:1011C000384A00F01FF8A871F4E72D4881420FD18A
:1011D00006E0287A9DF80010334A00F013F82872D0
:1011E0000122694606F1200000F01DF90028F0D028
:1011F000F1BD761CF6B2770906EB9767BF09A6EB3F
:10120000871670471154401CC0B2010900EBD16130
:101210004909A0EB411070470122694604F1200002
:1012200000F001B97047704780B54021154800F0C3
:10123000DAFB2021174800F0D6FB4FF47A7000F05B
:10124000A9FAF2E700681949884208BF00F092BE87
:10125000704700009C43002000000020DC4100207B
:101260005C4300203C4200209C420020004C004097
:101270000050004000100140004400400048004081
:1012800000140140000802400004024040380240BF
:101290000070004000000240000021103038024081
:1012A000DC4300205C4400207C440020000001401E
:1012B0007047000000000000000000000000000077
:1012C000000000000000000000000000000000001E
:1012D0000000000027120008942E000829120008C0
:1012E000FEFF0000000000008000000080B50B48F9
:1012F000016841F400710160016841F4806101609E
:10130000016841F480710160032000F016F80020AC
:1013100000F038FE00F074FE002002BD003C0240E8
:101320000901020002D41F48815470471E4802F090
:101330000F02104400F8041C70471C490A684FF65D
:10134000FF0300021A4000F4E0601043184A104303
:101350000860704738B5154B1B68C3F30223C3F10F
:101360000704052C28BF04241D1D072D34BF0023AE
:10137000DB1E012505FA04F4641E2140994005FA9C
:1013800003F35B1E1A401143BDE83440C8E7002850
:1013900007D4012100F01F029140064A400942F89B
:1013A0002010704700E400E018ED00E00CED00E0D4
:1013B0000000FA0500E100E038B5050001D1012088
:1013C00032BD05F13804607818B92070284600F065
:1013D00036FE00F017F800F00DF821F02A01FFE7C3
:1013E0004161286800F019F8606020206070A070EA
:1013F000002032BD2868016921F49041016128680C
:1014000041697047242060702868C16821F4005148
:10141000C160284600F0DBB82068C16841F4005183
:10142000C1600020704710B500F138039C78202C73
:1014300021D109B1140001D1012010BD1C78012C6B
:1014400019D001241C7081628285C28500215960F7
:1014500022219970002119700168CA6842F48072D3
:10146000CA6001684A6942F001024A610068C168C5
:1014700041F0200101E0022010BDC160002010BD3C
:1014800038B5044604F13805A87820283DD109B1C3
:10149000100001D1012032BD2878012835D001206B
:1014A0002870A162A285002068602220A870636B6A
:1014B0000FF26100D863636B0FF291001864636BE5
:1014C0000FF29100D8640020636B18651346206802
:1014D0000A46011D606B00F05CFF00200090206850
:1014E0000168009141680091009900212970C1684C
:1014F00041F48071C1602068416941F0010141619E
:101500002068416941F0400101E0022032BD4161A3
:10151000002032BD0146886B09680968C90513D4EB
:101520000021C1850168CA6822F48072CA6001681E
:101530004A69520852004A6101684A6922F0400231
:101540004A61202180F83A10FFF7CFBD806B01F08F
:1015500063B8000038B5846B2068406904F1390530
:101560002978212906D1000604D50020E0842046F0
:1015700000F015F8206840696978222906D14006F4
:1015800004D50020E085204600F012F8E06B40F022
:101590001000E0632046BDE83240FFF743BE01681B
:1015A000CA6822F0C002CA60202180F83910704752
:1015B0000168CA6822F49072CA6001684A695208D8
:1015C00052004A61202180F83A10704700002DE94E
:1015D000F0470446642520680169E26821F440511F
:1015E000114301611926C168484A1140A26811439C
:1015F0002269114362691143E2691143C160416983
:10160000A26921F4407111434161E3694049414AB3
:10161000B3F5004F3AD1904218BF88420ED100F086
:1016200078FC074600F075FC804600F072FC8146AD
:1016300000F06FFC824600F06CFC0DE000F061FCF5
:10164000074600F05EFC804600F05BFC814600F03F
:1016500058FC824600F055FC06FB08F3616849001F
:1016600000F05AF8DB003233B3FBF5F3B2FBF1F2D2
:101670005B00B2FBF5F203F4F87300F05AF8C00017
:101680003230B0FBF5F000F0070038E0904218BFB0
:1016900088420ED100F03DFC074600F03AFC80463F
:1016A00000F037FC814600F034FC824600F031FC4B
:1016B0000DE000F026FC074600F023FC804600F019
:1016C00020FC814600F01DFC824600F01AFC06FB5F
:1016D00008F36168890000F01FF81B013233B2FB88
:1016E000F1F2B3FBF5F3B2FBF5F203F0F00300F017
:1016F00020F800013230B0FBF5F000F00F00216857
:1017000080188860BDE8F08700000000F369FFFFE3
:101710000014014000100140B3FBF1F306FB07F297
:1017200006FB09F7B7FBF1F7B7FBF5F705FB173336
:10173000704703EB0212704306FB0AF3B0FBF1F0B3
:10174000B3FBF1F3B0FBF5F005FB10307047000080
:101750000021842818BFC11C0846704780B5FEF7D9
:101760000BFE002002BD3EB504460D46B4F908004C
:10177000FFF7EEFF02A9019100902B462269216834
:10178000606892B2FEF71EFD012801D000203EBD28
:1017900002983EBD80B500B90120FEF7D9FD0020BA
:1017A00002BD0020704710B501290DD10322002190
:1017B000012000F06FFF040004D00023002200216C
:1017C00000F08FFF204610BD002010BD62B38B07D4
:1017D00008D0521E11F8013B00F8013B00F02480B4
:1017E0008B07F6D1830740F0208000BF103A07D363
:1017F00030B4B1E83810103AA0E83810F9D230BC53
:10180000530724BFB1E80810A0E8081044BF51F8FE
:10181000043B40F8043BD20724BF31F8022B20F8E8
:10182000022B44BF0B7803707047083A07D3B1E826
:101830000810083A40F8043B40F804CBF7D25307AD
:10184000E4E700002DE9F84F02460023DFF8A48109
:10185000DFF8A491DFF8A4A14FF00F0B01200C6872
:10186000984000EA040E864540F0B3804D689C0025
:10187000022D18BF122D0FD1DD0802EB850C04F0EC
:101880001C05DCF820600BFA05F7BE430F6907FA68
:1018900005F53543CCF820504FEA430C0325166874
:1018A0000F7905FA0CF5ED4307F003072E4007FA10
:1018B0000CF73E4316604E68012E18BF022E03D06F
:1018C000112E18BF122E0FD19668CF682E4007FA3E
:1018D0000CF73E439660566826EA00004E68C6F351
:1018E00000169E4030435060D06828408D6805FA4D
:1018F0000CF52843D0604868C0006AD500200090ED
:1019000004F00C06DAF8000040F48040CAF8000049
:101910000BFA06F4DAF8000000F48040009000981A
:10192000980859F8205025EA0404354DAA4208BF0A
:1019300000251DD0334DAA4208BF012518D0324DD5
:10194000AA4208BF022513D0304DAA4208BF032582
:101950000ED02F4DAA4208BF042509D02D4DAA4212
:1019600008BF052504D02C4DAA420CBF062507252B
:10197000B5402C4349F820406FEA0E00D8F80040EB
:1019800000EA040C4C68E40348BF4EEA0C0CC8F8AB
:1019900000C0D8F8044000EA040C4C68A40348BF17
:1019A0004EEA0C0CC8F804C0D8F8084000EA040C51
:1019B0004C68E40248BF4EEA0C0CC8F808C0D8F8DE
:1019C0000C4020404C68A40248BF4EEA0000C8F812
:1019D0000C005B1C102BFFF441AFBDE8F18F02B986
:1019E00009048161704742690A408A4208BF0904BC
:1019F00081617047003C0140083801404438024092
:101A0000000002400004024000080240000C0240B6
:101A1000001002400014024000180240002200F0B2
:101A200083BF00002DE9F041DFF85043DFF8446345
:101A30006268DFF8440302F00C02042A15D0082A79
:101A400002D00C2A08D00FE000F011F82168C1F391
:101A50000141491C490004E000F009F82168C1F384
:101A60000271B0FBF1F000E03046BDE8F081226881
:101A7000256800236D0202F03F0207D52568C5F3F3
:101A80008811A0FB01673046394604E02068C0F3A6
:101A90008818A6FB080100F061BF2DE9F843044651
:101AA000DFF8C8522078C00748D500F05BF9042859
:101AB0000DD000F057F9082802D16868400206D41A
:101AC00000F050F90C2809D16868400206D5286852
:101AD000800333D5606888BB012037E16068B0F5CA
:101AE000803F06D0B0F5A02F286806D140F48020B2
:101AF0002860286840F4803005E020F480302860B9
:101B0000286820F480202860606858B100F09EFFAB
:101B100007462868800311D400F098FFC01B652891
:101B2000F7D310E100F092FF07462868800305D53F
:101B300000F08CFFC01B6528F7D304E12078904E9D
:101B400080071ED5A86810F00C0F0DD000F00AF920
:101B5000082802D16868400206D500F003F90C2875
:101B600023D16868400220D42868800702D5E06845
:101B70000128B1D12868216920F0F80040EAC100AD
:101B80002860207800073AD561697E4851B3012169
:101B9000016000F05BFF0746686F80072FD400F0FC
:101BA00055FFC01B0328F7D3CDE0E06868B10120E2
:101BB000306000F04BFF074628688007DAD400F059
:101BC00045FFC01B0328F7D3BDE0306000F03EFFA7
:101BD000074628688007D4D500F038FFC01B0328CB
:101BE000F7D3B0E0016000F031FF0746686F80076F
:101BF00005D500F02BFFC01B0328F7D3A3E0207806
:101C0000400761D5286CC0004FF000080CD4CDF817
:101C100000804FF00108286C40F080502864286C48
:101C200000F0805000900098DFF84491D9F800004F
:101C3000C00512D4D9F8000040F48070C9F8000043
:101C400000F004FF0746D9F80000C00505D400F0F5
:101C5000FDFEC01B0328F6D375E0A068012805D05F
:101C60000528286F06D140F004002867286F40F04F
:101C7000010005E0400840002867286F20F00400BC
:101C8000286741F28939A06858B100F0DFFE0746A5
:101C9000286F800711D400F0D9FEC01B4845F7D348
:101CA00051E000F0D3FE0746286F800705D500F00D
:101CB000CDFEC01B4845F7D345E0B8F1000F03D077
:101CC000286C20F080502864A06900283DD0A968C5
:101CD00001F00C0108293FF4FFAE022828D100F0E2
:101CE0003DF807462868800105D500F0AFFEC01B0F
:101CF0000328F7D327E0E069216A0843616A40EAD4
:101D00008110A16A00F024F8E16A40EA0160216BC9
:101D100040EA01706860012000F021F80746286859
:101D2000800112D400F092FEC01B0328F7D30AE012
:101D300000F014F807462868800106D500F086FEFA
:101D4000C01B0328F7D3032000E00020BDE8F28386
:101D5000891EC903090C40EA014070470020306623
:101D600000F074BEA86800F00C0070470038024014
:101D7000007000400024F40000127A000438024091
:101D800000004742800E4742F8B500F01FF80120DE
:101D9000206000F05BFE07463068C00305D400F009
:101DA00055FEC01BA842F7D30CE00120606000F094
:101DB0004DFE07463068800306D400F047FEC01B86
:101DC000A842F7D30320F2BD0020F2BD002000900E
:101DD00040F2E9350748084C0168054E41F0805152
:101DE0000160006800F0805000900098704700008B
:101DF000047000404038024040000E422DE9F0419E
:101E000004000D4652D0554E00F076F802D200F094
:101E100072F84BD12068524F810712D5400703D585
:101E2000B86840F4E050B8602078000703D5B8687F
:101E300040F46040B860B868A16820F0F000084342
:101E4000B8602078C00729D56068012802D13968B8
:101E5000890305E0022818BF032803D139688901E6
:101E600003D423E03968890720D5B968890840EA96
:101E70008100B86000F0EAFD8046B868616800F053
:101E80000C00B0EB810F09D000F0E0FDA0EB0800E2
:101E900041F289318842F0D303202AE0306800F013
:101EA0000F00854204D200F026F801D0012020E086
:101EB0002078400705D5B868E16820F4E050084371
:101EC000B8602078000706D5B868216920F4604022
:101ED00040EAC100B860FFF7A5FDBA682149C2F326
:101EE0000312895CC84020490860002000F04AF8CD
:101EF0000020BDE8F0813570306800F00F00A84286
:101F000070471948194A006812681949C2F38222B9
:101F100006E01548154A006812681549C2F34232B6
:101F2000895CC84070470F220260104A136803F0B2
:101F300003034360136803F0F0038360136803F442
:101F4000E053C3601268D20802F4E0520261034811
:101F5000006800F00F00086070470000003C02407D
:101F600000380240202D000894000020083802406C
:101F70009C2E000802484168027889184160704729
:101F80008800002010B5014688B000221920FFF714
:101F9000E1F91920FFF7FBF900200090144C1548D7
:101FA000016841F00101016001A9006800F0010031
:101FB0000090009802A8FFF7B6FFFFF7AAFF0E49AE
:101FC0002160400040F2E731E1600C49B0FBF1F0E4
:101FD000401E606000202061A060204600F03CFDB3
:101FE00018B9204600F045FD00E0012008B010BD02
:101FF0001C440020443802400000014040420F00D1
:1020000082B00020009000229A48416841F480414B
:102010004160416801F480410091009900210091E4
:10202000016841F0805101600F21006800F080508C
:10203000009000986FF0010002B0FFF78BB970B507
:1020400086B0044601A81421FFF7E8FC23688A4AF9
:102050008A488B49934214D1002200920A6942F4C3
:1020600000220A610A6902F4002200F0F0F803215C
:102070000191022102910121039103210491082180
:1020800069E000F0F2F822D100200090086940F4E5
:1020900080100861086900F4801000F0BEF840F07C
:1020A00008000860086800F00800009001A9009886
:1020B0004FF4805000F0A6F8FFF7C4FB0420019015
:1020C00001A900F098F8082005906E488FE06E4E48
:1020D000B3424FF480652DD1002200926B4E4A69C5
:1020E00042F010024A614A6902F0100200F0AFF8B3
:1020F0004FF4C06100F0A2F8059101A9FFF7A2FB1F
:102100006348306035614FF0006070600020B0605F
:10211000F0607061B0614FF48070F0610020306257
:102120007062304600F0C2F808B1FFF7C1F866638C
:10213000B4635EE0574CA34210D1002200920A69BA
:1021400042F400320A610A6902F4003200F07FF8BA
:102150000C2100F073F8059101A948E04E48834234
:1021600028D100200090086940F4802008610869A7
:1021700000F4802000F051F840F002000860086888
:1021800000F00200009001A900982020019000F0CA
:1021900032F8072005901046FFF754FB022002900A
:1021A00001950120039001A90320049007200590C8
:1021B0003A481CE03A4883421BD10020009048690D
:1021C00040F020004861486900F02000009000982D
:1021D00000200090086840F004000860086800F0E3
:1021E0000400009001A90098C02000F00BF8FFF750
:1021F00029FB06B070BD022002900120039003204D
:102200000490704701900220029001200390032067
:102210000490082005901046704700900098002018
:102220000090086840F004000860086800F00400AE
:1022300000900098002000900868704701910221EA
:10224000029101210391032104910721704700921B
:10225000009A002200920A6842F001020A600968AE
:1022600001F001010091009970470E4D0E4AAB42FA
:102270007047000040380240004C0040000002401F
:1022800030380240000C024000100140FC420020A7
:102290004064024000440040004800400004024006
:1022A00000140140005000400008024070B5044690
:1022B00000F0CCFB06460CB9012070BD04F13405DA
:1022C000002028700220687000F09BF820680168E8
:1022D000C90708D500F0BAFB801B0628F6D32020DA
:1022E0002862032053E00168DFF8B42211406268DD
:1022F0001143A2681143E2681143226911436269E4
:102300001143A2691143E2691143226A1143626ACF
:10231000042A03D1E26A236B1A4311430160206847
:102320004169626AC908042A42EAC1010AD1A26A63
:10233000E36A114333B1A66996B9002A18BF022A8D
:1023400020D017D34161204600F04EF9AA6A3F2100
:10235000914081600020286201206870002070BDDB
:10236000B6F5005F0AD1032AECD8DFE802F00D0BC6
:102370000D03E7E7B3F1C07FE4D105E0022A03D9FA
:10238000D21EDFD1DA01DDD540202862012068703D
:1023900070BDF8B5054605F1340600243078776A3B
:1023A000012801D10220F2BD01203070707801288F
:1023B0001DD1022070703462284600F005F9B16A20
:1023C0003F208840B8602868016841F0160101602C
:1023D0002868416941F080014161F06820B12868B6
:1023E000016841F00801016000F005F801E0347077
:1023F00002242046F2BD2868016841F00101016015
:1024000070472068016849084900016070472DE95C
:10241000F04182B00446002004F1340600904FF4ED
:102420001651776A5F4800683D68B0FBF1F8B16A01
:10243000082000FA01F10D420ED021680A68520707
:102440000AD50A6822F004020A60B16A8840B860BE
:10245000306A40F001003062B06A25FA00F1C90725
:102460000BD521684969090607D5012101FA00F059
:10247000B860306A40F0020030620420B16A8840DF
:10248000054208D021680968890704D5B860306A18
:1024900040F0040030621020B16A884005421DD02F
:1024A00021680968090719D5B860206801684903DF
:1024B00008D5006800030CD5716908000ED02046CD
:1024C00088470BE00168C90503D4016821F00801C1
:1024D0000160F16808001CBF20468847B16A2020CF
:1024E000884005423DD021680968C90639D5B860E1
:1024F000206871780529016818D100F055F8F06856
:10250000002804BF7069002801D000F056F83F2071
:10251000B16A8840B8600020307001207070F169A5
:1025200008003BD02046BDE8FC410847490308D5D8
:102530000068000310D43169080012D02046884793
:102540000FE00168C90507D4016821F0100101609E
:102550000020307001207070B16808001CBF204658
:102560008847306AD0B1306AC00710D50520707036
:10257000FFF747FF0098401C8045009003D3206878
:102580000068C007F6D40020307001207070B16977
:10259000080003D02046BDE8FC410847BDE8F381B0
:1025A0003F8010F09400002021F0160101602068A7
:1025B000416921F08001416170472068016821F084
:1025C000080101607047000030B50468256825F4F3
:1025D0008025256063608068402802D1A260E160A8
:1025E00030BDA160E26030BD016801F0FF02103A29
:1025F0001823B2FBF3F20FF218039B5CC365890A40
:102600008902042A28BF091D816508467047000019
:1026100000061016000610167047000038B50400BA
:102620000D4602D100F00DF9FEE7FEF7C0FAE16BAE
:10263000226C20685143084460600020A063206839
:10264000E16B226CA060491E206851430844E060A1
:102650004FF0FF3104F144000170417075B92069F9
:10266000A0B104F11000FDF7A7FF78B1DFF8B412B4
:102670004FF08050086000F0D6F807E004F1100039
:10268000FEF7D2F904F12400FEF7CEF9FEF7A8FA1E
:10269000012032BDF8B504000D46164602D100F007
:1026A000D0F8FEE7002D0EBF482005FB04F04830AF
:1026B000FEF7E6F8070007D00097334607F1480217
:1026C0002946204600F002F83846F2BD82B0029B4F
:1026D00001B91A461A60D86319641846012102B07C
:1026E0009CE72DE9F74F804600245025B8F1000FF4
:1026F0008B461E4600F080F8BBF1000F08F124075E
:1027000001D1F86960B9022E02D1B86901280AD155
:10271000FEF702F870B9029860B100F082F8FEE7A7
:1027200000F07FF8FEE700F07CF8FEE700F087F8A5
:10273000FDF753FEFEF73BFA7869B969DFF8E491DB
:1027400088424FF0805A01D3022E14D132465946A6
:10275000404600F07EF8396821B13846FDF72CFF7D
:1027600008B904E018B1C9F800A000F05CF8FEF761
:1027700037FA01203EE0029810B9FEF731FA38E04E
:1027800014B900F042F80124FEF72AFAFDF71FFE03
:10279000FEF70DFA00F04CF804BF0021017000F0C4
:1027A0003BF804BF00214170FEF71AFA00F030F840
:1027B000D8B9FEF7FCF97869B96988420CBF0125E0
:1027C0000025FEF70DFA002DB0D0029908F1100097
:1027D000FDF7E2FE00F033F8FDF7FFFD0028A9D178
:1027E000C9F800A000F01FF8A4E700F028F8FDF7F2
:1027F000F4FD0020BDE8FE8F06D185F31188BFF3FC
:102800004F8FBFF36F8FFEE770476846FDF707BF36
:1028100002A96846FDF70ABF90F9011011F1010FF6
:10282000704785F31188BFF34F8FBFF36F8F7047E9
:1028300008F1440090F9001011F1010F7047404673
:102840003BE0502080F31188BFF34F8FBFF36F8FB1
:102850007047F8B504461746A56B226C002642B9AE
:10286000206830BB6068FDF763FF064600206060AB
:102870001FE067B9A068FEF7A9FFA068216C0844B3
:102880006168A060884214D32068A06011E0E0680D
:10289000FEF79CFF206CE16840420144E160226841
:1028A000914202D261680844E060022F01D105B173
:1028B0006D1E681CA0633046F2BDF8B50446FEF7F5
:1028C00076F904F1440504F1100795F9016007E079
:1028D00004F12400FDF770FE08B1FDF7D4FE761E6A
:1028E00076B2012E02DB78690028F1D14FF0FF3477
:1028F0006C70FEF775F9FEF75AF995F9006006E07D
:102900003846FDF759FE08B1FDF7BDFE761E76B2DA
:10291000012E02DB38680028F2D12C70BDE8F140AE
:10292000FEF75EB904ED00E000B500BF1300964667
:102930009446103928BFA0E80C50FAD85FEA417CD1
:1029400028BF0CC048BF40F8042BC90728BF20F897
:10295000022B48BF00F8012B00BD00001B4213D121
:10296000094236D12AB18446B0FBF2F002FB10C214
:10297000704700F0A5B9FCD30022002370470B007C
:102980000200002100207047904271EB030CF6D347
:1029900070B5B1FA81F4B3FA83F52C1BA340C4F1EE
:1029A000200532FA05F63343A2405FF00046E640C8
:1029B00002E05B085FEA3202841A71EB030524BF70
:1029C000204629467641F4D302000B003000002156
:1029D00070BD012ACFD970B5140C20D0B1FA81F4A2
:1029E000B2FA82F5C4F120046419B4F12006D6D3FA
:1029F000B2405FF00044F440002502E052085FEA74
:102A00003303C61A71EB020E24BF3046714664418F
:102A10006D41F3D302000B002000290070BD0C466D
:102A2000B1FBF2F102FB11452D0445EA1045B5FB5F
:102A3000F2F402FB145580B240EA0545B5FBF2F012
:102A400002FB105240EA044070BD0000014840689B
:102A5000704700BF8800002038B5040001D1012074
:102A600032BD00F020F818B92870204600F026F991
:102A70000FE00068C16841F00101C160816801F0A8
:102A80000701062903D0016841F00101016000201F
:102A9000704702206870211D206800F0ACF801200A
:102AA0006870002032BD04F13C056878704710B5AD
:102AB000044620680169890715D5C168890712D5C0
:102AC0006FF00201016101212177806910F0030F8D
:102AD000204602D000F0F5F803E000F0F3F800F033
:102AE00087F80020207720680169490715D5C1685B
:102AF000490712D56FF00401016102212177806935
:102B000010F4407F204602D000F0DBF803E000F034
:102B1000D9F800F06DF800202077206801690907D6
:102B200015D5C168090712D56FF0080101610421AC
:102B30002177C06910F0030F204602D000F0C1F8E1
:102B400003E000F0BFF800F053F800202077206881
:102B50000169C90615D5C168C90612D56FF0100103
:102B6000016108212177C06910F4407F204602D01E
:102B700000F0A7F803E000F0A5F800F039F8002015
:102B8000207720680169C90708D5C168C90705D53C
:102B90006FF0010101612046FEF754FB20680169D6
:102BA000090608D5C168090605D56FF080010161E5
:102BB000204600F088F820680169490608D5C168F8
:102BC000490605D56FF040010161204600F07CF810
:102BD0002068016989060AD5C168890607D56FF0A2
:102BE000200101612046BDE8104000F06EB810BD24
:102BF000204600F06BB8F0B5254B0468254A264DF9
:102C0000264E274F984218BFB0F1804F07D0B842E8
:102C100018BFB04203D0A84218BF90420FD1D1F8DC
:102C200004C0984224F0700418BFB0F1804F4CEA01
:102C3000040417D0B8421CBFB042A84212D0904240
:102C40001CBF184DA8420DD0174DA8421CBF174DF0
:102C5000A84207D0164DA8421FBF164DA842164DD8
:102C6000A84203D1CD6824F440742C434D6924F06C
:102C700080042C43046098428C68C4620C688462AF
:102C800012BF90420969016301214161F0BD00005A
:102C90000000014000040140000C0040000800401A
:102CA0000004004000400140004401400048014051
:102CB00000180040001C0040002000407047000049
:102CC0007047704770477047704770477047000003
:102CD0000E480F4A016841F4700101600D48016817
:102CE00041F0010101600021816001681140016033
:102CF00009494160016821F4802101600021C1601F
:102D00004FF00060054908607047000088ED00E062
:102D1000FFFFF6FE003802401030002408ED00E00E
:102D2000000000000000000001020304060708097B
:102D300019E050F8041BCB0744BFA9F1010359184F
:102D4000121F0023042A41F8043BF9D25FEA827C77
:102D50000B4604D54FF0000CA1F800C09B1CD10716
:102D600044BF0021197050F8042B002AE1D17047AC
:102D700030B5016842688468014401EB5203D20710
:102D800048BF4C44994201D10C3030BD11F9012BA0
:102D900011F8015B002A04F8015B02D5521CF9D13D
:102DA000F0E7521EF4D5EDE710B507497944183124
:102DB000064C7C44163404E00A68081D1144884718
:102DC0000146A142F8D110BD2C00000048000000CF
:102DD0004EF68851CEF20001086840F47000086099
:102DE000BFF34F8FBFF36F8F4FF00070E1EE100A0B
:102DF000704700003DFFFFFF0440000098040020E2
:102E0000000000006DFFFFFFEC0100002C0000003F
:102E1000000000207047FEE7FEE7FEE7FEE7704790
:102E20000248FFF744BE0248FFF7F1BA1C440020F5
:102E3000FC42002000F00BF8002801D0FFF7B4FF9F
:102E40000020AFF30080FDF76DFF00F002F80120D5
:102E5000704700F001B800000746384600F002F85D
:102E6000FBE7000080B5AFF30080024A1100182094
:102E7000ABBEFBE72600020001488047014800473F
:102E8000D12C0008892E0008AFF30080FFF7A0FFC7
:102E9000FFF7D0FF5461736B3200000000000000A8
:102EA00001020304FFF7FEBFFFF7FEBFFFF7FEBFFF
:102EB000FFF7FEBFFFF7FEBFFFF7FEBFFFF7FEBF46
:102EC000FFF7FEBFFFF7FEBFFFF7FEBFFFF7FEBF36
:102ED000FFF7FEBFFFF7FEBFFFF7FEBFFFF7FEBF26
:102EE000FFF7FEBFFFF7FEBFFFF7FEBFFFF7FEBF16
:102EF000FFF7FEBFFFF7FEBFFFF7FEBFFFF7FEBF06
:102F0000FFF7FEBFFFF7FEBFFFF7FEBFFFF7FEBFF5
:102F1000FFF7FEBFFFF7FEBFFFF7FEBFFFF7FEBFE5
:102F2000FFF7FEBFFFF7FEBFFFF7FEBFFFF7FEBFD5
:102F3000FFF7FEBFFFF7FEBFFFF7FEBFFFF7FEBFC5
:102F4000FFF7FEBFFFF7FEBFFFF7FEBFFFF7FEBFB5
:102F5000FFF7FEBFFFF7FEBFFFF7FEBFFFF7FEBFA5
:102F6000FFF7FEBFFFF7FEBFFFF7FEBFFFF7FEBF95
:102F7000FFF7FEBFFFF7FEBFFFF7FEBFFFF7FEBF85
:102F8000FFF7FEBFFFF7FEBFFFF7FEBFFFF7FEBF75
:102F9000FFF7FEBFFFF7FEBFFFF7FEBFFFF7FEBF65
:102FA000FFF7FEBFFFF7FEBFFFF7FEBFFFF7FEBF55
:102FB000FFF7FEBFFFF7FEBFFFF7FEBFFFF7FEBF45
:102FC000FFF7FEBFFFF7FEBFFFF7FEBFFFF7FEBF35
:102FD000FFF7FEBFFFF7FEBFFFF7FEBFFFF7FEBF25
:102FE000FFF7FEBFFFF7FEBFFFF7FEBFFFF7FEBF15
:102FF000FFF7FEBFF00000209100FCAAFC000001DA
:0A300000F9000010FC000224F400A7
:0400000508002E8938
:00000001FF
